{
  "contractName": "Carriers",
  "abi": [
    {
      "inputs": [
        {
          "internalType": "address",
          "name": "_votingCarrierAddress",
          "type": "address"
        }
      ],
      "payable": false,
      "stateMutability": "nonpayable",
      "type": "constructor"
    },
    {
      "constant": true,
      "inputs": [
        {
          "internalType": "uint256",
          "name": "",
          "type": "uint256"
        }
      ],
      "name": "carriers",
      "outputs": [
        {
          "internalType": "address payable",
          "name": "companyWallet",
          "type": "address"
        },
        {
          "internalType": "bytes32",
          "name": "company",
          "type": "bytes32"
        },
        {
          "internalType": "bytes32",
          "name": "web",
          "type": "bytes32"
        },
        {
          "internalType": "bool",
          "name": "enabled",
          "type": "bool"
        },
        {
          "internalType": "bool",
          "name": "exist",
          "type": "bool"
        }
      ],
      "payable": false,
      "stateMutability": "view",
      "type": "function"
    },
    {
      "constant": true,
      "inputs": [
        {
          "internalType": "address",
          "name": "",
          "type": "address"
        }
      ],
      "name": "carriersId",
      "outputs": [
        {
          "internalType": "uint256",
          "name": "",
          "type": "uint256"
        }
      ],
      "payable": false,
      "stateMutability": "view",
      "type": "function"
    },
    {
      "constant": false,
      "inputs": [],
      "name": "init",
      "outputs": [],
      "payable": false,
      "stateMutability": "nonpayable",
      "type": "function"
    },
    {
      "constant": false,
      "inputs": [
        {
          "internalType": "bytes32",
          "name": "_company",
          "type": "bytes32"
        },
        {
          "internalType": "bytes32",
          "name": "_web",
          "type": "bytes32"
        }
      ],
      "name": "updateCarrier",
      "outputs": [],
      "payable": false,
      "stateMutability": "nonpayable",
      "type": "function"
    },
    {
      "constant": true,
      "inputs": [],
      "name": "carrierLength",
      "outputs": [
        {
          "internalType": "uint256",
          "name": "length",
          "type": "uint256"
        }
      ],
      "payable": false,
      "stateMutability": "view",
      "type": "function"
    },
    {
      "constant": true,
      "inputs": [
        {
          "internalType": "address",
          "name": "_companyWallet",
          "type": "address"
        }
      ],
      "name": "getCarrierId",
      "outputs": [
        {
          "internalType": "uint256",
          "name": "carrierId",
          "type": "uint256"
        }
      ],
      "payable": false,
      "stateMutability": "view",
      "type": "function"
    },
    {
      "constant": true,
      "inputs": [
        {
          "internalType": "address payable",
          "name": "_companyWallet",
          "type": "address"
        }
      ],
      "name": "carrierExist",
      "outputs": [
        {
          "internalType": "bool",
          "name": "exist",
          "type": "bool"
        },
        {
          "internalType": "uint256",
          "name": "carrierId",
          "type": "uint256"
        }
      ],
      "payable": false,
      "stateMutability": "view",
      "type": "function"
    },
    {
      "constant": true,
      "inputs": [
        {
          "internalType": "address",
          "name": "_companyWallet",
          "type": "address"
        }
      ],
      "name": "getCarrierData",
      "outputs": [
        {
          "internalType": "bool",
          "name": "exist",
          "type": "bool"
        },
        {
          "internalType": "uint256",
          "name": "id",
          "type": "uint256"
        },
        {
          "internalType": "bytes32",
          "name": "company",
          "type": "bytes32"
        },
        {
          "internalType": "bytes32",
          "name": "web",
          "type": "bytes32"
        }
      ],
      "payable": false,
      "stateMutability": "view",
      "type": "function"
    },
    {
      "constant": true,
      "inputs": [
        {
          "internalType": "uint256",
          "name": "_carrierId",
          "type": "uint256"
        }
      ],
      "name": "getCarrierAddress",
      "outputs": [
        {
          "internalType": "address payable",
          "name": "carrier",
          "type": "address"
        }
      ],
      "payable": false,
      "stateMutability": "view",
      "type": "function"
    },
    {
      "constant": true,
      "inputs": [
        {
          "internalType": "address",
          "name": "_companyWallet",
          "type": "address"
        }
      ],
      "name": "testCarrier",
      "outputs": [
        {
          "internalType": "bool",
          "name": "banned",
          "type": "bool"
        },
        {
          "internalType": "string",
          "name": "errorText",
          "type": "string"
        },
        {
          "internalType": "uint256",
          "name": "carrierId",
          "type": "uint256"
        }
      ],
      "payable": false,
      "stateMutability": "view",
      "type": "function"
    },
    {
      "constant": false,
      "inputs": [
        {
          "internalType": "bytes32",
          "name": "_company",
          "type": "bytes32"
        },
        {
          "internalType": "bytes32",
          "name": "_web",
          "type": "bytes32"
        },
        {
          "internalType": "address payable",
          "name": "_companyWallet",
          "type": "address"
        }
      ],
      "name": "addCarrier",
      "outputs": [],
      "payable": false,
      "stateMutability": "nonpayable",
      "type": "function"
    },
    {
      "constant": false,
      "inputs": [
        {
          "internalType": "address",
          "name": "_companyWallet",
          "type": "address"
        },
        {
          "internalType": "bool",
          "name": "_ban",
          "type": "bool"
        }
      ],
      "name": "setBanCarrier",
      "outputs": [],
      "payable": false,
      "stateMutability": "nonpayable",
      "type": "function"
    },
    {
      "constant": false,
      "inputs": [
        {
          "internalType": "uint256",
          "name": "_carrierId",
          "type": "uint256"
        },
        {
          "internalType": "address",
          "name": "_tripAddress",
          "type": "address"
        }
      ],
      "name": "addTrip",
      "outputs": [],
      "payable": false,
      "stateMutability": "nonpayable",
      "type": "function"
    }
  ],
  "bytecode": "0x608060405234801561001057600080fd5b506040516116763803806116768339818101604052602081101561003357600080fd5b810190808051906020019092919050505080600360006101000a81548173ffffffffffffffffffffffffffffffffffffffff021916908373ffffffffffffffffffffffffffffffffffffffff160217905550506115e1806100956000396000f3fe608060405234801561001057600080fd5b50600436106100cf5760003560e01c80637f2f3fc51161008c578063c813f4ab11610066578063c813f4ab14610451578063e1c7392a146104a9578063f5d78650146104b3578063fd99360f14610545576100cf565b80637f2f3fc5146102bc578063ae4d72e01461038b578063bbc064ab146103f9576100cf565b80630278de23146100d45780635ca4c1031461012457806369a8a660146101955780636d98dbbd146101ed5780636fe58b751461025057806371f925141461026e575b600080fd5b610122600480360360408110156100ea57600080fd5b81019080803573ffffffffffffffffffffffffffffffffffffffff16906020019092919080351515906020019092919050505061057d565b005b6101666004803603602081101561013a57600080fd5b81019080803573ffffffffffffffffffffffffffffffffffffffff16906020019092919050505061070a565b604051808515151515815260200184815260200183815260200182815260200194505050505060405180910390f35b6101d7600480360360208110156101ab57600080fd5b81019080803573ffffffffffffffffffffffffffffffffffffffff16906020019092919050505061083c565b6040518082815260200191505060405180910390f35b61022f6004803603602081101561020357600080fd5b81019080803573ffffffffffffffffffffffffffffffffffffffff169060200190929190505050610938565b60405180831515151581526020018281526020019250505060405180910390f35b6102586109f7565b6040518082815260200191505060405180910390f35b6102ba6004803603604081101561028457600080fd5b8101908080359060200190929190803573ffffffffffffffffffffffffffffffffffffffff169060200190929190505050610a03565b005b6102fe600480360360208110156102d257600080fd5b81019080803573ffffffffffffffffffffffffffffffffffffffff169060200190929190505050610b2f565b604051808415151515815260200180602001838152602001828103825284818151815260200191508051906020019080838360005b8381101561034e578082015181840152602081019050610333565b50505050905090810190601f16801561037b5780820380516001836020036101000a031916815260200191505b5094505050505060405180910390f35b6103b7600480360360208110156103a157600080fd5b8101908080359060200190929190505050610cda565b604051808273ffffffffffffffffffffffffffffffffffffffff1673ffffffffffffffffffffffffffffffffffffffff16815260200191505060405180910390f35b61044f6004803603606081101561040f57600080fd5b810190808035906020019092919080359060200190929190803573ffffffffffffffffffffffffffffffffffffffff169060200190929190505050610d9b565b005b6104936004803603602081101561046757600080fd5b81019080803573ffffffffffffffffffffffffffffffffffffffff1690602001909291905050506110a6565b6040518082815260200191505060405180910390f35b6104b16110be565b005b6104df600480360360208110156104c957600080fd5b81019080803590602001909291905050506111c5565b604051808673ffffffffffffffffffffffffffffffffffffffff1673ffffffffffffffffffffffffffffffffffffffff16815260200185815260200184815260200183151515158152602001821515151581526020019550505050505060405180910390f35b61057b6004803603604081101561055b57600080fd5b810190808035906020019092919080359060200190929190505050611242565b005b600360009054906101000a900473ffffffffffffffffffffffffffffffffffffffff1673ffffffffffffffffffffffffffffffffffffffff163373ffffffffffffffffffffffffffffffffffffffff1614610623576040517f08c379a000000000000000000000000000000000000000000000000000000000815260040180806020018281038252603081526020018061157d6030913960400191505060405180910390fd5b600061062e8361083c565b90506000818154811061063d57fe5b906000526020600020906006020160050160009054906101000a900460ff166106ce576040517f08c379a00000000000000000000000000000000000000000000000000000000081526004018080602001828103825260118152602001807f43617272696572206e6f7420657869737400000000000000000000000000000081525060200191505060405180910390fd5b8115600082815481106106dd57fe5b906000526020600020906006020160030160006101000a81548160ff021916908315150217905550505050565b6000806000806000600160008773ffffffffffffffffffffffffffffffffffffffff1673ffffffffffffffffffffffffffffffffffffffff1681526020019081526020016000205490506000805490508114806107d157508573ffffffffffffffffffffffffffffffffffffffff166000828154811061078657fe5b906000526020600020906006020160000160009054906101000a900473ffffffffffffffffffffffffffffffffffffffff1673ffffffffffffffffffffffffffffffffffffffff1614155b156107ea57600081600080945094509450945050610835565b600181600083815481106107fa57fe5b9060005260206000209060060201600101546000848154811061081957fe5b9060005260206000209060060201600201549450945094509450505b9193509193565b600080600160008473ffffffffffffffffffffffffffffffffffffffff1673ffffffffffffffffffffffffffffffffffffffff168152602001908152602001600020549050600080549050811080156108bd57506000818154811061089d57fe5b906000526020600020906006020160050160009054906101000a900460ff165b61092f576040517f08c379a00000000000000000000000000000000000000000000000000000000081526004018080602001828103825260118152602001807f43617272696572206e6f7420657869737400000000000000000000000000000081525060200191505060405180910390fd5b80915050919050565b6000806000600160008573ffffffffffffffffffffffffffffffffffffffff1673ffffffffffffffffffffffffffffffffffffffff1681526020019081526020016000205490508373ffffffffffffffffffffffffffffffffffffffff16600082815481106109a357fe5b906000526020600020906006020160000160009054906101000a900473ffffffffffffffffffffffffffffffffffffffff1673ffffffffffffffffffffffffffffffffffffffff1614819250925050915091565b60008080549050905090565b600260009054906101000a900473ffffffffffffffffffffffffffffffffffffffff1673ffffffffffffffffffffffffffffffffffffffff163373ffffffffffffffffffffffffffffffffffffffff1614610aa9576040517f08c379a000000000000000000000000000000000000000000000000000000000815260040180806020018281038252603081526020018061157d6030913960400191505060405180910390fd5b60008281548110610ab657fe5b90600052602060002090600602016004018190806001815401808255809150509060018203906000526020600020016000909192909190916101000a81548173ffffffffffffffffffffffffffffffffffffffff021916908373ffffffffffffffffffffffffffffffffffffffff160217905550505050565b60006060600080600160008673ffffffffffffffffffffffffffffffffffffffff1673ffffffffffffffffffffffffffffffffffffffff168152602001908152602001600020549050600080549050811480610bf557508473ffffffffffffffffffffffffffffffffffffffff1660008281548110610baa57fe5b906000526020600020906006020160000160009054906101000a900473ffffffffffffffffffffffffffffffffffffffff1673ffffffffffffffffffffffffffffffffffffffff1614155b15610c40576001816040518060400160405280601781526020017f596f7520617265206e6f7420696e2063617272696572730000000000000000008152509093509350935050610cd3565b60008181548110610c4d57fe5b906000526020600020906006020160030160009054906101000a900460ff1615610c9157600081604051806020016040528060008152509093509350935050610cd3565b6001816040518060400160405280600e81526020017f596f75206172652062616e6e656400000000000000000000000000000000000081525090935093509350505b9193909250565b600080805490508210610d55576040517f08c379a00000000000000000000000000000000000000000000000000000000081526004018080602001828103825260108152602001807f57726f6e6720636172726965722049440000000000000000000000000000000081525060200191505060405180910390fd5b60008281548110610d6257fe5b906000526020600020906006020160000160009054906101000a900473ffffffffffffffffffffffffffffffffffffffff169050919050565b600360009054906101000a900473ffffffffffffffffffffffffffffffffffffffff1673ffffffffffffffffffffffffffffffffffffffff163373ffffffffffffffffffffffffffffffffffffffff1614610e41576040517f08c379a000000000000000000000000000000000000000000000000000000000815260040180806020018281038252603081526020018061157d6030913960400191505060405180910390fd5b6060600260009054906101000a900473ffffffffffffffffffffffffffffffffffffffff1673ffffffffffffffffffffffffffffffffffffffff1663806523ba60018487876000805490506040518663ffffffff1660e01b815260040180861515151581526020018573ffffffffffffffffffffffffffffffffffffffff1673ffffffffffffffffffffffffffffffffffffffff16815260200184815260200183815260200182815260200195505050505050600060405180830381600087803b158015610f0e57600080fd5b505af1158015610f22573d6000803e3d6000fd5b50505050600080549050600160008473ffffffffffffffffffffffffffffffffffffffff1673ffffffffffffffffffffffffffffffffffffffff1681526020019081526020016000208190555060006040518060c001604052808473ffffffffffffffffffffffffffffffffffffffff168152602001868152602001858152602001600115158152602001838152602001600115158152509080600181540180825580915050906001820390600052602060002090600602016000909192909190915060008201518160000160006101000a81548173ffffffffffffffffffffffffffffffffffffffff021916908373ffffffffffffffffffffffffffffffffffffffff160217905550602082015181600101556040820151816002015560608201518160030160006101000a81548160ff021916908315150217905550608082015181600401908051906020019061107c9291906114af565b5060a08201518160050160006101000a81548160ff02191690831515021790555050505050505050565b60016020528060005260406000206000915090505481565b600073ffffffffffffffffffffffffffffffffffffffff16600260009054906101000a900473ffffffffffffffffffffffffffffffffffffffff1673ffffffffffffffffffffffffffffffffffffffff1614611182576040517f08c379a000000000000000000000000000000000000000000000000000000000815260040180806020018281038252601f8152602001807f436f6e747261637420697320616c726561647920696e697469616c697a65640081525060200191505060405180910390fd5b33600260006101000a81548173ffffffffffffffffffffffffffffffffffffffff021916908373ffffffffffffffffffffffffffffffffffffffff160217905550565b600081815481106111d257fe5b90600052602060002090600602016000915090508060000160009054906101000a900473ffffffffffffffffffffffffffffffffffffffff16908060010154908060020154908060030160009054906101000a900460ff16908060050160009054906101000a900460ff16905085565b6000600160003373ffffffffffffffffffffffffffffffffffffffff1673ffffffffffffffffffffffffffffffffffffffff1681526020019081526020016000205490506000818154811061129357fe5b906000526020600020906006020160050160009054906101000a900460ff16611324576040517f08c379a00000000000000000000000000000000000000000000000000000000081526004018080602001828103825260118152602001807f43617272696572206e6f7420657869737400000000000000000000000000000081525060200191505060405180910390fd5b6000801b831461135657826000828154811061133c57fe5b906000526020600020906006020160010181905550611378565b6000818154811061136357fe5b90600052602060002090600602016001015492505b6000801b82146113aa57816000828154811061139057fe5b9060005260206000209060060201600201819055506113cc565b600081815481106113b757fe5b90600052602060002090600602016002015491505b600260009054906101000a900473ffffffffffffffffffffffffffffffffffffffff1673ffffffffffffffffffffffffffffffffffffffff1663806523ba6000338686866040518663ffffffff1660e01b815260040180861515151581526020018573ffffffffffffffffffffffffffffffffffffffff1673ffffffffffffffffffffffffffffffffffffffff16815260200184815260200183815260200182815260200195505050505050600060405180830381600087803b15801561149257600080fd5b505af11580156114a6573d6000803e3d6000fd5b50505050505050565b828054828255906000526020600020908101928215611528579160200282015b828111156115275782518260006101000a81548173ffffffffffffffffffffffffffffffffffffffff021916908373ffffffffffffffffffffffffffffffffffffffff160217905550916020019190600101906114cf565b5b5090506115359190611539565b5090565b61157991905b8082111561157557600081816101000a81549073ffffffffffffffffffffffffffffffffffffffff02191690555060010161153f565b5090565b9056fe4f6e6c7920636f6e747261637420566f74696e67436172726965722063616e2063616c6c2074686973206d6574686f64a265627a7a723158208ac5da06509d8be6b15a849b36cd078902c2a1bbe344dc46ccf477517b5fa25b64736f6c63430005100032",
  "source": "pragma solidity ^0.5.1;\n//pragma experimental ABIEncoderV2;\n\nimport \"./Transport.sol\";\n//import \"./VotingCarrier.sol\";\nimport \"./CarriersInterface.sol\";\n\ncontract Carriers is CarriersInterface{\n\n\tstruct Carrier {\n        address payable companyWallet;\n        bytes32 company;\n        bytes32 web;\n        bool enabled;\n        address[] trips;\n        bool exist; \n    }\n\n    Carrier[] public carriers;\n    mapping(address => uint) public carriersId;\n\tTransport transport;\n\taddress votingCarrierAddress;\n\n\tconstructor(address _votingCarrierAddress) public {\n        votingCarrierAddress = _votingCarrierAddress;\n    }\n\n    function init() public {\n        require(address(transport) == address(0), \"Contract is already initialized\");\n        transport = Transport(msg.sender); \n    }\n\n    function updateCarrier(bytes32 _company, bytes32 _web) public {\n        uint index = carriersId[msg.sender];\n        require(carriers[index].exist , \"Carrier not exist\");\n        if(_company != 0x00)\n            carriers[index].company = _company;\n        else _company = carriers[index].company;\n        if(_web != 0x00)\n            carriers[index].web = _web;\n        else _web = carriers[index].web;\n\n        transport.emitCarrier(false, msg.sender, _company, _web, index);\n    }\n\n    function carrierLength() public view returns(uint length){\n        return carriers.length;    \n    }\n\n    function getCarrierId(address _companyWallet) public view returns(uint carrierId){\n        uint _carrierId = carriersId[_companyWallet];\n        require(_carrierId < carriers.length && carriers[_carrierId].exist, \"Carrier not exist\");\n        return _carrierId;\n    }\n\n    function carrierExist(address payable _companyWallet) public view returns(bool exist, uint carrierId) {\n        uint id = carriersId[_companyWallet];\n        return (carriers[id].companyWallet == _companyWallet, id);\n    }\n    \n    function getCarrierData(address _companyWallet) public view returns(bool exist, uint id, bytes32 company, bytes32 web){\n        uint _id = carriersId[_companyWallet];\n        if(_id == carriers.length || carriers[_id].companyWallet != _companyWallet) \n            return (false, _id, \"\", \"\");\n        else\n            return (true, _id, carriers[_id].company, carriers[_id].web);\n    }\n\n    function getCarrierAddress(uint _carrierId) public view returns(address payable carrier){\n        require(_carrierId < carriers.length, \"Wrong carrier ID\");\n        return carriers[_carrierId].companyWallet;\n    }\n\n    function testCarrier(address _companyWallet) public view returns(bool banned, string memory errorText, uint carrierId) {\n        uint _carrierId = carriersId[_companyWallet];\n        if(_carrierId == carriers.length || carriers[_carrierId].companyWallet != _companyWallet)\n            return(true, \"You are not in carriers\", _carrierId);\n        else if(carriers[_carrierId].enabled)\n            return(false, \"\", _carrierId);\n        else\n            return(true, \"You are banned\", _carrierId);\n    }\n\n    function addCarrier( bytes32 _company, bytes32 _web, address payable _companyWallet ) public {\n        require(msg.sender == votingCarrierAddress, \"Only contract VotingCarrier can call this method\");\n        address[] memory _trips; \n        transport.emitCarrier(true, _companyWallet, _company, _web, carriers.length);\n  \n        carriersId[_companyWallet] = carriers.length;\n        carriers.push(Carrier(_companyWallet, _company, _web, true, _trips, true));\n    }\n\n    function setBanCarrier(address _companyWallet, bool _ban) public{\n        require(msg.sender == votingCarrierAddress, \"Only contract VotingCarrier can call this method\");\n        uint _carrierId = getCarrierId(_companyWallet);\n        require(carriers[_carrierId].exist, \"Carrier not exist\");\n        carriers[_carrierId].enabled = !_ban;\n    }\n\n\n    function addTrip(uint _carrierId, address _tripAddress) public{\n        require(msg.sender == address(transport), \"Only contract VotingCarrier can call this method\");\n    \tcarriers[_carrierId].trips.push(_tripAddress);\n    }\n \n}",
  "sourcePath": "/home/martin/eth-contract/transport-eth-contracts/contracts/Carriers.sol",
  "compiler": {
    "name": "solc",
    "version": "0.5.16+commit.9c3226ce.Emscripten.clang"
  },
  "schemaVersion": "3.1.0",
  "updatedAt": "2020-04-29T23:43:01.040Z",
  "devdoc": {
    "methods": {}
  },
  "userdoc": {
    "methods": {}
  }
}