{
  "contractName": "ERC20",
  "abi": [
    {
      "anonymous": false,
      "inputs": [
        {
          "indexed": true,
          "internalType": "address",
          "name": "_owner",
          "type": "address"
        },
        {
          "indexed": true,
          "internalType": "address",
          "name": "_spender",
          "type": "address"
        },
        {
          "indexed": false,
          "internalType": "uint256",
          "name": "value",
          "type": "uint256"
        }
      ],
      "name": "Approval",
      "type": "event"
    },
    {
      "anonymous": false,
      "inputs": [
        {
          "indexed": true,
          "internalType": "address",
          "name": "_from",
          "type": "address"
        },
        {
          "indexed": true,
          "internalType": "address",
          "name": "_to",
          "type": "address"
        },
        {
          "indexed": false,
          "internalType": "uint256",
          "name": "value",
          "type": "uint256"
        }
      ],
      "name": "Transfer",
      "type": "event"
    },
    {
      "constant": true,
      "inputs": [
        {
          "internalType": "address",
          "name": "",
          "type": "address"
        },
        {
          "internalType": "address",
          "name": "",
          "type": "address"
        }
      ],
      "name": "allowed",
      "outputs": [
        {
          "internalType": "uint256",
          "name": "",
          "type": "uint256"
        }
      ],
      "payable": false,
      "stateMutability": "view",
      "type": "function"
    },
    {
      "constant": true,
      "inputs": [
        {
          "internalType": "address",
          "name": "",
          "type": "address"
        }
      ],
      "name": "balances",
      "outputs": [
        {
          "internalType": "uint256",
          "name": "",
          "type": "uint256"
        }
      ],
      "payable": false,
      "stateMutability": "view",
      "type": "function"
    },
    {
      "constant": true,
      "inputs": [],
      "name": "totalSupply",
      "outputs": [
        {
          "internalType": "uint256",
          "name": "",
          "type": "uint256"
        }
      ],
      "payable": false,
      "stateMutability": "view",
      "type": "function"
    },
    {
      "constant": false,
      "inputs": [
        {
          "internalType": "address",
          "name": "_to",
          "type": "address"
        },
        {
          "internalType": "uint256",
          "name": "_value",
          "type": "uint256"
        }
      ],
      "name": "transfer",
      "outputs": [],
      "payable": false,
      "stateMutability": "nonpayable",
      "type": "function"
    },
    {
      "constant": false,
      "inputs": [
        {
          "internalType": "address",
          "name": "_from",
          "type": "address"
        },
        {
          "internalType": "address",
          "name": "_to",
          "type": "address"
        },
        {
          "internalType": "uint256",
          "name": "_value",
          "type": "uint256"
        }
      ],
      "name": "transferFrom",
      "outputs": [],
      "payable": false,
      "stateMutability": "nonpayable",
      "type": "function"
    },
    {
      "constant": true,
      "inputs": [
        {
          "internalType": "address",
          "name": "_owner",
          "type": "address"
        }
      ],
      "name": "balanceOf",
      "outputs": [
        {
          "internalType": "uint256",
          "name": "balance",
          "type": "uint256"
        }
      ],
      "payable": false,
      "stateMutability": "view",
      "type": "function"
    },
    {
      "constant": false,
      "inputs": [
        {
          "internalType": "address",
          "name": "_spender",
          "type": "address"
        },
        {
          "internalType": "uint256",
          "name": "_value",
          "type": "uint256"
        }
      ],
      "name": "approve",
      "outputs": [],
      "payable": false,
      "stateMutability": "nonpayable",
      "type": "function"
    },
    {
      "constant": true,
      "inputs": [
        {
          "internalType": "address",
          "name": "_owner",
          "type": "address"
        },
        {
          "internalType": "address",
          "name": "_spender",
          "type": "address"
        }
      ],
      "name": "allowance",
      "outputs": [
        {
          "internalType": "uint256",
          "name": "remaining",
          "type": "uint256"
        }
      ],
      "payable": false,
      "stateMutability": "view",
      "type": "function"
    }
  ],
  "bytecode": "0x608060405234801561001057600080fd5b50610a82806100206000396000f3fe608060405234801561001057600080fd5b50600436106100885760003560e01c80635c6581651161005b5780635c658165146101bf57806370a0823114610237578063a9059cbb1461028f578063dd62ed3e146102dd57610088565b8063095ea7b31461008d57806318160ddd146100db57806323b872dd146100f957806327e235e314610167575b600080fd5b6100d9600480360360408110156100a357600080fd5b81019080803573ffffffffffffffffffffffffffffffffffffffff16906020019092919080359060200190929190505050610355565b005b6100e36104ce565b6040518082815260200191505060405180910390f35b6101656004803603606081101561010f57600080fd5b81019080803573ffffffffffffffffffffffffffffffffffffffff169060200190929190803573ffffffffffffffffffffffffffffffffffffffff169060200190929190803590602001909291905050506104d4565b005b6101a96004803603602081101561017d57600080fd5b81019080803573ffffffffffffffffffffffffffffffffffffffff16906020019092919050505061077b565b6040518082815260200191505060405180910390f35b610221600480360360408110156101d557600080fd5b81019080803573ffffffffffffffffffffffffffffffffffffffff169060200190929190803573ffffffffffffffffffffffffffffffffffffffff169060200190929190505050610793565b6040518082815260200191505060405180910390f35b6102796004803603602081101561024d57600080fd5b81019080803573ffffffffffffffffffffffffffffffffffffffff1690602001909291905050506107b8565b6040518082815260200191505060405180910390f35b6102db600480360360408110156102a557600080fd5b81019080803573ffffffffffffffffffffffffffffffffffffffff16906020019092919080359060200190929190505050610801565b005b61033f600480360360408110156102f357600080fd5b81019080803573ffffffffffffffffffffffffffffffffffffffff169060200190929190803573ffffffffffffffffffffffffffffffffffffffff169060200190929190505050610994565b6040518082815260200191505060405180910390f35b60008114806103df575060008060003373ffffffffffffffffffffffffffffffffffffffff1673ffffffffffffffffffffffffffffffffffffffff16815260200190815260200160002060008473ffffffffffffffffffffffffffffffffffffffff1673ffffffffffffffffffffffffffffffffffffffff16815260200190815260200160002054145b6103e557fe5b806000803373ffffffffffffffffffffffffffffffffffffffff1673ffffffffffffffffffffffffffffffffffffffff16815260200190815260200160002060008473ffffffffffffffffffffffffffffffffffffffff1673ffffffffffffffffffffffffffffffffffffffff168152602001908152602001600020819055508173ffffffffffffffffffffffffffffffffffffffff163373ffffffffffffffffffffffffffffffffffffffff167f8c5be1e5ebec7d5bd14f71427d1e84f3dd0314c0f7b2291e5b200ac8c7c3b925836040518082815260200191505060405180910390a35050565b60025481565b60008060008573ffffffffffffffffffffffffffffffffffffffff1673ffffffffffffffffffffffffffffffffffffffff16815260200190815260200160002060003373ffffffffffffffffffffffffffffffffffffffff1673ffffffffffffffffffffffffffffffffffffffff1681526020019081526020016000205490506105a682600160008673ffffffffffffffffffffffffffffffffffffffff1673ffffffffffffffffffffffffffffffffffffffff16815260200190815260200160002054610a1a90919063ffffffff16565b600160008573ffffffffffffffffffffffffffffffffffffffff1673ffffffffffffffffffffffffffffffffffffffff1681526020019081526020016000208190555061063b82600160008773ffffffffffffffffffffffffffffffffffffffff1673ffffffffffffffffffffffffffffffffffffffff16815260200190815260200160002054610a3690919063ffffffff16565b600160008673ffffffffffffffffffffffffffffffffffffffff1673ffffffffffffffffffffffffffffffffffffffff168152602001908152602001600020819055506106918282610a3690919063ffffffff16565b6000808673ffffffffffffffffffffffffffffffffffffffff1673ffffffffffffffffffffffffffffffffffffffff16815260200190815260200160002060003373ffffffffffffffffffffffffffffffffffffffff1673ffffffffffffffffffffffffffffffffffffffff168152602001908152602001600020819055508273ffffffffffffffffffffffffffffffffffffffff168473ffffffffffffffffffffffffffffffffffffffff167fddf252ad1be2c89b69c2b068fc378daa952ba7f163c4a11628f55a4df523b3ef846040518082815260200191505060405180910390a350505050565b60016020528060005260406000206000915090505481565b6000602052816000526040600020602052806000526040600020600091509150505481565b6000600160008373ffffffffffffffffffffffffffffffffffffffff1673ffffffffffffffffffffffffffffffffffffffff168152602001908152602001600020549050919050565b61085381600160003373ffffffffffffffffffffffffffffffffffffffff1673ffffffffffffffffffffffffffffffffffffffff16815260200190815260200160002054610a3690919063ffffffff16565b600160003373ffffffffffffffffffffffffffffffffffffffff1673ffffffffffffffffffffffffffffffffffffffff168152602001908152602001600020819055506108e881600160008573ffffffffffffffffffffffffffffffffffffffff1673ffffffffffffffffffffffffffffffffffffffff16815260200190815260200160002054610a1a90919063ffffffff16565b600160008473ffffffffffffffffffffffffffffffffffffffff1673ffffffffffffffffffffffffffffffffffffffff168152602001908152602001600020819055508173ffffffffffffffffffffffffffffffffffffffff163373ffffffffffffffffffffffffffffffffffffffff167fddf252ad1be2c89b69c2b068fc378daa952ba7f163c4a11628f55a4df523b3ef836040518082815260200191505060405180910390a35050565b60008060008473ffffffffffffffffffffffffffffffffffffffff1673ffffffffffffffffffffffffffffffffffffffff16815260200190815260200160002060008373ffffffffffffffffffffffffffffffffffffffff1673ffffffffffffffffffffffffffffffffffffffff16815260200190815260200160002054905092915050565b600080828401905083811015610a2c57fe5b8091505092915050565b600082821115610a4257fe5b81830390509291505056fea265627a7a7231582051037961acf323121cad733a5371b5b10a767cfd9ec6318a5ff3326aeee8a89064736f6c63430005100032",
  "source": "pragma solidity ^0.5.1;\n\nimport './SafeMath.sol';\n/**\n * @title Token\n * @dev Token with ERC20 standard\n */\ncontract ERC20 {\n  using SafeMath for uint256;\n\n  mapping (address => mapping (address => uint256)) public allowed;\n  mapping(address => uint256) public balances;\n  uint256 public totalSupply;\n\n  event Transfer(address indexed _from, address indexed _to, uint256 value);\n  event Approval(address indexed _owner, address indexed _spender, uint256 value);\n  \n  /**\n   * Token transfer function\n   * @dev transfer token for a specified address\n   * @param _to address to transfer to.\n   * @param _value amount to be transferred.\n   */\n  function transfer(address _to, uint256 _value) public {\n    //Safemath fnctions will throw if value is invalid\n    balances[msg.sender] = balances[msg.sender].sub(_value);\n    balances[_to] = balances[_to].add(_value);\n    emit Transfer(msg.sender, _to, _value);\n  }\n\n  /**\n   * Token transferFrom function\n   * @dev Transfer tokens from one address to another\n   * @param _from address to send tokens from\n   * @param _to address to transfer to\n   * @param _value amout of tokens to be transfered\n   */\n  function transferFrom(address _from, address _to, uint256 _value) public {\n    uint256 _allowance = allowed[_from][msg.sender];\n    // Safe math functions will throw if value invalid\n    balances[_to] = balances[_to].add(_value);\n    balances[_from] = balances[_from].sub(_value);\n    allowed[_from][msg.sender] = _allowance.sub(_value);\n    emit Transfer(_from, _to, _value);\n  }\n\n  /**\n   * Token balanceOf function \n   * @dev Gets the balance of the specified address.\n   * @param _owner address to get balance of.\n   * @return uint256 amount owned by the address.\n   */\n  function balanceOf(address _owner) public view returns (uint balance) {\n    return balances[_owner];\n  }\n\n  /**\n   * Token approve function\n   * @dev Aprove address to spend amount of tokens\n   * @param _spender address to spend the funds.\n   * @param _value amount of tokens to be spent.\n   */\n  function approve(address _spender, uint256 _value) public {\n    // To change the approve amount you first have to reduce the addresses`\n    // allowance to zero by calling `approve(_spender, 0)` if it is not\n    // already 0 to mitigate the race condition described here:\n    // @notice https://github.com/ethereum/EIPs/issues/20#issuecomment-263524729\n    assert((_value == 0) || (allowed[msg.sender][_spender] == 0));\n\n    allowed[msg.sender][_spender] = _value;\n    emit Approval(msg.sender, _spender, _value);\n  }\n\n  /**\n   * Token allowance method\n   * @dev Ckeck that owners tokens is allowed to send to spender\n   * @param _owner address The address which owns the funds.\n   * @param _spender address The address which will spend the funds.\n   * @return A uint256 specifing the amount of tokens still available for the spender.\n   */\n  function allowance(address _owner, address _spender) public view returns (uint256 remaining) {\n    return allowed[_owner][_spender];\n  }\n}",
  "sourcePath": "/home/martin/eth-contract/transport-eth-contracts/contracts/ERC20.sol",
  "compiler": {
    "name": "solc",
    "version": "0.5.16+commit.9c3226ce.Emscripten.clang"
  },
  "schemaVersion": "3.1.0",
  "updatedAt": "2020-04-29T23:43:01.044Z",
  "devdoc": {
    "details": "Token with ERC20 standard",
    "methods": {
      "allowance(address,address)": {
        "details": "Ckeck that owners tokens is allowed to send to spender",
        "params": {
          "_owner": "address The address which owns the funds.",
          "_spender": "address The address which will spend the funds."
        },
        "return": "A uint256 specifing the amount of tokens still available for the spender."
      },
      "approve(address,uint256)": {
        "details": "Aprove address to spend amount of tokens",
        "params": {
          "_spender": "address to spend the funds.",
          "_value": "amount of tokens to be spent."
        }
      },
      "balanceOf(address)": {
        "details": "Gets the balance of the specified address.",
        "params": {
          "_owner": "address to get balance of."
        },
        "return": "uint256 amount owned by the address."
      },
      "transfer(address,uint256)": {
        "details": "transfer token for a specified address",
        "params": {
          "_to": "address to transfer to.",
          "_value": "amount to be transferred."
        }
      },
      "transferFrom(address,address,uint256)": {
        "details": "Transfer tokens from one address to another",
        "params": {
          "_from": "address to send tokens from",
          "_to": "address to transfer to",
          "_value": "amout of tokens to be transfered"
        }
      }
    },
    "title": "Token"
  },
  "userdoc": {
    "methods": {
      "allowance(address,address)": {
        "notice": "Token allowance method"
      },
      "approve(address,uint256)": {
        "notice": "Token approve function"
      },
      "balanceOf(address)": {
        "notice": "Token balanceOf function "
      },
      "transfer(address,uint256)": {
        "notice": "Token transfer function"
      },
      "transferFrom(address,address,uint256)": {
        "notice": "Token transferFrom function"
      }
    }
  }
}