{
  "contractName": "ERC223Token",
  "abi": [
    {
      "anonymous": false,
      "inputs": [
        {
          "indexed": true,
          "internalType": "address",
          "name": "_owner",
          "type": "address"
        },
        {
          "indexed": true,
          "internalType": "address",
          "name": "_spender",
          "type": "address"
        },
        {
          "indexed": false,
          "internalType": "uint256",
          "name": "value",
          "type": "uint256"
        }
      ],
      "name": "Approval",
      "type": "event"
    },
    {
      "anonymous": false,
      "inputs": [
        {
          "indexed": true,
          "internalType": "address",
          "name": "from",
          "type": "address"
        },
        {
          "indexed": true,
          "internalType": "address",
          "name": "to",
          "type": "address"
        },
        {
          "indexed": false,
          "internalType": "uint256",
          "name": "value",
          "type": "uint256"
        },
        {
          "indexed": false,
          "internalType": "bytes",
          "name": "data",
          "type": "bytes"
        }
      ],
      "name": "Transfer",
      "type": "event"
    },
    {
      "anonymous": false,
      "inputs": [
        {
          "indexed": true,
          "internalType": "address",
          "name": "_from",
          "type": "address"
        },
        {
          "indexed": true,
          "internalType": "address",
          "name": "_to",
          "type": "address"
        },
        {
          "indexed": false,
          "internalType": "uint256",
          "name": "value",
          "type": "uint256"
        }
      ],
      "name": "Transfer",
      "type": "event"
    },
    {
      "constant": true,
      "inputs": [
        {
          "internalType": "address",
          "name": "_owner",
          "type": "address"
        },
        {
          "internalType": "address",
          "name": "_spender",
          "type": "address"
        }
      ],
      "name": "allowance",
      "outputs": [
        {
          "internalType": "uint256",
          "name": "remaining",
          "type": "uint256"
        }
      ],
      "payable": false,
      "stateMutability": "view",
      "type": "function"
    },
    {
      "constant": true,
      "inputs": [
        {
          "internalType": "address",
          "name": "",
          "type": "address"
        },
        {
          "internalType": "address",
          "name": "",
          "type": "address"
        }
      ],
      "name": "allowed",
      "outputs": [
        {
          "internalType": "uint256",
          "name": "",
          "type": "uint256"
        }
      ],
      "payable": false,
      "stateMutability": "view",
      "type": "function"
    },
    {
      "constant": false,
      "inputs": [
        {
          "internalType": "address",
          "name": "_spender",
          "type": "address"
        },
        {
          "internalType": "uint256",
          "name": "_value",
          "type": "uint256"
        }
      ],
      "name": "approve",
      "outputs": [],
      "payable": false,
      "stateMutability": "nonpayable",
      "type": "function"
    },
    {
      "constant": true,
      "inputs": [
        {
          "internalType": "address",
          "name": "",
          "type": "address"
        }
      ],
      "name": "balances",
      "outputs": [
        {
          "internalType": "uint256",
          "name": "",
          "type": "uint256"
        }
      ],
      "payable": false,
      "stateMutability": "view",
      "type": "function"
    },
    {
      "constant": true,
      "inputs": [],
      "name": "totalSupply",
      "outputs": [
        {
          "internalType": "uint256",
          "name": "",
          "type": "uint256"
        }
      ],
      "payable": false,
      "stateMutability": "view",
      "type": "function"
    },
    {
      "constant": false,
      "inputs": [
        {
          "internalType": "address",
          "name": "_from",
          "type": "address"
        },
        {
          "internalType": "address",
          "name": "_to",
          "type": "address"
        },
        {
          "internalType": "uint256",
          "name": "_value",
          "type": "uint256"
        }
      ],
      "name": "transferFrom",
      "outputs": [],
      "payable": false,
      "stateMutability": "nonpayable",
      "type": "function"
    },
    {
      "constant": false,
      "inputs": [
        {
          "internalType": "address",
          "name": "_to",
          "type": "address"
        },
        {
          "internalType": "uint256",
          "name": "_value",
          "type": "uint256"
        }
      ],
      "name": "transfer",
      "outputs": [],
      "payable": false,
      "stateMutability": "nonpayable",
      "type": "function"
    },
    {
      "constant": false,
      "inputs": [
        {
          "internalType": "address",
          "name": "_to",
          "type": "address"
        },
        {
          "internalType": "uint256",
          "name": "_value",
          "type": "uint256"
        },
        {
          "internalType": "bytes",
          "name": "_data",
          "type": "bytes"
        }
      ],
      "name": "transfer",
      "outputs": [],
      "payable": false,
      "stateMutability": "nonpayable",
      "type": "function"
    },
    {
      "constant": true,
      "inputs": [
        {
          "internalType": "address",
          "name": "_owner",
          "type": "address"
        }
      ],
      "name": "balanceOf",
      "outputs": [
        {
          "internalType": "uint256",
          "name": "balance",
          "type": "uint256"
        }
      ],
      "payable": false,
      "stateMutability": "view",
      "type": "function"
    }
  ],
  "bytecode": "0x608060405234801561001057600080fd5b50611029806100206000396000f3fe608060405234801561001057600080fd5b50600436106100935760003560e01c80635c658165116100665780635c658165146101ca57806370a0823114610242578063a9059cbb1461029a578063be45fd62146102e8578063dd62ed3e146103cd57610093565b8063095ea7b31461009857806318160ddd146100e657806323b872dd1461010457806327e235e314610172575b600080fd5b6100e4600480360360408110156100ae57600080fd5b81019080803573ffffffffffffffffffffffffffffffffffffffff16906020019092919080359060200190929190505050610445565b005b6100ee6105be565b6040518082815260200191505060405180910390f35b6101706004803603606081101561011a57600080fd5b81019080803573ffffffffffffffffffffffffffffffffffffffff169060200190929190803573ffffffffffffffffffffffffffffffffffffffff169060200190929190803590602001909291905050506105c4565b005b6101b46004803603602081101561018857600080fd5b81019080803573ffffffffffffffffffffffffffffffffffffffff16906020019092919050505061086b565b6040518082815260200191505060405180910390f35b61022c600480360360408110156101e057600080fd5b81019080803573ffffffffffffffffffffffffffffffffffffffff169060200190929190803573ffffffffffffffffffffffffffffffffffffffff169060200190929190505050610883565b6040518082815260200191505060405180910390f35b6102846004803603602081101561025857600080fd5b81019080803573ffffffffffffffffffffffffffffffffffffffff1690602001909291905050506108a8565b6040518082815260200191505060405180910390f35b6102e6600480360360408110156102b057600080fd5b81019080803573ffffffffffffffffffffffffffffffffffffffff169060200190929190803590602001909291905050506108f1565b005b6103cb600480360360608110156102fe57600080fd5b81019080803573ffffffffffffffffffffffffffffffffffffffff169060200190929190803590602001909291908035906020019064010000000081111561034557600080fd5b82018360208201111561035757600080fd5b8035906020019184600183028401116401000000008311171561037957600080fd5b91908080601f016020809104026020016040519081016040528093929190818152602001838380828437600081840152601f19601f820116905080830192505050505050509192919290505050610c17565b005b61042f600480360360408110156103e357600080fd5b81019080803573ffffffffffffffffffffffffffffffffffffffff169060200190929190803573ffffffffffffffffffffffffffffffffffffffff169060200190929190505050610f3b565b6040518082815260200191505060405180910390f35b60008114806104cf575060008060003373ffffffffffffffffffffffffffffffffffffffff1673ffffffffffffffffffffffffffffffffffffffff16815260200190815260200160002060008473ffffffffffffffffffffffffffffffffffffffff1673ffffffffffffffffffffffffffffffffffffffff16815260200190815260200160002054145b6104d557fe5b806000803373ffffffffffffffffffffffffffffffffffffffff1673ffffffffffffffffffffffffffffffffffffffff16815260200190815260200160002060008473ffffffffffffffffffffffffffffffffffffffff1673ffffffffffffffffffffffffffffffffffffffff168152602001908152602001600020819055508173ffffffffffffffffffffffffffffffffffffffff163373ffffffffffffffffffffffffffffffffffffffff167f8c5be1e5ebec7d5bd14f71427d1e84f3dd0314c0f7b2291e5b200ac8c7c3b925836040518082815260200191505060405180910390a35050565b60025481565b60008060008573ffffffffffffffffffffffffffffffffffffffff1673ffffffffffffffffffffffffffffffffffffffff16815260200190815260200160002060003373ffffffffffffffffffffffffffffffffffffffff1673ffffffffffffffffffffffffffffffffffffffff16815260200190815260200160002054905061069682600160008673ffffffffffffffffffffffffffffffffffffffff1673ffffffffffffffffffffffffffffffffffffffff16815260200190815260200160002054610fc190919063ffffffff16565b600160008573ffffffffffffffffffffffffffffffffffffffff1673ffffffffffffffffffffffffffffffffffffffff1681526020019081526020016000208190555061072b82600160008773ffffffffffffffffffffffffffffffffffffffff1673ffffffffffffffffffffffffffffffffffffffff16815260200190815260200160002054610fdd90919063ffffffff16565b600160008673ffffffffffffffffffffffffffffffffffffffff1673ffffffffffffffffffffffffffffffffffffffff168152602001908152602001600020819055506107818282610fdd90919063ffffffff16565b6000808673ffffffffffffffffffffffffffffffffffffffff1673ffffffffffffffffffffffffffffffffffffffff16815260200190815260200160002060003373ffffffffffffffffffffffffffffffffffffffff1673ffffffffffffffffffffffffffffffffffffffff168152602001908152602001600020819055508273ffffffffffffffffffffffffffffffffffffffff168473ffffffffffffffffffffffffffffffffffffffff167fddf252ad1be2c89b69c2b068fc378daa952ba7f163c4a11628f55a4df523b3ef846040518082815260200191505060405180910390a350505050565b60016020528060005260406000206000915090505481565b6000602052816000526040600020602052806000526040600020600091509150505481565b6000600360008373ffffffffffffffffffffffffffffffffffffffff1673ffffffffffffffffffffffffffffffffffffffff168152602001908152602001600020549050919050565b60006060833b915061094b83600360003373ffffffffffffffffffffffffffffffffffffffff1673ffffffffffffffffffffffffffffffffffffffff16815260200190815260200160002054610fdd90919063ffffffff16565b600360003373ffffffffffffffffffffffffffffffffffffffff1673ffffffffffffffffffffffffffffffffffffffff168152602001908152602001600020819055506109e083600360008773ffffffffffffffffffffffffffffffffffffffff1673ffffffffffffffffffffffffffffffffffffffff16815260200190815260200160002054610fc190919063ffffffff16565b600360008673ffffffffffffffffffffffffffffffffffffffff1673ffffffffffffffffffffffffffffffffffffffff168152602001908152602001600020819055506000821115610b3f5760008490508073ffffffffffffffffffffffffffffffffffffffff1663c0ee0b8a3386856040518463ffffffff1660e01b8152600401808473ffffffffffffffffffffffffffffffffffffffff1673ffffffffffffffffffffffffffffffffffffffff16815260200183815260200180602001828103825283818151815260200191508051906020019080838360005b83811015610ad7578082015181840152602081019050610abc565b50505050905090810190601f168015610b045780820380516001836020036101000a031916815260200191505b50945050505050600060405180830381600087803b158015610b2557600080fd5b505af1158015610b39573d6000803e3d6000fd5b50505050505b8373ffffffffffffffffffffffffffffffffffffffff163373ffffffffffffffffffffffffffffffffffffffff167fe19260aff97b920c7df27010903aeb9c8d2be5d310a2c67824cf3f15396e4c1685846040518083815260200180602001828103825283818151815260200191508051906020019080838360005b83811015610bd6578082015181840152602081019050610bbb565b50505050905090810190601f168015610c035780820380516001836020036101000a031916815260200191505b50935050505060405180910390a350505050565b6000833b9050610c6f83600360003373ffffffffffffffffffffffffffffffffffffffff1673ffffffffffffffffffffffffffffffffffffffff16815260200190815260200160002054610fdd90919063ffffffff16565b600360003373ffffffffffffffffffffffffffffffffffffffff1673ffffffffffffffffffffffffffffffffffffffff16815260200190815260200160002081905550610d0483600360008773ffffffffffffffffffffffffffffffffffffffff1673ffffffffffffffffffffffffffffffffffffffff16815260200190815260200160002054610fc190919063ffffffff16565b600360008673ffffffffffffffffffffffffffffffffffffffff1673ffffffffffffffffffffffffffffffffffffffff168152602001908152602001600020819055506000811115610e635760008490508073ffffffffffffffffffffffffffffffffffffffff1663c0ee0b8a3386866040518463ffffffff1660e01b8152600401808473ffffffffffffffffffffffffffffffffffffffff1673ffffffffffffffffffffffffffffffffffffffff16815260200183815260200180602001828103825283818151815260200191508051906020019080838360005b83811015610dfb578082015181840152602081019050610de0565b50505050905090810190601f168015610e285780820380516001836020036101000a031916815260200191505b50945050505050600060405180830381600087803b158015610e4957600080fd5b505af1158015610e5d573d6000803e3d6000fd5b50505050505b8373ffffffffffffffffffffffffffffffffffffffff163373ffffffffffffffffffffffffffffffffffffffff167fe19260aff97b920c7df27010903aeb9c8d2be5d310a2c67824cf3f15396e4c1685856040518083815260200180602001828103825283818151815260200191508051906020019080838360005b83811015610efa578082015181840152602081019050610edf565b50505050905090810190601f168015610f275780820380516001836020036101000a031916815260200191505b50935050505060405180910390a350505050565b60008060008473ffffffffffffffffffffffffffffffffffffffff1673ffffffffffffffffffffffffffffffffffffffff16815260200190815260200160002060008373ffffffffffffffffffffffffffffffffffffffff1673ffffffffffffffffffffffffffffffffffffffff16815260200190815260200160002054905092915050565b600080828401905083811015610fd357fe5b8091505092915050565b600082821115610fe957fe5b81830390509291505056fea265627a7a72315820dd2cab0aa314f812854d3889c801c6d615345b43a585641b10ff8f61f69e65e564736f6c63430005100032",
  "source": "pragma solidity ^0.5.1;\n\nimport './SafeMath.sol';\nimport './ERC20.sol';\nimport './ERC223_receiving_contract.sol';\n\n/**\n * @title Reference implementation of the ERC223 standard token.\n */\ncontract ERC223Token is ERC20{\n    using SafeMath for uint;\n    event Transfer(address indexed from, address indexed to, uint value, bytes data);\n    mapping(address => uint) balances; // List of user balances.\n    \n    /**\n     * @dev Transfer the specified amount of tokens to the specified address.\n     *      Invokes the `tokenFallback` function if the recipient is a contract.\n     *      The token transfer fails if the recipient is a contract\n     *      but does not implement the `tokenFallback` function\n     *      or the fallback function to receive funds.\n     *\n     * @param _to    Receiver address.\n     * @param _value Amount of tokens that will be transferred.\n     * @param _data  Transaction metadata.\n     */\n    function transfer(address _to, uint _value, bytes memory _data) public {\n        // Standard function transfer similar to ERC20 transfer with no _data .\n        // Added due to backwards compatibility reasons .\n        uint codeLength;\n\n        assembly {\n            // Retrieve the size of the code on target address, this needs assembly .\n            codeLength := extcodesize(_to)\n        }\n\n        balances[msg.sender] = balances[msg.sender].sub(_value);\n        balances[_to] = balances[_to].add(_value);\n        if(codeLength>0) {\n            ERC223ReceivingContract receiver = ERC223ReceivingContract(_to);\n            receiver.tokenFallback(msg.sender, _value, _data);\n        }\n        emit Transfer(msg.sender, _to, _value, _data);\n    }\n    \n    /**\n     * @dev Transfer the specified amount of tokens to the specified address.\n     *      This function works the same with the previous one\n     *      but doesn't contain `_data` param.\n     *      Added due to backwards compatibility reasons.\n     *\n     * @param _to    Receiver address.\n     * @param _value Amount of tokens that will be transferred.\n     */\n    function transfer(address _to, uint _value) public {\n        uint codeLength;\n        bytes memory empty;\n\n        assembly {\n            // Retrieve the size of the code on target address, this needs assembly .\n            codeLength := extcodesize(_to)\n        }\n\n        balances[msg.sender] = balances[msg.sender].sub(_value);\n        balances[_to] = balances[_to].add(_value);\n        if(codeLength>0) {\n            ERC223ReceivingContract receiver = ERC223ReceivingContract(_to);\n            receiver.tokenFallback(msg.sender, _value, empty);\n        }\n        emit Transfer(msg.sender, _to, _value, empty);\n    }\n\n    \n    /**\n     * @dev Returns balance of the `_owner`.\n     *\n     * @param _owner   The address whose balance will be returned.\n     * @return balance Balance of the `_owner`.\n     */\n    function balanceOf(address _owner) public view returns (uint balance) {\n        return balances[_owner];\n    }\n}",
  "sourcePath": "/home/martin/eth-contract/transport-eth-contracts/contracts/ERC223Token.sol",
  "compiler": {
    "name": "solc",
    "version": "0.5.16+commit.9c3226ce.Emscripten.clang"
  },
  "schemaVersion": "3.1.0",
  "updatedAt": "2020-04-29T23:43:01.046Z",
  "devdoc": {
    "methods": {
      "allowance(address,address)": {
        "details": "Ckeck that owners tokens is allowed to send to spender",
        "params": {
          "_owner": "address The address which owns the funds.",
          "_spender": "address The address which will spend the funds."
        },
        "return": "A uint256 specifing the amount of tokens still available for the spender."
      },
      "approve(address,uint256)": {
        "details": "Aprove address to spend amount of tokens",
        "params": {
          "_spender": "address to spend the funds.",
          "_value": "amount of tokens to be spent."
        }
      },
      "balanceOf(address)": {
        "details": "Returns balance of the `_owner`.",
        "params": {
          "_owner": "The address whose balance will be returned."
        },
        "return": "balance Balance of the `_owner`."
      },
      "transfer(address,uint256)": {
        "details": "Transfer the specified amount of tokens to the specified address.     This function works the same with the previous one     but doesn't contain `_data` param.     Added due to backwards compatibility reasons.",
        "params": {
          "_to": "Receiver address.",
          "_value": "Amount of tokens that will be transferred."
        }
      },
      "transfer(address,uint256,bytes)": {
        "details": "Transfer the specified amount of tokens to the specified address.     Invokes the `tokenFallback` function if the recipient is a contract.     The token transfer fails if the recipient is a contract     but does not implement the `tokenFallback` function     or the fallback function to receive funds.",
        "params": {
          "_data": "Transaction metadata.",
          "_to": "Receiver address.",
          "_value": "Amount of tokens that will be transferred."
        }
      },
      "transferFrom(address,address,uint256)": {
        "details": "Transfer tokens from one address to another",
        "params": {
          "_from": "address to send tokens from",
          "_to": "address to transfer to",
          "_value": "amout of tokens to be transfered"
        }
      }
    },
    "title": "Reference implementation of the ERC223 standard token."
  },
  "userdoc": {
    "methods": {
      "allowance(address,address)": {
        "notice": "Token allowance method"
      },
      "approve(address,uint256)": {
        "notice": "Token approve function"
      },
      "transferFrom(address,address,uint256)": {
        "notice": "Token transferFrom function"
      }
    }
  }
}