{
  "contractName": "FloteaICO",
  "abi": [
    {
      "inputs": [
        {
          "internalType": "address",
          "name": "_tokenAddr",
          "type": "address"
        },
        {
          "internalType": "address[]",
          "name": "_participates",
          "type": "address[]"
        },
        {
          "internalType": "bytes32[]",
          "name": "names",
          "type": "bytes32[]"
        }
      ],
      "payable": false,
      "stateMutability": "nonpayable",
      "type": "constructor"
    },
    {
      "anonymous": false,
      "inputs": [
        {
          "indexed": true,
          "internalType": "address",
          "name": "to",
          "type": "address"
        },
        {
          "indexed": false,
          "internalType": "uint256",
          "name": "value",
          "type": "uint256"
        }
      ],
      "name": "BoughtTokens",
      "type": "event"
    },
    {
      "anonymous": false,
      "inputs": [
        {
          "indexed": false,
          "internalType": "bytes32",
          "name": "description",
          "type": "bytes32"
        },
        {
          "indexed": false,
          "internalType": "bool",
          "name": "result",
          "type": "bool"
        },
        {
          "indexed": false,
          "internalType": "uint256",
          "name": "proposalIndex",
          "type": "uint256"
        }
      ],
      "name": "FinishVoting",
      "type": "event"
    },
    {
      "anonymous": false,
      "inputs": [
        {
          "indexed": false,
          "internalType": "bytes32",
          "name": "description",
          "type": "bytes32"
        },
        {
          "indexed": false,
          "internalType": "uint256",
          "name": "endTime",
          "type": "uint256"
        },
        {
          "indexed": false,
          "internalType": "enum VotingIco.ActionType",
          "name": "actionType",
          "type": "uint8"
        },
        {
          "indexed": false,
          "internalType": "address",
          "name": "actionAddress",
          "type": "address"
        },
        {
          "indexed": false,
          "internalType": "bytes32",
          "name": "name",
          "type": "bytes32"
        },
        {
          "indexed": false,
          "internalType": "uint256",
          "name": "amount",
          "type": "uint256"
        },
        {
          "indexed": false,
          "internalType": "uint256",
          "name": "proposalIndex",
          "type": "uint256"
        }
      ],
      "name": "ProposalCreated",
      "type": "event"
    },
    {
      "anonymous": false,
      "inputs": [
        {
          "indexed": false,
          "internalType": "bytes32",
          "name": "description",
          "type": "bytes32"
        },
        {
          "indexed": false,
          "internalType": "uint256",
          "name": "proposalIndex",
          "type": "uint256"
        },
        {
          "indexed": false,
          "internalType": "address",
          "name": "addr",
          "type": "address"
        },
        {
          "indexed": false,
          "internalType": "uint8",
          "name": "vote",
          "type": "uint8"
        }
      ],
      "name": "Vote",
      "type": "event"
    },
    {
      "payable": true,
      "stateMutability": "payable",
      "type": "fallback"
    },
    {
      "constant": true,
      "inputs": [
        {
          "internalType": "enum VotingIco.ActionType",
          "name": "_actionType",
          "type": "uint8"
        },
        {
          "internalType": "address payable",
          "name": "_actionAddress",
          "type": "address"
        },
        {
          "internalType": "address",
          "name": "_senderAddress",
          "type": "address"
        }
      ],
      "name": "beforeCreateProposal",
      "outputs": [
        {
          "internalType": "bool",
          "name": "",
          "type": "bool"
        },
        {
          "internalType": "string",
          "name": "",
          "type": "string"
        }
      ],
      "payable": false,
      "stateMutability": "view",
      "type": "function"
    },
    {
      "constant": true,
      "inputs": [
        {
          "internalType": "uint256",
          "name": "proposalIndex",
          "type": "uint256"
        },
        {
          "internalType": "address",
          "name": "senderAddress",
          "type": "address"
        }
      ],
      "name": "beforeFinishProposal",
      "outputs": [
        {
          "internalType": "bool",
          "name": "error",
          "type": "bool"
        },
        {
          "internalType": "string",
          "name": "message",
          "type": "string"
        },
        {
          "internalType": "uint256",
          "name": "votedYes",
          "type": "uint256"
        },
        {
          "internalType": "uint256",
          "name": "votedNo",
          "type": "uint256"
        }
      ],
      "payable": false,
      "stateMutability": "view",
      "type": "function"
    },
    {
      "constant": true,
      "inputs": [
        {
          "internalType": "uint256",
          "name": "proposalIndex",
          "type": "uint256"
        },
        {
          "internalType": "address",
          "name": "senderAddress",
          "type": "address"
        }
      ],
      "name": "beforeVoteInProposal",
      "outputs": [
        {
          "internalType": "bool",
          "name": "",
          "type": "bool"
        },
        {
          "internalType": "string",
          "name": "",
          "type": "string"
        }
      ],
      "payable": false,
      "stateMutability": "view",
      "type": "function"
    },
    {
      "constant": false,
      "inputs": [
        {
          "internalType": "bytes32",
          "name": "_description",
          "type": "bytes32"
        },
        {
          "internalType": "uint256",
          "name": "_durationHours",
          "type": "uint256"
        },
        {
          "internalType": "enum VotingIco.ActionType",
          "name": "_actionType",
          "type": "uint8"
        },
        {
          "internalType": "address payable",
          "name": "_actionAddress",
          "type": "address"
        },
        {
          "internalType": "bytes32",
          "name": "_name",
          "type": "bytes32"
        },
        {
          "internalType": "uint256",
          "name": "_amount",
          "type": "uint256"
        }
      ],
      "name": "createProposal",
      "outputs": [],
      "payable": false,
      "stateMutability": "nonpayable",
      "type": "function"
    },
    {
      "constant": true,
      "inputs": [],
      "name": "enabled",
      "outputs": [
        {
          "internalType": "bool",
          "name": "",
          "type": "bool"
        }
      ],
      "payable": false,
      "stateMutability": "view",
      "type": "function"
    },
    {
      "constant": false,
      "inputs": [
        {
          "internalType": "uint256",
          "name": "proposalIndex",
          "type": "uint256"
        }
      ],
      "name": "finishProposal",
      "outputs": [],
      "payable": false,
      "stateMutability": "nonpayable",
      "type": "function"
    },
    {
      "constant": true,
      "inputs": [],
      "name": "initialTokens",
      "outputs": [
        {
          "internalType": "uint256",
          "name": "",
          "type": "uint256"
        }
      ],
      "payable": false,
      "stateMutability": "view",
      "type": "function"
    },
    {
      "constant": true,
      "inputs": [],
      "name": "initialized",
      "outputs": [
        {
          "internalType": "bool",
          "name": "",
          "type": "bool"
        }
      ],
      "payable": false,
      "stateMutability": "view",
      "type": "function"
    },
    {
      "constant": true,
      "inputs": [],
      "name": "owner",
      "outputs": [
        {
          "internalType": "address payable",
          "name": "",
          "type": "address"
        }
      ],
      "payable": false,
      "stateMutability": "view",
      "type": "function"
    },
    {
      "constant": true,
      "inputs": [
        {
          "internalType": "uint256",
          "name": "",
          "type": "uint256"
        }
      ],
      "name": "participants",
      "outputs": [
        {
          "internalType": "bytes32",
          "name": "name",
          "type": "bytes32"
        },
        {
          "internalType": "address",
          "name": "addr",
          "type": "address"
        }
      ],
      "payable": false,
      "stateMutability": "view",
      "type": "function"
    },
    {
      "constant": true,
      "inputs": [],
      "name": "participantsLength",
      "outputs": [
        {
          "internalType": "uint256",
          "name": "",
          "type": "uint256"
        }
      ],
      "payable": false,
      "stateMutability": "view",
      "type": "function"
    },
    {
      "constant": true,
      "inputs": [],
      "name": "phase",
      "outputs": [
        {
          "internalType": "uint256",
          "name": "",
          "type": "uint256"
        }
      ],
      "payable": false,
      "stateMutability": "view",
      "type": "function"
    },
    {
      "constant": true,
      "inputs": [
        {
          "internalType": "uint256",
          "name": "",
          "type": "uint256"
        },
        {
          "internalType": "uint256",
          "name": "",
          "type": "uint256"
        }
      ],
      "name": "phaseInfo",
      "outputs": [
        {
          "internalType": "uint256",
          "name": "",
          "type": "uint256"
        }
      ],
      "payable": false,
      "stateMutability": "view",
      "type": "function"
    },
    {
      "constant": true,
      "inputs": [
        {
          "internalType": "uint256",
          "name": "",
          "type": "uint256"
        }
      ],
      "name": "proposals",
      "outputs": [
        {
          "internalType": "bytes32",
          "name": "description",
          "type": "bytes32"
        },
        {
          "internalType": "uint256",
          "name": "endTime",
          "type": "uint256"
        },
        {
          "internalType": "uint8",
          "name": "result",
          "type": "uint8"
        },
        {
          "internalType": "enum VotingIco.ActionType",
          "name": "actionType",
          "type": "uint8"
        },
        {
          "internalType": "address payable",
          "name": "actionAddress",
          "type": "address"
        },
        {
          "internalType": "bytes32",
          "name": "name",
          "type": "bytes32"
        },
        {
          "internalType": "uint256",
          "name": "amount",
          "type": "uint256"
        }
      ],
      "payable": false,
      "stateMutability": "view",
      "type": "function"
    },
    {
      "constant": true,
      "inputs": [],
      "name": "proposalsLength",
      "outputs": [
        {
          "internalType": "uint256",
          "name": "",
          "type": "uint256"
        }
      ],
      "payable": false,
      "stateMutability": "view",
      "type": "function"
    },
    {
      "constant": true,
      "inputs": [],
      "name": "raisedAmount",
      "outputs": [
        {
          "internalType": "uint256",
          "name": "",
          "type": "uint256"
        }
      ],
      "payable": false,
      "stateMutability": "view",
      "type": "function"
    },
    {
      "constant": true,
      "inputs": [],
      "name": "startTime",
      "outputs": [
        {
          "internalType": "uint256",
          "name": "",
          "type": "uint256"
        }
      ],
      "payable": false,
      "stateMutability": "view",
      "type": "function"
    },
    {
      "constant": true,
      "inputs": [
        {
          "internalType": "uint256",
          "name": "index",
          "type": "uint256"
        }
      ],
      "name": "statusOfProposal",
      "outputs": [
        {
          "internalType": "address[]",
          "name": "",
          "type": "address[]"
        },
        {
          "internalType": "bytes32[]",
          "name": "",
          "type": "bytes32[]"
        },
        {
          "internalType": "uint8[]",
          "name": "",
          "type": "uint8[]"
        }
      ],
      "payable": false,
      "stateMutability": "view",
      "type": "function"
    },
    {
      "constant": false,
      "inputs": [
        {
          "internalType": "address payable",
          "name": "newOwner",
          "type": "address"
        }
      ],
      "name": "transferOwnership",
      "outputs": [],
      "payable": false,
      "stateMutability": "nonpayable",
      "type": "function"
    },
    {
      "constant": false,
      "inputs": [
        {
          "internalType": "uint256",
          "name": "proposalIndex",
          "type": "uint256"
        },
        {
          "internalType": "uint8",
          "name": "vote",
          "type": "uint8"
        }
      ],
      "name": "voteInProposal",
      "outputs": [],
      "payable": false,
      "stateMutability": "nonpayable",
      "type": "function"
    },
    {
      "constant": false,
      "inputs": [
        {
          "internalType": "address",
          "name": "transport",
          "type": "address"
        }
      ],
      "name": "initialize",
      "outputs": [],
      "payable": false,
      "stateMutability": "nonpayable",
      "type": "function"
    },
    {
      "constant": true,
      "inputs": [],
      "name": "isActive",
      "outputs": [
        {
          "internalType": "bool",
          "name": "",
          "type": "bool"
        }
      ],
      "payable": false,
      "stateMutability": "view",
      "type": "function"
    },
    {
      "constant": true,
      "inputs": [],
      "name": "info",
      "outputs": [
        {
          "internalType": "uint256",
          "name": "",
          "type": "uint256"
        },
        {
          "internalType": "uint256",
          "name": "",
          "type": "uint256"
        },
        {
          "internalType": "uint256",
          "name": "",
          "type": "uint256"
        },
        {
          "internalType": "uint256",
          "name": "",
          "type": "uint256"
        },
        {
          "internalType": "bool",
          "name": "",
          "type": "bool"
        },
        {
          "internalType": "bool",
          "name": "",
          "type": "bool"
        },
        {
          "internalType": "uint256[]",
          "name": "",
          "type": "uint256[]"
        },
        {
          "internalType": "uint256[]",
          "name": "",
          "type": "uint256[]"
        },
        {
          "internalType": "uint256",
          "name": "",
          "type": "uint256"
        }
      ],
      "payable": false,
      "stateMutability": "view",
      "type": "function"
    },
    {
      "constant": true,
      "inputs": [],
      "name": "goalReached",
      "outputs": [
        {
          "internalType": "bool",
          "name": "",
          "type": "bool"
        }
      ],
      "payable": false,
      "stateMutability": "view",
      "type": "function"
    },
    {
      "constant": false,
      "inputs": [
        {
          "internalType": "bool",
          "name": "_enabled",
          "type": "bool"
        }
      ],
      "name": "setEnabled",
      "outputs": [
        {
          "internalType": "bool",
          "name": "",
          "type": "bool"
        }
      ],
      "payable": false,
      "stateMutability": "nonpayable",
      "type": "function"
    },
    {
      "constant": true,
      "inputs": [],
      "name": "getPhase",
      "outputs": [
        {
          "internalType": "uint256",
          "name": "res",
          "type": "uint256"
        }
      ],
      "payable": false,
      "stateMutability": "view",
      "type": "function"
    },
    {
      "constant": true,
      "inputs": [],
      "name": "leftInActualPhase",
      "outputs": [
        {
          "internalType": "uint256",
          "name": "res",
          "type": "uint256"
        }
      ],
      "payable": false,
      "stateMutability": "view",
      "type": "function"
    },
    {
      "constant": true,
      "inputs": [
        {
          "internalType": "uint256",
          "name": "amount",
          "type": "uint256"
        }
      ],
      "name": "getPrice",
      "outputs": [
        {
          "internalType": "uint256",
          "name": "",
          "type": "uint256"
        }
      ],
      "payable": false,
      "stateMutability": "view",
      "type": "function"
    },
    {
      "constant": true,
      "inputs": [
        {
          "internalType": "uint256",
          "name": "weiAmount",
          "type": "uint256"
        }
      ],
      "name": "getTokensForWei",
      "outputs": [
        {
          "internalType": "uint256",
          "name": "",
          "type": "uint256"
        }
      ],
      "payable": false,
      "stateMutability": "view",
      "type": "function"
    },
    {
      "constant": false,
      "inputs": [
        {
          "internalType": "address",
          "name": "buyer",
          "type": "address"
        },
        {
          "internalType": "uint256",
          "name": "tokens",
          "type": "uint256"
        }
      ],
      "name": "buyOverBackend",
      "outputs": [
        {
          "internalType": "bool",
          "name": "res",
          "type": "bool"
        }
      ],
      "payable": false,
      "stateMutability": "nonpayable",
      "type": "function"
    },
    {
      "constant": false,
      "inputs": [],
      "name": "buyTokens",
      "outputs": [],
      "payable": true,
      "stateMutability": "payable",
      "type": "function"
    },
    {
      "constant": true,
      "inputs": [],
      "name": "tokensAvailable",
      "outputs": [
        {
          "internalType": "uint256",
          "name": "",
          "type": "uint256"
        }
      ],
      "payable": false,
      "stateMutability": "view",
      "type": "function"
    },
    {
      "constant": false,
      "inputs": [
        {
          "internalType": "address",
          "name": "_from",
          "type": "address"
        },
        {
          "internalType": "uint256",
          "name": "_value",
          "type": "uint256"
        },
        {
          "internalType": "bytes",
          "name": "_data",
          "type": "bytes"
        }
      ],
      "name": "tokenFallback",
      "outputs": [],
      "payable": false,
      "stateMutability": "nonpayable",
      "type": "function"
    },
    {
      "constant": true,
      "inputs": [],
      "name": "weiAvailable",
      "outputs": [
        {
          "internalType": "uint256",
          "name": "",
          "type": "uint256"
        }
      ],
      "payable": false,
      "stateMutability": "view",
      "type": "function"
    }
  ],
  "bytecode": "0x608060405260006006556000601560006101000a81548160ff0219169083151502179055506000601560016101000a81548160ff021916908315150217905550600060165560006017553480156200005657600080fd5b506040516200473838038062004738833981810160405260608110156200007c57600080fd5b810190808051906020019092919080516040519392919084640100000000821115620000a757600080fd5b83820191506020820185811115620000be57600080fd5b8251866020820283011164010000000082111715620000dc57600080fd5b8083526020830192505050908051906020019060200280838360005b8381101562000115578082015181840152602081019050620000f8565b50505050905001604052602001805160405193929190846401000000008211156200013f57600080fd5b838201915060208201858111156200015657600080fd5b82518660208202830111640100000000821117156200017457600080fd5b8083526020830192505050908051906020019060200280838360005b83811015620001ad57808201518184015260208101905062000190565b50505050905001604052505050336000806101000a81548173ffffffffffffffffffffffffffffffffffffffff021916908373ffffffffffffffffffffffffffffffffffffffff16021790555082600160006101000a81548173ffffffffffffffffffffffffffffffffffffffff021916908373ffffffffffffffffffffffffffffffffffffffff160217905550805182511462000297576040517f08c379a000000000000000000000000000000000000000000000000000000000815260040180806020018281038252602c8152602001806200470c602c913960400191505060405180910390fd5b6002825111620002f3576040517f08c379a0000000000000000000000000000000000000000000000000000000008152600401808060200182810382526029815260200180620046e36029913960400191505060405180910390fd5b60008090505b8083511115620003e557600460405180604001604052808484815181106200031d57fe5b602002602001015181526020018584815181106200033757fe5b602002602001015173ffffffffffffffffffffffffffffffffffffffff16815250908060018154018082558091505090600182039060005260206000209060020201600090919290919091506000820151816000015560208201518160010160006101000a81548173ffffffffffffffffffffffffffffffffffffffff021916908373ffffffffffffffffffffffffffffffffffffffff1602179055505050508080600101915050620002f9565b508151600481620003f7919062000633565b5060405180604001604052806418609b370064ffffffffff16815260200164012a05f20064ffffffffff1681525060076000600781106200043457fe5b600202019060026200044892919062000668565b5060405180604001604052806430c1366e0064ffffffffff16815260200163b2d05e0064ffffffffff1681525060076001600781106200048457fe5b600202019060026200049892919062000668565b506040518060400160405280644921d1a50064ffffffffff168152602001633b9aca0064ffffffffff168152506007600260078110620004d457fe5b60020201906002620004e892919062000668565b5060405180604001604052806461826cdc0064ffffffffff168152602001633b9aca0064ffffffffff1681525060076003600781106200052457fe5b600202019060026200053892919062000668565b5060405180604001604052806479e308130064ffffffffff168152602001633b9aca0064ffffffffff1681525060076004600781106200057457fe5b600202019060026200058892919062000668565b506040518060400160405280649243a34a0064ffffffffff168152602001633b9aca0064ffffffffff168152506007600560078110620005c457fe5b60020201906002620005d892919062000668565b50604051806040016040528064f3c610260064ffffffffff168152602001640df847580064ffffffffff1681525060076006600781106200061557fe5b600202019060026200062992919062000668565b505050506200072f565b8154818355818111156200066357600202816002028360005260206000209182019101620006629190620006b6565b5b505050565b8260028101928215620006a3579160200282015b82811115620006a2578251829064ffffffffff169055916020019190600101906200067c565b5b509050620006b2919062000707565b5090565b6200070491905b8082111562000700576000808201600090556001820160006101000a81549073ffffffffffffffffffffffffffffffffffffffff021916905550600201620006bd565b5090565b90565b6200072c91905b80821115620007285760008160009055506001016200070e565b5090565b90565b613fa4806200073f6000396000f3fe6080604052600436106101f95760003560e01c80637be6a0341161010d578063c4330507116100a0578063d035e72f1161006f578063d035e72f14610e23578063d0febe4c14610e6b578063e757223014610e75578063eced028014610ec4578063f2fde38b14610eef576101f9565b8063c433050714610c55578063c4d66de814610d34578063c59ee1dc14610d85578063cb118a7214610db0576101f9565b8063a90a3d34116100dc578063a90a3d34146109c9578063b1c9fe6e14610a18578063bfd6e79f14610a43578063c0ee0b8a14610b63576101f9565b80637be6a034146108bf5780637d3d652214610918578063878b4932146109475780638da5cb5b14610972576101f9565b806335c1d349116101905780634c9807bb1161015f5780634c9807bb1461064f57806350bfeadc1461075157806360659a921461077c5780636ca19679146107a757806378e9792514610894576101f9565b806335c1d3491461048a578063370158ea1461050c5780634158506a146105f957806344c7c86714610624576101f9565b8063238dafe0116101cc578063238dafe0146103a057806324434169146103cf57806327393278146103fa578063328d8f7214610435576101f9565b8063013cf08b14610203578063048bc9ec146102bc578063158ef93e1461034257806322f3e2d414610371575b610201610f40565b005b34801561020f57600080fd5b5061023c6004803603602081101561022657600080fd5b8101908080359060200190929190505050611146565b604051808881526020018781526020018660ff1660ff16815260200185600381111561026457fe5b60ff1681526020018473ffffffffffffffffffffffffffffffffffffffff1673ffffffffffffffffffffffffffffffffffffffff16815260200183815260200182815260200197505050505050505060405180910390f35b3480156102c857600080fd5b50610340600480360360c08110156102df57600080fd5b810190808035906020019092919080359060200190929190803560ff169060200190929190803573ffffffffffffffffffffffffffffffffffffffff16906020019092919080359060200190929190803590602001909291905050506111cf565b005b34801561034e57600080fd5b5061035761148c565b604051808215151515815260200191505060405180910390f35b34801561037d57600080fd5b5061038661149f565b604051808215151515815260200191505060405180910390f35b3480156103ac57600080fd5b506103b56114f3565b604051808215151515815260200191505060405180910390f35b3480156103db57600080fd5b506103e4611506565b6040518082815260200191505060405180910390f35b34801561040657600080fd5b506104336004803603602081101561041d57600080fd5b81019080803590602001909291905050506115da565b005b34801561044157600080fd5b506104706004803603602081101561045857600080fd5b81019080803515159060200190929190505050611d8a565b604051808215151515815260200191505060405180910390f35b34801561049657600080fd5b506104c3600480360360208110156104ad57600080fd5b8101908080359060200190929190505050611e16565b604051808381526020018273ffffffffffffffffffffffffffffffffffffffff1673ffffffffffffffffffffffffffffffffffffffff1681526020019250505060405180910390f35b34801561051857600080fd5b50610521611e67565b604051808a815260200189815260200188815260200187815260200186151515158152602001851515151581526020018060200180602001848152602001838103835286818151815260200191508051906020019060200280838360005b8381101561059a57808201518184015260208101905061057f565b50505050905001838103825285818151815260200191508051906020019060200280838360005b838110156105dc5780820151818401526020810190506105c1565b505050509050019b50505050505050505050505060405180910390f35b34801561060557600080fd5b5061060e611fc5565b6040518082815260200191505060405180910390f35b34801561063057600080fd5b50610639611fd2565b6040518082815260200191505060405180910390f35b34801561065b57600080fd5b506106cb6004803603606081101561067257600080fd5b81019080803560ff169060200190929190803573ffffffffffffffffffffffffffffffffffffffff169060200190929190803573ffffffffffffffffffffffffffffffffffffffff169060200190929190505050611fdf565b604051808315151515815260200180602001828103825283818151815260200191508051906020019080838360005b838110156107155780820151818401526020810190506106fa565b50505050905090810190601f1680156107425780820380516001836020036101000a031916815260200191505b50935050505060405180910390f35b34801561075d57600080fd5b506107666121ba565b6040518082815260200191505060405180910390f35b34801561078857600080fd5b506107916121c3565b6040518082815260200191505060405180910390f35b3480156107b357600080fd5b50610800600480360360408110156107ca57600080fd5b8101908080359060200190929190803573ffffffffffffffffffffffffffffffffffffffff1690602001909291905050506122a4565b604051808515151515815260200180602001848152602001838152602001828103825285818151815260200191508051906020019080838360005b8381101561085657808201518184015260208101905061083b565b50505050905090810190601f1680156108835780820380516001836020036101000a031916815260200191505b509550505050505060405180910390f35b3480156108a057600080fd5b506108a9612a6c565b6040518082815260200191505060405180910390f35b3480156108cb57600080fd5b50610902600480360360408110156108e257600080fd5b810190808035906020019092919080359060200190929190505050612a72565b6040518082815260200191505060405180910390f35b34801561092457600080fd5b5061092d612a9a565b604051808215151515815260200191505060405180910390f35b34801561095357600080fd5b5061095c612aac565b6040518082815260200191505060405180910390f35b34801561097e57600080fd5b50610987612ab4565b604051808273ffffffffffffffffffffffffffffffffffffffff1673ffffffffffffffffffffffffffffffffffffffff16815260200191505060405180910390f35b3480156109d557600080fd5b50610a02600480360360208110156109ec57600080fd5b8101908080359060200190929190505050612ada565b6040518082815260200191505060405180910390f35b348015610a2457600080fd5b50610a2d612df1565b6040518082815260200191505060405180910390f35b348015610a4f57600080fd5b50610a7c60048036036020811015610a6657600080fd5b8101908080359060200190929190505050612df7565b60405180806020018060200180602001848103845287818151815260200191508051906020019060200280838360005b83811015610ac7578082015181840152602081019050610aac565b50505050905001848103835286818151815260200191508051906020019060200280838360005b83811015610b09578082015181840152602081019050610aee565b50505050905001848103825285818151815260200191508051906020019060200280838360005b83811015610b4b578082015181840152602081019050610b30565b50505050905001965050505050505060405180910390f35b348015610b6f57600080fd5b50610c5360048036036060811015610b8657600080fd5b81019080803573ffffffffffffffffffffffffffffffffffffffff1690602001909291908035906020019092919080359060200190640100000000811115610bcd57600080fd5b820183602082011115610bdf57600080fd5b80359060200191846001830284011164010000000083111715610c0157600080fd5b91908080601f016020809104026020016040519081016040528093929190818152602001838380828437600081840152601f19601f820116905080830192505050505050509192919290505050613199565b005b348015610c6157600080fd5b50610cae60048036036040811015610c7857600080fd5b8101908080359060200190929190803573ffffffffffffffffffffffffffffffffffffffff16906020019092919050505061319e565b604051808315151515815260200180602001828103825283818151815260200191508051906020019080838360005b83811015610cf8578082015181840152602081019050610cdd565b50505050905090810190601f168015610d255780820380516001836020036101000a031916815260200191505b50935050505060405180910390f35b348015610d4057600080fd5b50610d8360048036036020811015610d5757600080fd5b81019080803573ffffffffffffffffffffffffffffffffffffffff16906020019092919050505061341f565b005b348015610d9157600080fd5b50610d9a613532565b6040518082815260200191505060405180910390f35b348015610dbc57600080fd5b50610e0960048036036040811015610dd357600080fd5b81019080803573ffffffffffffffffffffffffffffffffffffffff16906020019092919080359060200190929190505050613538565b604051808215151515815260200191505060405180910390f35b348015610e2f57600080fd5b50610e6960048036036040811015610e4657600080fd5b8101908080359060200190929190803560ff169060200190929190505050613736565b005b610e73610f40565b005b348015610e8157600080fd5b50610eae60048036036020811015610e9857600080fd5b8101908080359060200190929190505050613985565b6040518082815260200191505060405180910390f35b348015610ed057600080fd5b50610ed9613bfa565b6040518082815260200191505060405180910390f35b348015610efb57600080fd5b50610f3e60048036036020811015610f1257600080fd5b81019080803573ffffffffffffffffffffffffffffffffffffffff169060200190929190505050613cb3565b005b610f4861149f565b610f4e57fe5b6000610f5934612ada565b90506001811015610fb5576040517f08c379a0000000000000000000000000000000000000000000000000000000008152600401808060200182810382526024815260200180613f026024913960400191505060405180910390fd5b610fca34601754613d8990919063ffffffff16565b601781905550600081111561109f57600160009054906101000a900473ffffffffffffffffffffffffffffffffffffffff1673ffffffffffffffffffffffffffffffffffffffff1663a9059cbb33836040518363ffffffff1660e01b8152600401808373ffffffffffffffffffffffffffffffffffffffff1673ffffffffffffffffffffffffffffffffffffffff16815260200182815260200192505050600060405180830381600087803b15801561108257600080fd5b505af1158015611096573d6000803e3d6000fd5b505050506110e7565b3373ffffffffffffffffffffffffffffffffffffffff166108fc349081150290604051600060405180830381858888f193505050501580156110e5573d6000803e3d6000fd5b505b3373ffffffffffffffffffffffffffffffffffffffff167f61b2357f75eed32a19939598e4c7563879bacd78e9d957c31f0f9f70a3fd14a0826040518082815260200191505060405180910390a261113d613bfa565b60068190555050565b6005818154811061115357fe5b90600052602060002090600602016000915090508060000154908060010154908060020160009054906101000a900460ff16908060020160019054906101000a900460ff16908060020160029054906101000a900473ffffffffffffffffffffffffffffffffffffffff16908060030154908060040154905087565b600060606111de868633611fdf565b915091508115819061128b576040517f08c379a00000000000000000000000000000000000000000000000000000000081526004018080602001828103825283818151815260200191508051906020019080838360005b83811015611250578082015181840152602081019050611235565b50505050905090810190601f16801561127d5780820380516001836020036101000a031916815260200191505b509250505060405180910390fd5b506000610e1088024201905060056040518060e001604052808b8152602001838152602001600260ff1681526020018960038111156112c657fe5b81526020018873ffffffffffffffffffffffffffffffffffffffff1681526020018781526020018681525090806001815401808255809150509060018203906000526020600020906006020160009091929091909150600082015181600001556020820151816001015560408201518160020160006101000a81548160ff021916908360ff16021790555060608201518160020160016101000a81548160ff0219169083600381111561137557fe5b021790555060808201518160020160026101000a81548173ffffffffffffffffffffffffffffffffffffffff021916908373ffffffffffffffffffffffffffffffffffffffff16021790555060a0820151816003015560c082015181600401555050507f5a22095404761c56fdc0a2e7cf9111a91ff494b817685d5b0c34ddc0f134c50e8982898989896001600580549050036040518088815260200187815260200186600381111561142457fe5b60ff1681526020018573ffffffffffffffffffffffffffffffffffffffff1673ffffffffffffffffffffffffffffffffffffffff16815260200184815260200183815260200182815260200197505050505050505060405180910390a1505050505050505050565b601560009054906101000a900460ff1681565b600060011515601560009054906101000a900460ff1615151480156114d7575060011515601560019054906101000a900460ff161515145b80156114ee5750600015156114ea612a9a565b1515145b905090565b601560019054906101000a900460ff1681565b6000801515601560009054906101000a900460ff161515141561152c57600090506115d7565b60006115366121c3565b6410c388d00003905060008090505b80600160070311156115d057816007826007811061155f57fe5b6002020160016002811061156f57fe5b0154106115a057816007826007811061158457fe5b6002020160016002811061159457fe5b015403925050506115d7565b600781600781106115ad57fe5b600202016001600281106115bd57fe5b0154820391508080600101915050611545565b6000925050505b90565b600060606000806115eb85336122a4565b93509350935093508315839061169c576040517f08c379a00000000000000000000000000000000000000000000000000000000081526004018080602001828103825283818151815260200191508051906020019080838360005b83811015611661578082015181840152602081019050611646565b50505050905090810190601f16801561168e5780820380516001836020036101000a031916815260200191505b509250505060405180910390fd5b508082116116ab5760006116ae565b60015b600586815481106116bb57fe5b906000526020600020906006020160020160006101000a81548160ff021916908360ff16021790555080821115611d1857600060038111156116f957fe5b6005868154811061170657fe5b906000526020600020906006020160020160019054906101000a900460ff16600381111561173057fe5b14156118ff57600061177f6005878154811061174857fe5b906000526020600020906006020160020160029054906101000a900473ffffffffffffffffffffffffffffffffffffffff16613da5565b146117f2576040517f08c379a000000000000000000000000000000000000000000000000000000000815260040180806020018281038252601e8152602001807f54686973207061727469636970616e7420616c7265616479206578697374000081525060200191505060405180910390fd5b600460405180604001604052806005888154811061180c57fe5b90600052602060002090600602016003015481526020016005888154811061183057fe5b906000526020600020906006020160020160029054906101000a900473ffffffffffffffffffffffffffffffffffffffff1673ffffffffffffffffffffffffffffffffffffffff16815250908060018154018082558091505090600182039060005260206000209060020201600090919290919091506000820151816000015560208201518160010160006101000a81548173ffffffffffffffffffffffffffffffffffffffff021916908373ffffffffffffffffffffffffffffffffffffffff160217905550505050611d17565b6001600381111561190c57fe5b6005868154811061191957fe5b906000526020600020906006020160020160019054906101000a900460ff16600381111561194357fe5b1415611a6557600060016119946005888154811061195d57fe5b906000526020600020906006020160020160029054906101000a900473ffffffffffffffffffffffffffffffffffffffff16613da5565b0390506004600160048054905003815481106119ac57fe5b9060005260206000209060020201600482815481106119c757fe5b9060005260206000209060020201600082015481600001556001820160009054906101000a900473ffffffffffffffffffffffffffffffffffffffff168160010160006101000a81548173ffffffffffffffffffffffffffffffffffffffff021916908373ffffffffffffffffffffffffffffffffffffffff1602179055509050506004805480919060019003611a5e9190613e50565b5050611d16565b60026003811115611a7257fe5b60058681548110611a7f57fe5b906000526020600020906006020160020160019054906101000a900460ff166003811115611aa957fe5b1415611b575760058581548110611abc57fe5b906000526020600020906006020160020160029054906101000a900473ffffffffffffffffffffffffffffffffffffffff1673ffffffffffffffffffffffffffffffffffffffff166108fc60058781548110611b1457fe5b9060005260206000209060060201600401549081150290604051600060405180830381858888f19350505050158015611b51573d6000803e3d6000fd5b50611d15565b600380811115611b6357fe5b60058681548110611b7057fe5b906000526020600020906006020160020160019054906101000a900460ff166003811115611b9a57fe5b1415611d1457600160009054906101000a900473ffffffffffffffffffffffffffffffffffffffff1673ffffffffffffffffffffffffffffffffffffffff166323b872dd600260009054906101000a900473ffffffffffffffffffffffffffffffffffffffff1660058881548110611c0e57fe5b906000526020600020906006020160020160029054906101000a900473ffffffffffffffffffffffffffffffffffffffff1660058981548110611c4d57fe5b9060005260206000209060060201600401546040518463ffffffff1660e01b8152600401808473ffffffffffffffffffffffffffffffffffffffff1673ffffffffffffffffffffffffffffffffffffffff1681526020018373ffffffffffffffffffffffffffffffffffffffff1673ffffffffffffffffffffffffffffffffffffffff1681526020018281526020019350505050600060405180830381600087803b158015611cfb57600080fd5b505af1158015611d0f573d6000803e3d6000fd5b505050505b5b5b5b5b7fb89b889fb44aa067abcdcd537d53a8d8e84eb6ffa00368dd937318c80d77e75e60058681548110611d4657fe5b906000526020600020906006020160000154828411876040518084815260200183151515158152602001828152602001935050505060405180910390a15050505050565b60008060009054906101000a900473ffffffffffffffffffffffffffffffffffffffff1673ffffffffffffffffffffffffffffffffffffffff163373ffffffffffffffffffffffffffffffffffffffff1614611de557600080fd5b81601560016101000a81548160ff021916908315150217905550601560019054906101000a900460ff169050919050565b60048181548110611e2357fe5b90600052602060002090600202016000915090508060000154908060010160009054906101000a900473ffffffffffffffffffffffffffffffffffffffff16905082565b600080600080600080606080600060606007604051908082528060200260200182016040528015611ea75781602001602082028038833980820191505090505b50905060606007604051908082528060200260200182016040528015611edc5781602001602082028038833980820191505090505b50905060008090505b6007811015611f695760078160078110611efb57fe5b60020201600060028110611f0b57fe5b0154838281518110611f1957fe5b60200260200101818152505060078160078110611f3257fe5b60020201600160028110611f4257fe5b0154828281518110611f5057fe5b6020026020010181815250508080600101915050611ee5565b506410c388d000611f786121c3565b600654611f83611506565b601560009054906101000a900460ff16601560019054906101000a900460ff168787479a509a509a509a509a509a509a509a509a505050909192939495969798565b6000600480549050905090565b6000600580549050905090565b600060606000611fee85613da5565b90506000611ffb85613da5565b14156120435760016040518060400160405280601a81526020017f596f7520617265206e6f7420696e207061727469636970616e7400000000000081525092509250506121b2565b6000600381111561205057fe5b86600381111561205c57fe5b14801561206a575060008114155b156120b15760016040518060400160405280601e81526020017f54686973207061727469636970616e7420616c7265616479206578697374000081525092509250506121b2565b600160038111156120be57fe5b8660038111156120ca57fe5b1480156120d75750600081145b1561211e5760016040518060400160405280601f81526020017f54686973206973206e6f74207061727469636970616e7420616464726573730081525092509250506121b2565b6001600381111561212b57fe5b86600381111561213757fe5b14801561214a5750600260048054905011155b15612174576001604051806060016040528060228152602001613f4e6022913992509250506121b2565b60006040518060400160405280600281526020017f6f6b00000000000000000000000000000000000000000000000000000000000081525092509250505b935093915050565b6410c388d00081565b6000600160009054906101000a900473ffffffffffffffffffffffffffffffffffffffff1673ffffffffffffffffffffffffffffffffffffffff166370a08231306040518263ffffffff1660e01b8152600401808273ffffffffffffffffffffffffffffffffffffffff1673ffffffffffffffffffffffffffffffffffffffff16815260200191505060206040518083038186803b15801561226457600080fd5b505afa158015612278573d6000803e3d6000fd5b505050506040513d602081101561228e57600080fd5b8101908080519060200190929190505050905090565b6000606060008060006122b686613da5565b90506000809050600080905060008090506000600480549050905060008090505b808211156125205760058c815481106122ec57fe5b906000526020600020906006020160050160006004838154811061230c57fe5b906000526020600020906002020160010160009054906101000a900473ffffffffffffffffffffffffffffffffffffffff1673ffffffffffffffffffffffffffffffffffffffff1673ffffffffffffffffffffffffffffffffffffffff16815260200190815260200160002060000160009054906101000a900460ff1615612513578280600101935050600160058d815481106123a557fe5b90600052602060002090600602016005016000600484815481106123c557fe5b906000526020600020906002020160010160009054906101000a900473ffffffffffffffffffffffffffffffffffffffff1673ffffffffffffffffffffffffffffffffffffffff1673ffffffffffffffffffffffffffffffffffffffff16815260200190815260200160002060000160019054906101000a900460ff1660ff1614156124545784806001019550505b600060058d8154811061246357fe5b906000526020600020906006020160050160006004848154811061248357fe5b906000526020600020906002020160010160009054906101000a900473ffffffffffffffffffffffffffffffffffffffff1673ffffffffffffffffffffffffffffffffffffffff1673ffffffffffffffffffffffffffffffffffffffff16815260200190815260200160002060000160019054906101000a900460ff1660ff1614156125125783806001019450505b5b80806001019150506122d7565b50600085141561257857600184846040518060400160405280601a81526020017f596f7520617265206e6f7420696e207061727469636970616e74000000000000815250919098509850985098505050505050612a63565b8a600580549050116125d257600184846040518060400160405280601781526020017f50726f706f73616c20646f6573206e6f74206578697374000000000000000000815250919098509850985098505050505050612a63565b600260058c815481106125e157fe5b906000526020600020906006020160020160009054906101000a900460ff1660ff161461265657600184846040518060400160405280601381526020017f566f74696e67206861732066696e697368656400000000000000000000000000815250919098509850985098505050505050612a63565b60058b8154811061266357fe5b90600052602060002090600602016001015442111580156126845750818114155b156126d757600184846040518060400160405280601681526020017f566f74696e67206973206e6f742066696e697368656400000000000000000000815250919098509850985098505050505050612a63565b600260038111156126e457fe5b60058c815481106126f157fe5b906000526020600020906006020160020160019054906101000a900460ff16600381111561271b57fe5b148015612745575060058b8154811061273057fe5b90600052602060002090600602016004015447105b1561279857600184846040518060400160405280600f81526020017f4c6f77204554482062616c616e63650000000000000000000000000000000000815250919098509850985098505050505050612a63565b6003808111156127a457fe5b60058c815481106127b157fe5b906000526020600020906006020160020160019054906101000a900460ff1660038111156127db57fe5b148015612900575060058b815481106127f057fe5b906000526020600020906006020160040154600160009054906101000a900473ffffffffffffffffffffffffffffffffffffffff1673ffffffffffffffffffffffffffffffffffffffff166370a08231600260009054906101000a900473ffffffffffffffffffffffffffffffffffffffff166040518263ffffffff1660e01b8152600401808273ffffffffffffffffffffffffffffffffffffffff1673ffffffffffffffffffffffffffffffffffffffff16815260200191505060206040518083038186803b1580156128c357600080fd5b505afa1580156128d7573d6000803e3d6000fd5b505050506040513d60208110156128ed57600080fd5b8101908080519060200190929190505050105b1561295357600184846040518060400160405280600f81526020017f4c6f7720464c542062616c616e63650000000000000000000000000000000000815250919098509850985098505050505050612a63565b6001600381111561296057fe5b60058c8154811061296d57fe5b906000526020600020906006020160020160019054906101000a900460ff16600381111561299757fe5b1480156129a45750600281145b156129da5760018484604051806060016040528060288152602001613f2660289139919098509850985098505050505050612a63565b81600480549050038211612a195760018484604051806060016040528060318152602001613ed160319139919098509850985098505050505050612a63565b600084846040518060400160405280600281526020017f6f6b0000000000000000000000000000000000000000000000000000000000008152509190985098509850985050505050505b92959194509250565b60165481565b60078260078110612a7f57fe5b600202018160028110612a8e57fe5b01600091509150505481565b600080612aa56121c3565b1115905090565b600047905090565b600360009054906101000a900473ffffffffffffffffffffffffffffffffffffffff1681565b6000801515601560009054906101000a900460ff1615151415612b65576040517f08c379a00000000000000000000000000000000000000000000000000000000081526004018080602001828103825260188152602001807f546f6b656e206973206e6f7420696e697469616c697a6564000000000000000081525060200191505060405180910390fd5b64efdc687140821015612be0576040517f08c379a00000000000000000000000000000000000000000000000000000000081526004018080602001828103825260188152602001807f6d696e207765692069732031303330313935303136303030000000000000000081525060200191505060405180910390fd5b60008290506000612bef6121c3565b6410c388d00003905060006006549050600080905060008090505b6000851115612d7e578360078460078110612c2157fe5b60020201600160028110612c3157fe5b01540390506000811115612cd7578460078460078110612c4d57fe5b60020201600060028110612c5d57fe5b0154820210612c9c5760078360078110612c7357fe5b60020201600060028110612c8357fe5b01548581612c8d57fe5b04820195505050505050612dec565b808201915060078360078110612cae57fe5b60020201600060028110612cbe57fe5b0154810285039450600093508280600101935050612d03565b60078360078110612ce457fe5b60020201600160028110612cf457fe5b01548403935082806001019350505b60078310612d79576040517f08c379a000000000000000000000000000000000000000000000000000000000815260040180806020018281038252601b8152602001807f4572726f722c207765206861766520612066657720746f6b656e73000000000081525060200191505060405180910390fd5b612c0a565b6040517f08c379a000000000000000000000000000000000000000000000000000000000815260040180806020018281038252601f8152602001807f4572726f7220696e206d6574686f6420676574546f6b656e73466f725765690081525060200191505060405180910390fd5b919050565b60065481565b60608060608360058054905011612e76576040517f08c379a00000000000000000000000000000000000000000000000000000000081526004018080602001828103825260128152602001807f50726f706f73616c206e6f74206578697374000000000000000000000000000081525060200191505060405180910390fd5b6060600480549050604051908082528060200260200182016040528015612eac5781602001602082028038833980820191505090505b5090506060600480549050604051908082528060200260200182016040528015612ee55781602001602082028038833980820191505090505b5090506060600480549050604051908082528060200260200182016040528015612f1e5781602001602082028038833980820191505090505b509050600080905060008090505b8060048054905011156131845760058981548110612f4657fe5b9060005260206000209060060201600501600060048381548110612f6657fe5b906000526020600020906002020160010160009054906101000a900473ffffffffffffffffffffffffffffffffffffffff1673ffffffffffffffffffffffffffffffffffffffff1673ffffffffffffffffffffffffffffffffffffffff16815260200190815260200160002060000160009054906101000a900460ff16156131775760048181548110612ff557fe5b906000526020600020906002020160010160009054906101000a900473ffffffffffffffffffffffffffffffffffffffff1685838151811061303357fe5b602002602001019073ffffffffffffffffffffffffffffffffffffffff16908173ffffffffffffffffffffffffffffffffffffffff16815250506004818154811061307a57fe5b90600052602060002090600202016000015484838151811061309857fe5b602002602001018181525050600589815481106130b157fe5b90600052602060002090600602016005016000600483815481106130d157fe5b906000526020600020906002020160010160009054906101000a900473ffffffffffffffffffffffffffffffffffffffff1673ffffffffffffffffffffffffffffffffffffffff1673ffffffffffffffffffffffffffffffffffffffff16815260200190815260200160002060000160019054906101000a900460ff1683838151811061315a57fe5b602002602001019060ff16908160ff168152505081806001019250505b8080600101915050612f2c565b50838383965096509650505050509193909250565b505050565b6000606060006131ad84613da5565b905060008114156131fa5760016040518060400160405280601a81526020017f596f7520617265206e6f7420696e207061727469636970616e740000000000008152509250925050613418565b84600580549050116132485760016040518060400160405280601281526020017f50726f706f73616c206e6f7420657869737400000000000000000000000000008152509250925050613418565b60026005868154811061325757fe5b906000526020600020906006020160020160009054906101000a900460ff1660ff16146132c05760016040518060400160405280601181526020017f50726f706f73616c2066696e69736865640000000000000000000000000000008152509250925050613418565b600585815481106132cd57fe5b90600052602060002090600602016001015442106133275760016040518060400160405280601681526020017f54696d6520666f7220766f74696e67206973206f7574000000000000000000008152509250925050613418565b6005858154811061333457fe5b906000526020600020906006020160050160008573ffffffffffffffffffffffffffffffffffffffff1673ffffffffffffffffffffffffffffffffffffffff16815260200190815260200160002060000160009054906101000a900460ff16156133da5760016040518060400160405280601581526020017f596f752061726520616c726561647920766f74656400000000000000000000008152509250925050613418565b60006040518060400160405280600281526020017f6f6b00000000000000000000000000000000000000000000000000000000000081525092509250505b9250929050565b6000809054906101000a900473ffffffffffffffffffffffffffffffffffffffff1673ffffffffffffffffffffffffffffffffffffffff163373ffffffffffffffffffffffffffffffffffffffff161461347857600080fd5b60001515601560009054906101000a900460ff1615151461349857600080fd5b6410c388d0006134a66121c3565b10156134b157600080fd5b80600260006101000a81548173ffffffffffffffffffffffffffffffffffffffff021916908373ffffffffffffffffffffffffffffffffffffffff1602179055506001601560006101000a81548160ff0219169083151502179055506001601560016101000a81548160ff0219169083151502179055504260168190555050565b60175481565b60008060009054906101000a900473ffffffffffffffffffffffffffffffffffffffff1673ffffffffffffffffffffffffffffffffffffffff163373ffffffffffffffffffffffffffffffffffffffff161461359357600080fd5b8161359c6121c3565b1161360f576040517f08c379a000000000000000000000000000000000000000000000000000000000815260040180806020018281038252601b8152602001807f4572726f722c207765206861766520612066657720746f6b656e73000000000081525060200191505060405180910390fd5b600160009054906101000a900473ffffffffffffffffffffffffffffffffffffffff1673ffffffffffffffffffffffffffffffffffffffff1663a9059cbb84846040518363ffffffff1660e01b8152600401808373ffffffffffffffffffffffffffffffffffffffff1673ffffffffffffffffffffffffffffffffffffffff16815260200182815260200192505050600060405180830381600087803b1580156136b857600080fd5b505af11580156136cc573d6000803e3d6000fd5b505050503373ffffffffffffffffffffffffffffffffffffffff167f61b2357f75eed32a19939598e4c7563879bacd78e9d957c31f0f9f70a3fd14a0836040518082815260200191505060405180910390a2613726613bfa565b6006819055506001905092915050565b60006060613744843361319e565b91509150811581906137f1576040517f08c379a00000000000000000000000000000000000000000000000000000000081526004018080602001828103825283818151815260200191508051906020019080838360005b838110156137b657808201518184015260208101905061379b565b50505050905090810190601f1680156137e35780820380516001836020036101000a031916815260200191505b509250505060405180910390fd5b5060016005858154811061380157fe5b906000526020600020906006020160050160003373ffffffffffffffffffffffffffffffffffffffff1673ffffffffffffffffffffffffffffffffffffffff16815260200190815260200160002060000160006101000a81548160ff021916908315150217905550826005858154811061387757fe5b906000526020600020906006020160050160003373ffffffffffffffffffffffffffffffffffffffff1673ffffffffffffffffffffffffffffffffffffffff16815260200190815260200160002060000160016101000a81548160ff021916908360ff1602179055507f09859833479d3666edeeab8dc08198cf10941655b46111c955f390c6610a98336005858154811061390e57fe5b906000526020600020906006020160000154853386604051808581526020018481526020018373ffffffffffffffffffffffffffffffffffffffff1673ffffffffffffffffffffffffffffffffffffffff1681526020018260ff1660ff16815260200194505050505060405180910390a150505050565b6000801515601560009054906101000a900460ff1615151415613a10576040517f08c379a00000000000000000000000000000000000000000000000000000000081526004018080602001828103825260188152602001807f546f6b656e206973206e6f7420696e697469616c697a6564000000000000000081525060200191505060405180910390fd5b613a186121c3565b821115613a8d576040517f08c379a000000000000000000000000000000000000000000000000000000000815260040180806020018281038252601b8152602001807f4572726f722c207765206861766520612066657720746f6b656e73000000000081525060200191505060405180910390fd5b6000613a976121c3565b6410c388d00003905060006006549050600080905060008090505b60008614613b87578360078460078110613ac857fe5b60020201600160028110613ad857fe5b01540390506000811115613b5657858110613b1b5760078360078110613afa57fe5b60020201600060028110613b0a57fe5b015486028201945050505050613bf5565b60078360078110613b2857fe5b60020201600060028110613b3857fe5b01548102820191508086039550600093508280600101935050613b82565b60078360078110613b6357fe5b60020201600160028110613b7357fe5b01548403935082806001019350505b613ab2565b6040517f08c379a00000000000000000000000000000000000000000000000000000000081526004018080602001828103825260188152602001807f4572726f7220696e206d6574686f64206765745072696365000000000000000081525060200191505060405180910390fd5b919050565b6000801515601560009054906101000a900460ff1615151415613c205760009050613cb0565b6000613c2a6121c3565b6410c388d000039050600060065490505b8060016007031115613ca6578160078260078110613c5557fe5b60020201600160028110613c6557fe5b015410613c76578092505050613cb0565b60078160078110613c8357fe5b60020201600160028110613c9357fe5b0154820391508080600101915050613c3b565b6001600703925050505b90565b6000809054906101000a900473ffffffffffffffffffffffffffffffffffffffff1673ffffffffffffffffffffffffffffffffffffffff163373ffffffffffffffffffffffffffffffffffffffff1614613d0c57600080fd5b600073ffffffffffffffffffffffffffffffffffffffff168173ffffffffffffffffffffffffffffffffffffffff161415613d4657600080fd5b806000806101000a81548173ffffffffffffffffffffffffffffffffffffffff021916908373ffffffffffffffffffffffffffffffffffffffff16021790555050565b600080828401905083811015613d9b57fe5b8091505092915050565b600080600090505b806004805490501115613e45578273ffffffffffffffffffffffffffffffffffffffff1660048281548110613dde57fe5b906000526020600020906002020160010160009054906101000a900473ffffffffffffffffffffffffffffffffffffffff1673ffffffffffffffffffffffffffffffffffffffff161415613e385760018101915050613e4b565b8080600101915050613dad565b50600090505b919050565b815481835581811115613e7d57600202816002028360005260206000209182019101613e7c9190613e82565b5b505050565b613ecd91905b80821115613ec9576000808201600090556001820160006101000a81549073ffffffffffffffffffffffffffffffffffffffff021916905550600201613e88565b5090565b9056fe436f756e74206f6620766f746564207061727469636970616e7473206d757374206265206d6f7265207468616e203530254572726f722c20746f6f206c6974746c6520616d6f756e74206f6620657468657265756d4d696e696d616c20636f756e74206f6620766f746564207061727469636970616e747320697320324d696e696d616c20636f756e74206f66207061727469636970616e74732069732032a265627a7a7231582001734dbed8f74611d64e78c741791fb8d669b1632f78b583a9c0b217cbd615aa64736f6c63430005100032436f756e74206f6620706172746963697061746573206d757374206265206d6f7265207468616e2032436f756e74206f662070617274696369706174657320616e64206e616d6573206d7573742062652073616d65",
  "source": "pragma solidity ^0.5.1;\n\nimport \"./SafeMath.sol\";\nimport \"./Ownable.sol\";\nimport \"./FloteaToken.sol\";\nimport \"./VotingIco.sol\";\nimport \"./ERC223_receiving_contract.sol\";\n\n/**\n * @title FloteaICO\n * @dev FloteaICO contract is Ownable\n **/\ncontract FloteaICO is Ownable, VotingIco, ERC223ReceivingContract {\n  using SafeMath for uint256;\n\n  uint256 public constant initialTokens = 72 * 10**6 * 10**3;\n  \n  uint public phase = 0;\n  uint256[2][7] public phaseInfo;\n\n  \n  bool public initialized = false;\n  bool public enabled = false;\n  uint256 public startTime = 0;\n  uint256 public raisedAmount = 0;\n  /**\n   * BoughtTokens\n   * @dev Log tokens bought onto the blockchain\n   */\n  event BoughtTokens(address indexed to, uint256 value);\n\n  /**\n   * whenSaleIsActive\n   * @dev ensures that the contract is still active\n   **/\n  modifier whenSaleIsActive() {\n    // Check if sale is active\n    assert(isActive());\n    _;\n  }\n  \n  /**\n   * FloteaICO\n   * @dev FloteaICO constructor\n   **/\n  constructor(address _tokenAddr, address[] memory _participates, bytes32[] memory names) public {\n      token = FloteaToken(_tokenAddr);\n      \n      require(_participates.length == names.length, \"Count of participates and names must be same\");\n      require(_participates.length > 2, \"Count of participates must be more than 2\");\n        \n      for(uint i = 0; _participates.length > i; i++){\n          participants.push(Participant( names[i], _participates[i] ));\n      }\n      participants.length = _participates.length;\n\n      phaseInfo[0] = [104700000000 * 1 , 5 * 10**6 * 1000];\n      phaseInfo[1] = [104700000000 * 2 , 3 * 10**6 * 1000];\n      phaseInfo[2] = [104700000000 * 3 , 1 * 10**6 * 1000];\n      phaseInfo[3] = [104700000000 * 4 , 1 * 10**6 * 1000];\n      phaseInfo[4] = [104700000000 * 5 , 1 * 10**6 * 1000];\n      phaseInfo[5] = [104700000000 * 6 , 1 * 10**6 * 1000];\n      phaseInfo[6] = [104700000000 * 10 , 60 * 10**6 * 1000];\n  }  \n  \n  /**\n   * initialize\n   * @dev Initialize the contract\n   **/\n  function initialize(address transport) public onlyOwner {\n      require(initialized == false); // Can only be initialized once\n      require(tokensAvailable() >= initialTokens); // Must have enough tokens allocated\n      transportAddress = transport;\n      initialized = true;\n      enabled = true;\n      startTime = now;\n  }\n\n  /**\n   * isActive\n   * @dev Determins if the contract is still active\n   **/\n  function isActive() public view returns (bool) {\n    return (\n        initialized == true &&\n        enabled == true &&\n        goalReached() == false // Goal must not already be reached\n    );\n  }\n\n\n  function info() public view returns (uint, uint, uint, uint, bool, bool, uint[] memory, uint[] memory, uint ){\n  uint[] memory prices = new uint[](phaseInfo.length);\n  uint[] memory tokens = new uint[](phaseInfo.length);\n  \n  for (uint i = 0; i < phaseInfo.length; i++) {\n    prices[i] = phaseInfo[i][0];\n    tokens[i] = phaseInfo[i][1];\n  }\n  return (\n      initialTokens,\n      tokensAvailable(),\n      phase,\n      leftInActualPhase(),\n      initialized,\n      enabled,\n      prices,\n      tokens,\n      address(this).balance\n    );\n  }\n\n  /**\n   * goalReached\n   * @dev Function to determin is goal has been reached\n   **/\n  function goalReached() public view returns (bool) {\n    return !(tokensAvailable() > 0);\n  }\n\n  /**\n   * @dev Fallback function if ether is sent to address insted of buyTokens function\n   **/\n  function () external payable{\n    buyTokens();\n  }\n\n  function setEnabled(bool _enabled) onlyOwner public returns (bool){\n    enabled = _enabled;\n    return enabled;\n  }\n\n  function getPhase() public view returns (uint res) {\n    if(initialized == false)\n      return 0;\n    uint buyedTokens = initialTokens - tokensAvailable();\n    uint p = phase;\n    while (phaseInfo.length -1 > p) {\n      if(phaseInfo[p][1] >= buyedTokens){\n        return p;\n      }\n      else {\n        buyedTokens -= phaseInfo[p][1];\n        p++;\n      }\n    }\n    return phaseInfo.length - 1;\n  }\n\n  function leftInActualPhase() public view returns (uint res) {\n    if(initialized == false)\n      return 0;\n    uint buyedTokens = initialTokens - tokensAvailable();\n    uint p = 0;\n    while (phaseInfo.length -1 > p) {\n      if(phaseInfo[p][1] >= buyedTokens){\n        return phaseInfo[p][1] - buyedTokens;\n      }\n      else {\n        buyedTokens -= phaseInfo[p][1];\n        p++;\n      }\n    }\n    return 0;\n  }\n  \n\n  function getPrice(uint amount) public view returns (uint){\n    if(initialized == false)\n      revert(\"Token is not initialized\");\n    if(amount > tokensAvailable())\n      revert(\"Error, we have a few tokens\");\n    uint buyedTokens = initialTokens - tokensAvailable();\n    uint p = phase;\n    uint price = 0;\n    uint freeTokensInPhase = 0;\n\n    while (amount != 0) {\n      freeTokensInPhase = phaseInfo[p][1] - buyedTokens;\n      if(freeTokensInPhase > 0){\n        if(freeTokensInPhase >= amount){\n          return (price + amount * phaseInfo[p][0]);\n        } \n        else{\n          price += freeTokensInPhase * phaseInfo[p][0];\n          amount -= freeTokensInPhase;\n          buyedTokens = 0;\n          p++;\n        }\n      }\n      else {\n        buyedTokens -= phaseInfo[p][1];\n        p++;\n      }\n    }\n    revert(\"Error in method getPrice\");\n  }\n\n  function getTokensForWei(uint weiAmount) public view returns(uint) {\n    if(initialized == false)\n      revert(\"Token is not initialized\");\n    if(weiAmount < 1030195016000)\n      revert(\"min wei is 1030195016000\");\n    uint amount = weiAmount;\n    uint buyedTokens = initialTokens - tokensAvailable();\n    uint p = phase;\n    uint tokens = 0;\n    uint freeTokensInPhase = 0;\n    while (amount > 0) {\n      freeTokensInPhase = phaseInfo[p][1] - buyedTokens;\n      if(freeTokensInPhase > 0){\n        if(freeTokensInPhase * phaseInfo[p][0] >= amount){\n          return tokens + amount / phaseInfo[p][0];\n        } else {\n          tokens += freeTokensInPhase;\n          amount -= freeTokensInPhase * phaseInfo[p][0];\n          buyedTokens = 0;\n          p++;\n        }\n      }\n      else {\n        buyedTokens -= phaseInfo[p][1];\n        p++;\n      }\n      if(p >= phaseInfo.length)\n        revert(\"Error, we have a few tokens\");\n    }\n    revert(\"Error in method getTokensForWei\");\n  }\n\n  function buyOverBackend(address buyer, uint tokens) public onlyOwner returns(bool res) {\n    if(tokensAvailable() <= tokens)\n      revert(\"Error, we have a few tokens\");\n    token.transfer(buyer, tokens);\n    emit BoughtTokens(msg.sender, tokens);\n    phase = getPhase();\n    return true;\n  }\n  \n\n  // je poteba aby se tal token koupit pes ETH i pes Backend pes vlastnka\n  \n\n  /**\n   * buyTokens\n   * @dev function that sells available tokens\n   **/\n\n  function buyTokens() public payable whenSaleIsActive {\n\n    uint tokens = getTokensForWei(msg.value);\n    if(tokens < 1)\n      revert(\"Error, too little amount of ethereum\");\n\n    raisedAmount = raisedAmount.add(msg.value); // Increment raised amount\n    \n    if(tokens > 0)\n      token.transfer(msg.sender, tokens); // Send tokens to buyer\n    else\n      msg.sender.transfer(msg.value);\n\n    \n    emit BoughtTokens(msg.sender, tokens); // log event onto the blockchain*/\n    //owner.transfer(msg.value);// Send money to owner\n\n    phase = getPhase();\n  }\n\n  /**\n   * tokensAvailable\n   * @dev returns the number of tokens allocated to this contract\n   **/\n  function tokensAvailable() public view returns (uint256) {\n    return token.balanceOf(address(this));\n  }\n\n  function tokenFallback(address _from, uint _value, bytes memory _data) public {\n  }\n  \n  function weiAvailable() public view returns (uint256) {\n      return address(this).balance;\n  }\n}\n",
  "sourcePath": "/home/martin/eth-contract/transport-eth-contracts/contracts/FloteaIco.sol",
  "compiler": {
    "name": "solc",
    "version": "0.5.16+commit.9c3226ce.Emscripten.clang"
  },
  "schemaVersion": "3.1.0",
  "updatedAt": "2020-04-29T23:43:01.048Z",
  "devdoc": {
    "details": "FloteaICO contract is Ownable*",
    "methods": {
      "buyTokens()": {
        "details": "function that sells available tokens*"
      },
      "constructor": {
        "details": "FloteaICO constructor*"
      },
      "goalReached()": {
        "details": "Function to determin is goal has been reached*"
      },
      "initialize(address)": {
        "details": "Initialize the contract*"
      },
      "isActive()": {
        "details": "Determins if the contract is still active*"
      },
      "tokensAvailable()": {
        "details": "returns the number of tokens allocated to this contract*"
      },
      "transferOwnership(address)": {
        "details": "Allows the current owner to transfer control of the contract to a newOwner.",
        "params": {
          "newOwner": "The address to transfer ownership to."
        }
      }
    },
    "title": "FloteaICO"
  },
  "userdoc": {
    "methods": {
      "buyTokens()": {
        "notice": "buyTokens"
      },
      "constructor": "FloteaICO",
      "goalReached()": {
        "notice": "goalReached"
      },
      "initialize(address)": {
        "notice": "initialize"
      },
      "isActive()": {
        "notice": "isActive"
      },
      "tokensAvailable()": {
        "notice": "tokensAvailable"
      },
      "transferOwnership(address)": {
        "notice": "transferOwnership"
      }
    }
  }
}