{
  "contractName": "Transport",
  "abi": [
    {
      "inputs": [
        {
          "internalType": "address",
          "name": "_tokenAddress",
          "type": "address"
        },
        {
          "internalType": "address",
          "name": "_votingCarrierAddress",
          "type": "address"
        },
        {
          "internalType": "address",
          "name": "_carriersAddress",
          "type": "address"
        },
        {
          "internalType": "address",
          "name": "_floteaIcoAddress",
          "type": "address"
        }
      ],
      "payable": false,
      "stateMutability": "nonpayable",
      "type": "constructor"
    },
    {
      "anonymous": false,
      "inputs": [
        {
          "indexed": false,
          "internalType": "address",
          "name": "_companyWallet",
          "type": "address"
        },
        {
          "indexed": false,
          "internalType": "bytes32",
          "name": "_company",
          "type": "bytes32"
        },
        {
          "indexed": false,
          "internalType": "bytes32",
          "name": "_web",
          "type": "bytes32"
        },
        {
          "indexed": false,
          "internalType": "uint256",
          "name": "_index",
          "type": "uint256"
        }
      ],
      "name": "CarrierUpdated",
      "type": "event"
    },
    {
      "anonymous": false,
      "inputs": [
        {
          "indexed": false,
          "internalType": "address",
          "name": "_companyWallet",
          "type": "address"
        },
        {
          "indexed": false,
          "internalType": "bytes32",
          "name": "_company",
          "type": "bytes32"
        },
        {
          "indexed": false,
          "internalType": "bytes32",
          "name": "_web",
          "type": "bytes32"
        },
        {
          "indexed": false,
          "internalType": "uint256",
          "name": "_index",
          "type": "uint256"
        }
      ],
      "name": "NewCarrier",
      "type": "event"
    },
    {
      "anonymous": false,
      "inputs": [
        {
          "indexed": false,
          "internalType": "address",
          "name": "_trip",
          "type": "address"
        },
        {
          "indexed": false,
          "internalType": "uint256",
          "name": "_tripId",
          "type": "uint256"
        },
        {
          "indexed": false,
          "internalType": "uint256",
          "name": "_tickets",
          "type": "uint256"
        },
        {
          "indexed": false,
          "internalType": "address",
          "name": "_buyerAddr",
          "type": "address"
        },
        {
          "indexed": false,
          "internalType": "uint256",
          "name": "_price",
          "type": "uint256"
        },
        {
          "indexed": false,
          "internalType": "uint256",
          "name": "_time",
          "type": "uint256"
        }
      ],
      "name": "PurchasedTickets",
      "type": "event"
    },
    {
      "anonymous": false,
      "inputs": [
        {
          "indexed": false,
          "internalType": "address",
          "name": "_trip",
          "type": "address"
        },
        {
          "indexed": false,
          "internalType": "uint256",
          "name": "_tripId",
          "type": "uint256"
        },
        {
          "indexed": false,
          "internalType": "uint256",
          "name": "_tickets",
          "type": "uint256"
        },
        {
          "indexed": false,
          "internalType": "address",
          "name": "_buyerAddr",
          "type": "address"
        }
      ],
      "name": "RefundedTickets",
      "type": "event"
    },
    {
      "anonymous": false,
      "inputs": [
        {
          "indexed": false,
          "internalType": "address",
          "name": "votingCarrier",
          "type": "address"
        },
        {
          "indexed": false,
          "internalType": "address",
          "name": "carriers",
          "type": "address"
        }
      ],
      "name": "TransportInitialized",
      "type": "event"
    },
    {
      "anonymous": false,
      "inputs": [
        {
          "indexed": false,
          "internalType": "address",
          "name": "_trip",
          "type": "address"
        },
        {
          "indexed": false,
          "internalType": "uint256",
          "name": "_tripId",
          "type": "uint256"
        },
        {
          "indexed": false,
          "internalType": "string",
          "name": "_eventType",
          "type": "string"
        }
      ],
      "name": "TripEvent",
      "type": "event"
    },
    {
      "constant": false,
      "inputs": [
        {
          "internalType": "uint256",
          "name": "_tripId",
          "type": "uint256"
        },
        {
          "internalType": "uint256",
          "name": "_tickets",
          "type": "uint256"
        },
        {
          "internalType": "address",
          "name": "_buyerAddr",
          "type": "address"
        },
        {
          "internalType": "uint256",
          "name": "_price",
          "type": "uint256"
        },
        {
          "internalType": "uint256",
          "name": "_time",
          "type": "uint256"
        }
      ],
      "name": "emitPurchasedTicket",
      "outputs": [],
      "payable": false,
      "stateMutability": "nonpayable",
      "type": "function"
    },
    {
      "constant": false,
      "inputs": [
        {
          "internalType": "uint256",
          "name": "_tripId",
          "type": "uint256"
        },
        {
          "internalType": "uint256",
          "name": "_tickets",
          "type": "uint256"
        },
        {
          "internalType": "address",
          "name": "_buyerAddr",
          "type": "address"
        }
      ],
      "name": "emitRefundedTickets",
      "outputs": [],
      "payable": false,
      "stateMutability": "nonpayable",
      "type": "function"
    },
    {
      "constant": false,
      "inputs": [
        {
          "internalType": "uint256",
          "name": "_tripId",
          "type": "uint256"
        },
        {
          "internalType": "string",
          "name": "updateType",
          "type": "string"
        }
      ],
      "name": "emitTripUpdateEvent",
      "outputs": [],
      "payable": false,
      "stateMutability": "nonpayable",
      "type": "function"
    },
    {
      "constant": true,
      "inputs": [],
      "name": "floteaIcoAddress",
      "outputs": [
        {
          "internalType": "address",
          "name": "",
          "type": "address"
        }
      ],
      "payable": false,
      "stateMutability": "view",
      "type": "function"
    },
    {
      "constant": true,
      "inputs": [],
      "name": "tokenAddress",
      "outputs": [
        {
          "internalType": "address",
          "name": "",
          "type": "address"
        }
      ],
      "payable": false,
      "stateMutability": "view",
      "type": "function"
    },
    {
      "constant": true,
      "inputs": [
        {
          "internalType": "uint256",
          "name": "",
          "type": "uint256"
        }
      ],
      "name": "trips",
      "outputs": [
        {
          "internalType": "address",
          "name": "addr",
          "type": "address"
        },
        {
          "internalType": "bool",
          "name": "enabled",
          "type": "bool"
        },
        {
          "internalType": "bool",
          "name": "exist",
          "type": "bool"
        }
      ],
      "payable": false,
      "stateMutability": "view",
      "type": "function"
    },
    {
      "constant": true,
      "inputs": [
        {
          "internalType": "address",
          "name": "",
          "type": "address"
        }
      ],
      "name": "tripsId",
      "outputs": [
        {
          "internalType": "uint256",
          "name": "",
          "type": "uint256"
        }
      ],
      "payable": false,
      "stateMutability": "view",
      "type": "function"
    },
    {
      "constant": false,
      "inputs": [],
      "name": "approve",
      "outputs": [],
      "payable": false,
      "stateMutability": "nonpayable",
      "type": "function"
    },
    {
      "constant": true,
      "inputs": [],
      "name": "tripsLength",
      "outputs": [
        {
          "internalType": "uint256",
          "name": "length",
          "type": "uint256"
        }
      ],
      "payable": false,
      "stateMutability": "view",
      "type": "function"
    },
    {
      "constant": true,
      "inputs": [],
      "name": "getCarriers",
      "outputs": [
        {
          "internalType": "contract CarriersInterface",
          "name": "",
          "type": "address"
        }
      ],
      "payable": false,
      "stateMutability": "view",
      "type": "function"
    },
    {
      "constant": false,
      "inputs": [
        {
          "internalType": "bool",
          "name": "_enabled",
          "type": "bool"
        }
      ],
      "name": "setEnabled",
      "outputs": [],
      "payable": false,
      "stateMutability": "nonpayable",
      "type": "function"
    },
    {
      "constant": false,
      "inputs": [
        {
          "internalType": "bool",
          "name": "isNew",
          "type": "bool"
        },
        {
          "internalType": "address",
          "name": "_companyWallet",
          "type": "address"
        },
        {
          "internalType": "bytes32",
          "name": "_company",
          "type": "bytes32"
        },
        {
          "internalType": "bytes32",
          "name": "_web",
          "type": "bytes32"
        },
        {
          "internalType": "uint256",
          "name": "_index",
          "type": "uint256"
        }
      ],
      "name": "emitCarrier",
      "outputs": [],
      "payable": false,
      "stateMutability": "nonpayable",
      "type": "function"
    },
    {
      "constant": false,
      "inputs": [
        {
          "components": [
            {
              "internalType": "bytes10",
              "name": "fromLat",
              "type": "bytes10"
            },
            {
              "internalType": "bytes11",
              "name": "fromLng",
              "type": "bytes11"
            },
            {
              "internalType": "bytes10",
              "name": "toLat",
              "type": "bytes10"
            },
            {
              "internalType": "bytes11",
              "name": "toLng",
              "type": "bytes11"
            }
          ],
          "internalType": "struct Trip.TripLoc",
          "name": "_tripLoc",
          "type": "tuple"
        },
        {
          "internalType": "uint256",
          "name": "_price",
          "type": "uint256"
        },
        {
          "internalType": "bytes[]",
          "name": "_schedule",
          "type": "bytes[]"
        },
        {
          "internalType": "uint16",
          "name": "_places",
          "type": "uint16"
        },
        {
          "internalType": "bytes",
          "name": "_description",
          "type": "bytes"
        },
        {
          "internalType": "enum TransportH.RouteType",
          "name": "_routeType",
          "type": "uint8"
        },
        {
          "internalType": "bool",
          "name": "_enabled",
          "type": "bool"
        }
      ],
      "name": "createTrip",
      "outputs": [],
      "payable": false,
      "stateMutability": "nonpayable",
      "type": "function"
    }
  ],
  "bytecode": "0x60806040523480156200001157600080fd5b506040516200708638038062007086833981810160405262000037919081019062000236565b83600160006101000a81548173ffffffffffffffffffffffffffffffffffffffff021916908373ffffffffffffffffffffffffffffffffffffffff16021790555080600260006101000a81548173ffffffffffffffffffffffffffffffffffffffff021916908373ffffffffffffffffffffffffffffffffffffffff160217905550600083905082600560006101000a81548173ffffffffffffffffffffffffffffffffffffffff021916908373ffffffffffffffffffffffffffffffffffffffff160217905550600560009054906101000a900473ffffffffffffffffffffffffffffffffffffffff1673ffffffffffffffffffffffffffffffffffffffff1663e1c7392a6040518163ffffffff1660e01b8152600401600060405180830381600087803b1580156200016a57600080fd5b505af11580156200017f573d6000803e3d6000fd5b505050508073ffffffffffffffffffffffffffffffffffffffff166319ab453c600560009054906101000a900473ffffffffffffffffffffffffffffffffffffffff166040518263ffffffff1660e01b8152600401620001e09190620002b3565b600060405180830381600087803b158015620001fb57600080fd5b505af115801562000210573d6000803e3d6000fd5b5050505050505050506200031e565b600081519050620002308162000304565b92915050565b600080600080608085870312156200024d57600080fd5b60006200025d878288016200021f565b945050602062000270878288016200021f565b935050604062000283878288016200021f565b925050606062000296878288016200021f565b91505092959194509250565b620002ad81620002d0565b82525050565b6000602082019050620002ca6000830184620002a2565b92915050565b6000620002dd82620002e4565b9050919050565b600073ffffffffffffffffffffffffffffffffffffffff82169050919050565b6200030f81620002d0565b81146200031b57600080fd5b50565b616d58806200032e6000396000f3fe60806040523480156200001157600080fd5b5060043610620000e25760003560e01c80638e91e6111162000099578063cf15dbc4116200006f578063cf15dbc414620001f9578063f6824a7c146200021b578063f69c9ab01462000253578063ffbb6bbb146200027357620000e2565b80638e91e61114620001975780639d76ea5814620001b7578063ca52055e14620001d957620000e2565b80630323d5ce14620000e757806312424e3f14620001095780632dcac6421462000115578063328d8f721462000135578063454a496d1462000155578063806523ba1462000177575b600080fd5b620000f1620002a9565b60405162000100919062001b18565b60405180910390f35b62000113620002d3565b005b6200013360048036036200012d91908101906200149f565b6200038f565b005b6200015360048036036200014d9190810190620011c4565b620004d6565b005b6200015f62000646565b6040516200016e919062001bbf565b60405180910390f35b6200019560048036036200018f9190810190620011f0565b62000653565b005b620001b56004803603620001af9190810190620013ef565b62000779565b005b620001c1620008b7565b604051620001d09190620018e7565b60405180910390f35b620001f76004803603620001f1919081019062001449565b620008dd565b005b6200020362000a1e565b604051620002129190620018e7565b60405180910390f35b620002396004803603620002339190810190620013c3565b62000a44565b6040516200024a9392919062001a1f565b60405180910390f35b6200027160048036036200026b9190810190620012e1565b62000ab2565b005b6200029160048036036200028b919081019062001198565b62000e20565b604051620002a0919062001bbf565b60405180910390f35b6000600560009054906101000a900473ffffffffffffffffffffffffffffffffffffffff16905090565b600160009054906101000a900473ffffffffffffffffffffffffffffffffffffffff1673ffffffffffffffffffffffffffffffffffffffff1663095ea7b3600260009054906101000a900473ffffffffffffffffffffffffffffffffffffffff1664174876e8006040518363ffffffff1660e01b81526004016200035992919062001aa9565b600060405180830381600087803b1580156200037457600080fd5b505af115801562000389573d6000803e3d6000fd5b50505050565b60008060003373ffffffffffffffffffffffffffffffffffffffff1673ffffffffffffffffffffffffffffffffffffffff16815260200190815260200160002054905060008111806200044957503373ffffffffffffffffffffffffffffffffffffffff1660046000815481106200040357fe5b9060005260206000200160000160009054906101000a900473ffffffffffffffffffffffffffffffffffffffff1673ffffffffffffffffffffffffffffffffffffffff16145b6200048b576040517f08c379a0000000000000000000000000000000000000000000000000000000008152600401620004829062001b9d565b60405180910390fd5b7f08cdff2d5568fedc99785db826cc06fdaa0e53e1fd32271717d8dd1ee73dd500338787878787604051620004c696959493929190620019b2565b60405180910390a1505050505050565b60006004805490501180156200059057503373ffffffffffffffffffffffffffffffffffffffff1660046000803373ffffffffffffffffffffffffffffffffffffffff1673ffffffffffffffffffffffffffffffffffffffff16815260200190815260200160002054815481106200054a57fe5b9060005260206000200160000160009054906101000a900473ffffffffffffffffffffffffffffffffffffffff1673ffffffffffffffffffffffffffffffffffffffff16145b620005d2576040517f08c379a0000000000000000000000000000000000000000000000000000000008152600401620005c99062001b7b565b60405180910390fd5b8060046000803373ffffffffffffffffffffffffffffffffffffffff1673ffffffffffffffffffffffffffffffffffffffff16815260200190815260200160002054815481106200061f57fe5b9060005260206000200160000160146101000a81548160ff02191690831515021790555050565b6000600480549050905090565b3373ffffffffffffffffffffffffffffffffffffffff16600560009054906101000a900473ffffffffffffffffffffffffffffffffffffffff1673ffffffffffffffffffffffffffffffffffffffff1614620006e6576040517f08c379a0000000000000000000000000000000000000000000000000000000008152600401620006dd9062001b59565b60405180910390fd5b841562000732577f7da3acbab78e2cfa0aac005e5b53955fce84566e521fa040c614279d2593d9a68484848460405162000724949392919062001a5c565b60405180910390a162000772565b7fb8a1ffc97098af18c5712ef62fd620b94caefb188f07e05ca8d268fdcfb8450e8484848460405162000769949392919062001a5c565b60405180910390a15b5050505050565b60008060003373ffffffffffffffffffffffffffffffffffffffff1673ffffffffffffffffffffffffffffffffffffffff16815260200190815260200160002054905060008111806200083357503373ffffffffffffffffffffffffffffffffffffffff166004600081548110620007ed57fe5b9060005260206000200160000160009054906101000a900473ffffffffffffffffffffffffffffffffffffffff1673ffffffffffffffffffffffffffffffffffffffff16145b62000875576040517f08c379a00000000000000000000000000000000000000000000000000000000081526004016200086c9062001b9d565b60405180910390fd5b7fac79b139c3a0deca65a4720eeaa2fa0375948035a7d6706026a955e46fbd0b12338484604051620008aa9392919062001921565b60405180910390a1505050565b600160009054906101000a900473ffffffffffffffffffffffffffffffffffffffff1681565b60008060003373ffffffffffffffffffffffffffffffffffffffff1673ffffffffffffffffffffffffffffffffffffffff16815260200190815260200160002054905060008111806200099757503373ffffffffffffffffffffffffffffffffffffffff1660046000815481106200095157fe5b9060005260206000200160000160009054906101000a900473ffffffffffffffffffffffffffffffffffffffff1673ffffffffffffffffffffffffffffffffffffffff16145b620009d9576040517f08c379a0000000000000000000000000000000000000000000000000000000008152600401620009d09062001b9d565b60405180910390fd5b7fbdba177396c026c66d2b007b8933626fa8f5cd439af0ab1e5be8c37f509e753c3385858560405162000a10949392919062001965565b60405180910390a150505050565b600260009054906101000a900473ffffffffffffffffffffffffffffffffffffffff1681565b6004818154811062000a5257fe5b906000526020600020016000915090508060000160009054906101000a900473ffffffffffffffffffffffffffffffffffffffff16908060000160149054906101000a900460ff16908060000160159054906101000a900460ff16905083565b600060606000600560009054906101000a900473ffffffffffffffffffffffffffffffffffffffff1673ffffffffffffffffffffffffffffffffffffffff16637f2f3fc5336040518263ffffffff1660e01b815260040162000b15919062001904565b60006040518083038186803b15801562000b2e57600080fd5b505afa15801562000b43573d6000803e3d6000fd5b505050506040513d6000823e3d601f19601f8201168201806040525062000b6e919081019062001272565b9250925092508215829062000bbb576040517f08c379a000000000000000000000000000000000000000000000000000000000815260040162000bb2919062001b35565b60405180910390fd5b506000816004805490508c8c8c8c8c8c8c60405162000bda9062000e38565b62000bee9998979695949392919062001c09565b604051809103906000f08015801562000c0b573d6000803e3d6000fd5b509050600560009054906101000a900473ffffffffffffffffffffffffffffffffffffffff1673ffffffffffffffffffffffffffffffffffffffff166371f9251483836040518363ffffffff1660e01b815260040162000c6d92919062001bdc565b600060405180830381600087803b15801562000c8857600080fd5b505af115801562000c9d573d6000803e3d6000fd5b505050506004805490506000808373ffffffffffffffffffffffffffffffffffffffff1673ffffffffffffffffffffffffffffffffffffffff168152602001908152602001600020819055507fac79b139c3a0deca65a4720eeaa2fa0375948035a7d6706026a955e46fbd0b128160048054905060405162000d2192919062001ad6565b60405180910390a1600460405180606001604052808373ffffffffffffffffffffffffffffffffffffffff1681526020016001151581526020016001151581525090806001815401808255809150509060018203906000526020600020016000909192909190915060008201518160000160006101000a81548173ffffffffffffffffffffffffffffffffffffffff021916908373ffffffffffffffffffffffffffffffffffffffff16021790555060208201518160000160146101000a81548160ff02191690831515021790555060408201518160000160156101000a81548160ff0219169083151502179055505050505050505050505050505050565b60006020528060005260406000206000915090505481565b614c6b80620020ab83390190565b60008135905062000e578162001fe3565b92915050565b600082601f83011262000e6f57600080fd5b813562000e8662000e808262001ce7565b62001cb9565b9150818183526020840193506020810190508360005b8381101562000ed0578135860162000eb5888262000f4d565b84526020840193506020830192505060018101905062000e9c565b5050505092915050565b60008135905062000eeb8162001ffd565b92915050565b60008151905062000f028162001ffd565b92915050565b60008135905062000f198162002017565b92915050565b60008135905062000f308162002031565b92915050565b60008135905062000f47816200204b565b92915050565b600082601f83011262000f5f57600080fd5b813562000f7662000f708262001d10565b62001cb9565b9150808252602083016020830185838301111562000f9357600080fd5b62000fa083828462001f7f565b50505092915050565b600082601f83011262000fbb57600080fd5b813562000fd262000fcc8262001d3d565b62001cb9565b9150808252602083016020830185838301111562000fef57600080fd5b62000ffc83828462001f7f565b50505092915050565b600081359050620010168162002065565b92915050565b600082601f8301126200102e57600080fd5b8135620010456200103f8262001d6a565b62001cb9565b915080825260208301602083018583830111156200106257600080fd5b6200106f83828462001f7f565b50505092915050565b600082601f8301126200108a57600080fd5b8151620010a16200109b8262001d6a565b62001cb9565b91508082526020830160208301858383011115620010be57600080fd5b620010cb83828462001f8e565b50505092915050565b600060808284031215620010e757600080fd5b620010f3608062001cb9565b90506000620011058482850162000f08565b60008301525060206200111b8482850162000f1f565b6020830152506040620011318482850162000f08565b6040830152506060620011478482850162000f1f565b60608301525092915050565b600081359050620011648162002076565b92915050565b6000813590506200117b8162002090565b92915050565b600081519050620011928162002090565b92915050565b600060208284031215620011ab57600080fd5b6000620011bb8482850162000e46565b91505092915050565b600060208284031215620011d757600080fd5b6000620011e78482850162000eda565b91505092915050565b600080600080600060a086880312156200120957600080fd5b6000620012198882890162000eda565b95505060206200122c8882890162000e46565b94505060406200123f8882890162000f36565b9350506060620012528882890162000f36565b925050608062001265888289016200116a565b9150509295509295909350565b6000806000606084860312156200128857600080fd5b6000620012988682870162000ef1565b935050602084015167ffffffffffffffff811115620012b657600080fd5b620012c48682870162001078565b9250506040620012d78682870162001181565b9150509250925092565b6000806000806000806000610140888a031215620012fe57600080fd5b60006200130e8a828b01620010d4565b9750506080620013218a828b016200116a565b96505060a088013567ffffffffffffffff8111156200133f57600080fd5b6200134d8a828b0162000e5d565b95505060c0620013608a828b0162001153565b94505060e088013567ffffffffffffffff8111156200137e57600080fd5b6200138c8a828b0162000fa9565b935050610100620013a08a828b0162001005565b925050610120620013b48a828b0162000eda565b91505092959891949750929550565b600060208284031215620013d657600080fd5b6000620013e6848285016200116a565b91505092915050565b600080604083850312156200140357600080fd5b600062001413858286016200116a565b925050602083013567ffffffffffffffff8111156200143157600080fd5b6200143f858286016200101c565b9150509250929050565b6000806000606084860312156200145f57600080fd5b60006200146f868287016200116a565b935050602062001482868287016200116a565b9250506040620014958682870162000e46565b9150509250925092565b600080600080600060a08688031215620014b857600080fd5b6000620014c8888289016200116a565b9550506020620014db888289016200116a565b9450506040620014ee8882890162000e46565b935050606062001501888289016200116a565b925050608062001514888289016200116a565b9150509295509295909350565b60006200152f83836200165f565b905092915050565b620015428162001ef3565b82525050565b620015538162001e24565b82525050565b6000620015668262001da7565b62001572818562001de0565b935083602082028501620015868562001d97565b8060005b85811015620015c85784840389528151620015a6858262001521565b9450620015b38362001dd3565b925060208a019950506001810190506200158a565b50829750879550505050505092915050565b620015e58162001e38565b82525050565b620015f68162001e44565b82525050565b620016078162001e70565b82525050565b620016188162001e9c565b82525050565b60006200162b8262001dbd565b62001637818562001e02565b93506200164981856020860162001f8e565b620016548162001fc4565b840191505092915050565b60006200166c8262001db2565b62001678818562001df1565b93506200168a81856020860162001f8e565b620016958162001fc4565b840191505092915050565b620016ab8162001f07565b82525050565b620016bc8162001f2f565b82525050565b620016cd8162001f43565b82525050565b6000620016e08262001dc8565b620016ec818562001e13565b9350620016fe81856020860162001f8e565b620017098162001fc4565b840191505092915050565b600062001723602b8362001e13565b91507f4f6e6c7920636f6e74726163742043617272696572732063616e2063616c6c2060008301527f74686973206d6574686f640000000000000000000000000000000000000000006020830152604082019050919050565b60006200178b60278362001e13565b91507f4f6e6c7920636f6e747261637420547269702063616e2063616c6c207468697360008301527f206d6574686f64000000000000000000000000000000000000000000000000006020830152604082019050919050565b6000620017f360038362001e13565b91507f6e657700000000000000000000000000000000000000000000000000000000006000830152602082019050919050565b600062001835600e8362001e13565b91507f54726970206e6f742065786973740000000000000000000000000000000000006000830152602082019050919050565b608082016000820151620018806000850182620015eb565b506020820151620018956020850182620015fc565b506040820151620018aa6040850182620015eb565b506060820151620018bf6060850182620015fc565b50505050565b620018d08162001ebb565b82525050565b620018e18162001ee9565b82525050565b6000602082019050620018fe600083018462001548565b92915050565b60006020820190506200191b600083018462001537565b92915050565b600060608201905062001938600083018662001537565b620019476020830185620018d6565b81810360408301526200195b8184620016d3565b9050949350505050565b60006080820190506200197c600083018762001537565b6200198b6020830186620018d6565b6200199a6040830185620018d6565b620019a9606083018462001548565b95945050505050565b600060c082019050620019c9600083018962001537565b620019d86020830188620018d6565b620019e76040830187620018d6565b620019f6606083018662001548565b62001a056080830185620018d6565b62001a1460a0830184620018d6565b979650505050505050565b600060608201905062001a36600083018662001548565b62001a456020830185620015da565b62001a546040830184620015da565b949350505050565b600060808201905062001a73600083018762001548565b62001a8260208301866200160d565b62001a9160408301856200160d565b62001aa06060830184620018d6565b95945050505050565b600060408201905062001ac0600083018562001548565b62001acf6020830184620016c2565b9392505050565b600060608201905062001aed600083018562001548565b62001afc6020830184620018d6565b818103604083015262001b0f81620017e4565b90509392505050565b600060208201905062001b2f6000830184620016a0565b92915050565b6000602082019050818103600083015262001b518184620016d3565b905092915050565b6000602082019050818103600083015262001b748162001714565b9050919050565b6000602082019050818103600083015262001b96816200177c565b9050919050565b6000602082019050818103600083015262001bb88162001826565b9050919050565b600060208201905062001bd66000830184620018d6565b92915050565b600060408201905062001bf36000830185620018d6565b62001c02602083018462001548565b9392505050565b60006101808201905062001c21600083018c620018d6565b62001c30602083018b620018d6565b62001c3f604083018a62001868565b62001c4e60c0830189620018d6565b81810360e083015262001c62818862001559565b905062001c74610100830187620018c5565b81810361012083015262001c8981866200161e565b905062001c9b610140830185620016b1565b62001cab610160830184620015da565b9a9950505050505050505050565b6000604051905081810181811067ffffffffffffffff8211171562001cdd57600080fd5b8060405250919050565b600067ffffffffffffffff82111562001cff57600080fd5b602082029050602081019050919050565b600067ffffffffffffffff82111562001d2857600080fd5b601f19601f8301169050602081019050919050565b600067ffffffffffffffff82111562001d5557600080fd5b601f19601f8301169050602081019050919050565b600067ffffffffffffffff82111562001d8257600080fd5b601f19601f8301169050602081019050919050565b6000819050602082019050919050565b600081519050919050565b600081519050919050565b600081519050919050565b600081519050919050565b6000602082019050919050565b600082825260208201905092915050565b600082825260208201905092915050565b600082825260208201905092915050565b600082825260208201905092915050565b600062001e318262001ec9565b9050919050565b60008115159050919050565b60007fffffffffffffffffffff0000000000000000000000000000000000000000000082169050919050565b60007fffffffffffffffffffffff00000000000000000000000000000000000000000082169050919050565b6000819050919050565b600081905062001eb68262001fd5565b919050565b600061ffff82169050919050565b600073ffffffffffffffffffffffffffffffffffffffff82169050919050565b6000819050919050565b600062001f008262001f57565b9050919050565b600062001f148262001f1b565b9050919050565b600062001f288262001ec9565b9050919050565b600062001f3c8262001ea6565b9050919050565b600062001f508262001ee9565b9050919050565b600062001f648262001f6b565b9050919050565b600062001f788262001ec9565b9050919050565b82818337600083830152505050565b60005b8381101562001fae57808201518184015260208101905062001f91565b8381111562001fbe576000848401525b50505050565b6000601f19601f8301169050919050565b6082811062001fe057fe5b50565b62001fee8162001e24565b811462001ffa57600080fd5b50565b620020088162001e38565b81146200201457600080fd5b50565b620020228162001e44565b81146200202e57600080fd5b50565b6200203c8162001e70565b81146200204857600080fd5b50565b620020568162001e9c565b81146200206257600080fd5b50565b608281106200207357600080fd5b50565b620020818162001ebb565b81146200208d57600080fd5b50565b6200209b8162001ee9565b8114620020a757600080fd5b5056fe60806040523480156200001157600080fd5b5060405162004c6b38038062004c6b833981810160405262000037919081019062000798565b336000806101000a81548173ffffffffffffffffffffffffffffffffffffffff021916908373ffffffffffffffffffffffffffffffffffffffff16021790555033600260006101000a81548173ffffffffffffffffffffffffffffffffffffffff021916908373ffffffffffffffffffffffffffffffffffffffff160217905550600260009054906101000a900473ffffffffffffffffffffffffffffffffffffffff1673ffffffffffffffffffffffffffffffffffffffff16639d76ea586040518163ffffffff1660e01b815260040160206040518083038186803b1580156200012157600080fd5b505afa15801562000136573d6000803e3d6000fd5b505050506040513d601f19601f820116820180604052506200015c91908101906200076c565b600160006101000a81548173ffffffffffffffffffffffffffffffffffffffff021916908373ffffffffffffffffffffffffffffffffffffffff160217905550886003819055508760048190555086600560008201518160000160006101000a81548169ffffffffffffffffffff021916908360b01c0217905550602082015181600001600a6101000a8154816affffffffffffffffffffff021916908360a81c021790555060408201518160000160156101000a81548169ffffffffffffffffffff021916908360b01c021790555060608201518160010160006101000a8154816affffffffffffffffffffff021916908360a81c021790555090505085600781905550846008908051906020019062000279929190620002fd565b5083600960006101000a81548161ffff021916908361ffff16021790555082600a9080519060200190620002af92919062000364565b5081600b60006101000a81548160ff02191690836081811115620002cf57fe5b021790555080600b60016101000a81548160ff02191690831515021790555050505050505050505062000aea565b82805482825590600052602060002090810192821562000351579160200282015b82811115620003505782518290805190602001906200033f929190620003eb565b50916020019190600101906200031e565b5b50905062000360919062000472565b5090565b828054600181600116156101000203166002900490600052602060002090601f016020900481019282601f10620003a757805160ff1916838001178555620003d8565b82800160010185558215620003d8579182015b82811115620003d7578251825591602001919060010190620003ba565b5b509050620003e79190620004a3565b5090565b828054600181600116156101000203166002900490600052602060002090601f016020900481019282601f106200042e57805160ff19168380011785556200045f565b828001600101855582156200045f579182015b828111156200045e57825182559160200191906001019062000441565b5b5090506200046e9190620004a3565b5090565b620004a091905b808211156200049c5760008181620004929190620004cb565b5060010162000479565b5090565b90565b620004c891905b80821115620004c4576000816000905550600101620004aa565b5090565b90565b50805460018160011615610100020316600290046000825580601f10620004f3575062000514565b601f016020900490600052602060002090810190620005139190620004a3565b5b50565b600081519050620005288162000a3d565b92915050565b600082601f8301126200054057600080fd5b8151620005576200055182620008d4565b620008a6565b9150818183526020840193506020810190508360005b83811015620005a15781518601620005868882620005f0565b8452602084019350602083019250506001810190506200056d565b5050505092915050565b600081519050620005bc8162000a57565b92915050565b600081519050620005d38162000a71565b92915050565b600081519050620005ea8162000a8b565b92915050565b600082601f8301126200060257600080fd5b8151620006196200061382620008fd565b620008a6565b915080825260208301602083018583830111156200063657600080fd5b6200064383828462000a07565b50505092915050565b600082601f8301126200065e57600080fd5b8151620006756200066f826200092a565b620008a6565b915080825260208301602083018583830111156200069257600080fd5b6200069f83828462000a07565b50505092915050565b600081519050620006b98162000aa5565b92915050565b600060808284031215620006d257600080fd5b620006de6080620008a6565b90506000620006f084828501620005c2565b60008301525060206200070684828501620005d9565b60208301525060406200071c84828501620005c2565b60408301525060606200073284828501620005d9565b60608301525092915050565b6000815190506200074f8162000ab6565b92915050565b600081519050620007668162000ad0565b92915050565b6000602082840312156200077f57600080fd5b60006200078f8482850162000517565b91505092915050565b60008060008060008060008060006101808a8c031215620007b857600080fd5b6000620007c88c828d0162000755565b9950506020620007db8c828d0162000755565b9850506040620007ee8c828d01620006bf565b97505060c0620008018c828d0162000755565b96505060e08a015167ffffffffffffffff8111156200081f57600080fd5b6200082d8c828d016200052e565b955050610100620008418c828d016200073e565b9450506101208a015167ffffffffffffffff8111156200086057600080fd5b6200086e8c828d016200064c565b935050610140620008828c828d01620006a8565b925050610160620008968c828d01620005ab565b9150509295985092959850929598565b6000604051905081810181811067ffffffffffffffff82111715620008ca57600080fd5b8060405250919050565b600067ffffffffffffffff821115620008ec57600080fd5b602082029050602081019050919050565b600067ffffffffffffffff8211156200091557600080fd5b601f19601f8301169050602081019050919050565b600067ffffffffffffffff8211156200094257600080fd5b601f19601f8301169050602081019050919050565b60006200096482620009dd565b9050919050565b60008115159050919050565b60007fffffffffffffffffffff0000000000000000000000000000000000000000000082169050919050565b60007fffffffffffffffffffffff00000000000000000000000000000000000000000082169050919050565b600061ffff82169050919050565b600073ffffffffffffffffffffffffffffffffffffffff82169050919050565b6000819050919050565b60005b8381101562000a2757808201518184015260208101905062000a0a565b8381111562000a37576000848401525b50505050565b62000a488162000957565b811462000a5457600080fd5b50565b62000a62816200096b565b811462000a6e57600080fd5b50565b62000a7c8162000977565b811462000a8857600080fd5b50565b62000a9681620009a3565b811462000aa257600080fd5b50565b6082811062000ab357600080fd5b50565b62000ac181620009cf565b811462000acd57600080fd5b50565b62000adb81620009fd565b811462000ae757600080fd5b50565b6141718062000afa6000396000f3fe608060405234801561001057600080fd5b50600436106100f55760003560e01c80634ed0262211610097578063c0ee0b8a11610066578063c0ee0b8a1461026c578063f1d5659e14610288578063f2fde38b146102a6578063fc6bd76a146102c2576100f5565b80634ed02622146101f55780638da5cb5b14610214578063abc14e6114610232578063b1ab1f5014610250576100f5565b806321a88559116100d357806321a8855914610178578063328d8f7214610196578063370158ea146101b257806344a482c8146101d9576100f5565b8063102b9b26146100fa57806314f2979f1461012b57806318fd89031461015c575b600080fd5b610114600480360361010f9190810190613339565b6102de565b604051610122929190613abd565b60405180910390f35b610145600480360361014091908101906132e7565b610603565b604051610153929190613bad565b60405180910390f35b61017660048036036101719190810190613175565b61069d565b005b610180610b94565b60405161018d9190613bdd565b60405180910390f35b6101b060048036036101ab91908101906131c4565b610b9e565b005b6101ba610e38565b6040516101d09a999897969594939291906139be565b60405180910390f35b6101f360048036036101ee919081019061323f565b6112aa565b005b6101fd611658565b60405161020b929190613a6b565b60405180910390f35b61021c6117e7565b6040516102299190613943565b60405180910390f35b61023a61180c565b604051610247919061390d565b60405180910390f35b61026a60048036036102659190810190613216565b61193d565b005b6102866004803603610281919081019061310e565b611b53565b005b610290612078565b60405161029d9190613bdd565b60405180910390f35b6102c060048036036102bb91908101906130bc565b612082565b005b6102dc60048036036102d79190810190613093565b612158565b005b6000606083600160009054906101000a900473ffffffffffffffffffffffffffffffffffffffff1673ffffffffffffffffffffffffffffffffffffffff166370a08231336040518263ffffffff1660e01b815260040161033e9190613928565b60206040518083038186803b15801561035657600080fd5b505afa15801561036a573d6000803e3d6000fd5b505050506040513d601f19601f8201168201806040525061038e9190810190613310565b10156103b857600160405180606001604052806021815260200161410e60219139915091506105fc565b600b60019054906101000a900460ff1661040d5760016040518060400160405280601081526020017f547269702069732064697361626c656400000000000000000000000000000000815250915091506105fc565b60008061041985612965565b50915091508160075402861461046c5760016040518060400160405280600b81526020017f57726f6e672070726963650000000000000000000000000000000000000000008152509350935050506105fc565b4281116104b65760016040518060400160405280601d81526020017f546865207472697020617420746869732074696d65206973206f7665720000008152509350935050506105fc565b6104be612b7b565b600d60008381526020019081526020016000206040518060400160405290816000820160009054906101000a900461ffff1661ffff1661ffff1681526020016001820180548060200260200160405190810160405280929190818152602001828054801561054b57602002820191906000526020600020905b815481526020019060010190808311610537575b5050505050815250509050828160000151600960009054906101000a900461ffff160361ffff1610156105bc5760016040518060400160405280601281526020017f4e6f7420656e6f756768207469636b6574730000000000000000000000000000815250945094505050506105fc565b60006040518060400160405280600281526020017f6f6b000000000000000000000000000000000000000000000000000000000000815250945094505050505b9250929050565b60006060600d600084815260200190815260200160002060000160009054906101000a900461ffff16600d60008581526020019081526020016000206001018080548060200260200160405190810160405280929190818152602001828054801561068d57602002820191906000526020600020905b815481526020019060010190808311610679575b5050505050905091509150915091565b600260009054906101000a900473ffffffffffffffffffffffffffffffffffffffff1673ffffffffffffffffffffffffffffffffffffffff16630323d5ce6040518163ffffffff1660e01b815260040160206040518083038186803b15801561070557600080fd5b505afa158015610719573d6000803e3d6000fd5b505050506040513d601f19601f8201168201806040525061073d91908101906131ed565b73ffffffffffffffffffffffffffffffffffffffff1663ae4d72e06003546040518263ffffffff1660e01b81526004016107779190613bdd565b60206040518083038186803b15801561078f57600080fd5b505afa1580156107a3573d6000803e3d6000fd5b505050506040513d601f19601f820116820180604052506107c791908101906130e5565b73ffffffffffffffffffffffffffffffffffffffff163373ffffffffffffffffffffffffffffffffffffffff16146107fe57600080fd5b600080905061080b612b7b565b600d60008581526020019081526020016000206040518060400160405290816000820160009054906101000a900461ffff1661ffff1661ffff1681526020016001820180548060200260200160405190810160405280929190818152602001828054801561089857602002820191906000526020600020905b815481526020019060010190808311610884575b505050505081525050905060008090505b808260200151511115610a14578573ffffffffffffffffffffffffffffffffffffffff16600c836020015183815181106108df57fe5b6020026020010151815481106108f157fe5b906000526020600020906004020160000160009054906101000a900473ffffffffffffffffffffffffffffffffffffffff1673ffffffffffffffffffffffffffffffffffffffff161480156109865750600c8260200151828151811061095357fe5b60200260200101518154811061096557fe5b906000526020600020906004020160030160019054906101000a900460ff16155b80156109925750838311155b15610a075782806001019350506001600c836020015183815181106109b357fe5b6020026020010151815481106109c557fe5b906000526020600020906004020160030160016101000a81548160ff0219169083151502179055508160000180518091906001900361ffff1661ffff16815250505b80806001019150506108a9565b506000821115610b4b57600260009054906101000a900473ffffffffffffffffffffffffffffffffffffffff1673ffffffffffffffffffffffffffffffffffffffff1663ca52055e60045484886040518463ffffffff1660e01b8152600401610a7f93929190613c82565b600060405180830381600087803b158015610a9957600080fd5b505af1158015610aad573d6000803e3d6000fd5b50505050600160009054906101000a900473ffffffffffffffffffffffffffffffffffffffff1673ffffffffffffffffffffffffffffffffffffffff1663a9059cbb8684600754026040518363ffffffff1660e01b8152600401610b1292919061395e565b600060405180830381600087803b158015610b2c57600080fd5b505af1158015610b40573d6000803e3d6000fd5b505050505050610b8f565b6000610b8c576040517f08c379a0000000000000000000000000000000000000000000000000000000008152600401610b8390613b4d565b60405180910390fd5b50505b505050565b6000600354905090565b600260009054906101000a900473ffffffffffffffffffffffffffffffffffffffff1673ffffffffffffffffffffffffffffffffffffffff16630323d5ce6040518163ffffffff1660e01b815260040160206040518083038186803b158015610c0657600080fd5b505afa158015610c1a573d6000803e3d6000fd5b505050506040513d601f19601f82011682018060405250610c3e91908101906131ed565b73ffffffffffffffffffffffffffffffffffffffff1663ae4d72e06003546040518263ffffffff1660e01b8152600401610c789190613bdd565b60206040518083038186803b158015610c9057600080fd5b505afa158015610ca4573d6000803e3d6000fd5b505050506040513d601f19601f82011682018060405250610cc891908101906130e5565b73ffffffffffffffffffffffffffffffffffffffff163373ffffffffffffffffffffffffffffffffffffffff1614610cff57600080fd5b80600b60016101000a81548160ff021916908315150217905550600260009054906101000a900473ffffffffffffffffffffffffffffffffffffffff1673ffffffffffffffffffffffffffffffffffffffff1663328d8f72826040518263ffffffff1660e01b8152600401610d749190613aa2565b600060405180830381600087803b158015610d8e57600080fd5b505af1158015610da2573d6000803e3d6000fd5b50505050600260009054906101000a900473ffffffffffffffffffffffffffffffffffffffff1673ffffffffffffffffffffffffffffffffffffffff16638e91e6116004546040518263ffffffff1660e01b8152600401610e039190613bf8565b600060405180830381600087803b158015610e1d57600080fd5b505af1158015610e31573d6000803e3d6000fd5b5050505050565b600080610e43612b99565b60006060600060606000806000600260009054906101000a900473ffffffffffffffffffffffffffffffffffffffff1673ffffffffffffffffffffffffffffffffffffffff16630323d5ce6040518163ffffffff1660e01b815260040160206040518083038186803b158015610eb857600080fd5b505afa158015610ecc573d6000803e3d6000fd5b505050506040513d601f19601f82011682018060405250610ef091908101906131ed565b73ffffffffffffffffffffffffffffffffffffffff1663ae4d72e06003546040518263ffffffff1660e01b8152600401610f2a9190613bdd565b60206040518083038186803b158015610f4257600080fd5b505afa158015610f56573d6000803e3d6000fd5b505050506040513d601f19601f82011682018060405250610f7a91908101906130e5565b60035460056007546008600960009054906101000a900461ffff16600a600b60019054906101000a900460ff16600160009054906101000a900473ffffffffffffffffffffffffffffffffffffffff16600b60009054906101000a900460ff16899950876040518060800160405290816000820160009054906101000a900460b01b75ffffffffffffffffffffffffffffffffffffffffffff191675ffffffffffffffffffffffffffffffffffffffffffff1916815260200160008201600a9054906101000a900460a81b74ffffffffffffffffffffffffffffffffffffffffff191674ffffffffffffffffffffffffffffffffffffffffff191681526020016000820160159054906101000a900460b01b75ffffffffffffffffffffffffffffffffffffffffffff191675ffffffffffffffffffffffffffffffffffffffffffff191681526020016001820160009054906101000a900460a81b74ffffffffffffffffffffffffffffffffffffffffff191674ffffffffffffffffffffffffffffffffffffffffff191681525050975085805480602002602001604051908101604052809291908181526020016000905b828210156111e8578382906000526020600020018054600181600116156101000203166002900480601f0160208091040260200160405190810160405280929190818152602001828054600181600116156101000203166002900480156111d45780601f106111a9576101008083540402835291602001916111d4565b820191906000526020600020905b8154815290600101906020018083116111b757829003601f168201915b50505050508152602001906001019061112c565b505050509550838054600181600116156101000203166002900480601f0160208091040260200160405190810160405280929190818152602001828054600181600116156101000203166002900480156112835780601f1061125857610100808354040283529160200191611283565b820191906000526020600020905b81548152906001019060200180831161126657829003601f168201915b50505050509350995099509950995099509950995099509950995090919293949596979899565b600260009054906101000a900473ffffffffffffffffffffffffffffffffffffffff1673ffffffffffffffffffffffffffffffffffffffff16630323d5ce6040518163ffffffff1660e01b815260040160206040518083038186803b15801561131257600080fd5b505afa158015611326573d6000803e3d6000fd5b505050506040513d601f19601f8201168201806040525061134a91908101906131ed565b73ffffffffffffffffffffffffffffffffffffffff1663ae4d72e06003546040518263ffffffff1660e01b81526004016113849190613bdd565b60206040518083038186803b15801561139c57600080fd5b505afa1580156113b0573d6000803e3d6000fd5b505050506040513d601f19601f820116820180604052506113d491908101906130e5565b73ffffffffffffffffffffffffffffffffffffffff163373ffffffffffffffffffffffffffffffffffffffff161461140b57600080fd5b84600560008201518160000160006101000a81548169ffffffffffffffffffff021916908360b01c0217905550602082015181600001600a6101000a8154816affffffffffffffffffffff021916908360a81c021790555060408201518160000160156101000a81548169ffffffffffffffffffff021916908360b01c021790555060608201518160010160006101000a8154816affffffffffffffffffffff021916908360a81c0217905550905050600084146114cb57836007819055505b600060f81b836000815181106114dd57fe5b60200260200101516000815181106114f157fe5b602001015160f81c60f81b7effffffffffffffffffffffffffffffffffffffffffffffffffffffffffffff19161461153b578260089080519060200190611539929190612c23565b505b60008261ffff1611156115665781600960006101000a81548161ffff021916908361ffff1602179055505b600060f81b8160008151811061157857fe5b602001015160f81c60f81b7effffffffffffffffffffffffffffffffffffffffffffffffffffffffffffff1916146115c25780600a90805190602001906115c0929190612c83565b505b600260009054906101000a900473ffffffffffffffffffffffffffffffffffffffff1673ffffffffffffffffffffffffffffffffffffffff16638e91e6116004546040518263ffffffff1660e01b815260040161161f9190613c26565b600060405180830381600087803b15801561163957600080fd5b505af115801561164d573d6000803e3d6000fd5b505050505050505050565b6060806060600c805490506040519080825280602002602001820160405280156116915781602001602082028038833980820191505090505b5090506060600c805490506040519080825280602002602001820160405280156116ca5781602001602082028038833980820191505090505b50905060008090505b80600c8054905011156117da57600c81815481106116ed57fe5b906000526020600020906004020160030160019054906101000a900460ff166117cd57600c818154811061171d57fe5b906000526020600020906004020160000160009054906101000a900473ffffffffffffffffffffffffffffffffffffffff1683828151811061175b57fe5b602002602001019073ffffffffffffffffffffffffffffffffffffffff16908173ffffffffffffffffffffffffffffffffffffffff1681525050600c81815481106117a257fe5b9060005260206000209060040201600201548282815181106117c057fe5b6020026020010181815250505b80806001019150506116d3565b5081819350935050509091565b6000809054906101000a900473ffffffffffffffffffffffffffffffffffffffff1681565b6000600260009054906101000a900473ffffffffffffffffffffffffffffffffffffffff1673ffffffffffffffffffffffffffffffffffffffff16630323d5ce6040518163ffffffff1660e01b815260040160206040518083038186803b15801561187657600080fd5b505afa15801561188a573d6000803e3d6000fd5b505050506040513d601f19601f820116820180604052506118ae91908101906131ed565b73ffffffffffffffffffffffffffffffffffffffff1663ae4d72e06003546040518263ffffffff1660e01b81526004016118e89190613bdd565b60206040518083038186803b15801561190057600080fd5b505afa158015611914573d6000803e3d6000fd5b505050506040513d601f19601f8201168201806040525061193891908101906130e5565b905090565b600260009054906101000a900473ffffffffffffffffffffffffffffffffffffffff1673ffffffffffffffffffffffffffffffffffffffff16630323d5ce6040518163ffffffff1660e01b815260040160206040518083038186803b1580156119a557600080fd5b505afa1580156119b9573d6000803e3d6000fd5b505050506040513d601f19601f820116820180604052506119dd91908101906131ed565b73ffffffffffffffffffffffffffffffffffffffff1663ae4d72e06003546040518263ffffffff1660e01b8152600401611a179190613bdd565b60206040518083038186803b158015611a2f57600080fd5b505afa158015611a43573d6000803e3d6000fd5b505050506040513d601f19601f82011682018060405250611a6791908101906130e5565b73ffffffffffffffffffffffffffffffffffffffff163373ffffffffffffffffffffffffffffffffffffffff1614611a9e57600080fd5b80600b60006101000a81548160ff02191690836081811115611abc57fe5b0217905550600260009054906101000a900473ffffffffffffffffffffffffffffffffffffffff1673ffffffffffffffffffffffffffffffffffffffff16638e91e6116004546040518263ffffffff1660e01b8152600401611b1e9190613c54565b600060405180830381600087803b158015611b3857600080fd5b505af1158015611b4c573d6000803e3d6000fd5b5050505050565b600160009054906101000a900473ffffffffffffffffffffffffffffffffffffffff1673ffffffffffffffffffffffffffffffffffffffff163373ffffffffffffffffffffffffffffffffffffffff1614611be3576040517f08c379a0000000000000000000000000000000000000000000000000000000008152600401611bda90613b0d565b60405180910390fd5b600b60019054906101000a900460ff16611c32576040517f08c379a0000000000000000000000000000000000000000000000000000000008152600401611c2990613b6d565b60405180910390fd5b6000806000611c4084612965565b92509250925082600754028514611c8c576040517f08c379a0000000000000000000000000000000000000000000000000000000008152600401611c8390613b8d565b60405180910390fd5b428211611cce576040517f08c379a0000000000000000000000000000000000000000000000000000000008152600401611cc590613aed565b60405180910390fd5b611cd6612b7b565b600d60008481526020019081526020016000206040518060400160405290816000820160009054906101000a900461ffff1661ffff1661ffff16815260200160018201805480602002602001604051908101604052809291908181526020018280548015611d6357602002820191906000526020600020905b815481526020019060010190808311611d4f575b5050505050815250509050838160000151600960009054906101000a900461ffff160361ffff161015611dcb576040517f08c379a0000000000000000000000000000000000000000000000000000000008152600401611dc290613b2d565b60405180910390fd5b600260009054906101000a900473ffffffffffffffffffffffffffffffffffffffff1673ffffffffffffffffffffffffffffffffffffffff16632dcac642600454868a600754886040518663ffffffff1660e01b8152600401611e32959493929190613cb9565b600060405180830381600087803b158015611e4c57600080fd5b505af1158015611e60573d6000803e3d6000fd5b5050505060008090505b8481101561206e57600d6000858152602001908152602001600020600001600081819054906101000a900461ffff168092919060010191906101000a81548161ffff021916908361ffff16021790555050600d6000858152602001908152602001600020600101600c805490509080600181540180825580915050906001820390600052602060002001600090919290919091505550600c6040518060a001604052808a73ffffffffffffffffffffffffffffffffffffffff1681526020018573ffffffffffffffffffffffffffffffffffffffff168152602001868152602001600015158152602001600015158152509080600181540180825580915050906001820390600052602060002090600402016000909192909190915060008201518160000160006101000a81548173ffffffffffffffffffffffffffffffffffffffff021916908373ffffffffffffffffffffffffffffffffffffffff16021790555060208201518160010160006101000a81548173ffffffffffffffffffffffffffffffffffffffff021916908373ffffffffffffffffffffffffffffffffffffffff1602179055506040820151816002015560608201518160030160006101000a81548160ff02191690831515021790555060808201518160030160016101000a81548160ff0219169083151502179055505050508080600101915050611e6a565b5050505050505050565b6000600454905090565b6000809054906101000a900473ffffffffffffffffffffffffffffffffffffffff1673ffffffffffffffffffffffffffffffffffffffff163373ffffffffffffffffffffffffffffffffffffffff16146120db57600080fd5b600073ffffffffffffffffffffffffffffffffffffffff168173ffffffffffffffffffffffffffffffffffffffff16141561211557600080fd5b806000806101000a81548173ffffffffffffffffffffffffffffffffffffffff021916908373ffffffffffffffffffffffffffffffffffffffff16021790555050565b600260009054906101000a900473ffffffffffffffffffffffffffffffffffffffff1673ffffffffffffffffffffffffffffffffffffffff16630323d5ce6040518163ffffffff1660e01b815260040160206040518083038186803b1580156121c057600080fd5b505afa1580156121d4573d6000803e3d6000fd5b505050506040513d601f19601f820116820180604052506121f891908101906131ed565b73ffffffffffffffffffffffffffffffffffffffff1663ae4d72e06003546040518263ffffffff1660e01b81526004016122329190613bdd565b60206040518083038186803b15801561224a57600080fd5b505afa15801561225e573d6000803e3d6000fd5b505050506040513d601f19601f8201168201806040525061228291908101906130e5565b73ffffffffffffffffffffffffffffffffffffffff163373ffffffffffffffffffffffffffffffffffffffff16146122b957600080fd5b60608060008090506000809050600080905060008090505b80600c8054905011156125ae57600c81815481106122eb57fe5b906000526020600020906004020160030160009054906101000a900460ff161580156123405750600c818154811061231f57fe5b906000526020600020906004020160030160019054906101000a900460ff16155b8015612369575042600c828154811061235557fe5b906000526020600020906004020160020154105b156125a157600073ffffffffffffffffffffffffffffffffffffffff16600c828154811061239357fe5b906000526020600020906004020160010160009054906101000a900473ffffffffffffffffffffffffffffffffffffffff1673ffffffffffffffffffffffffffffffffffffffff161461254057600061242a87600c84815481106123f357fe5b906000526020600020906004020160010160009054906101000a900473ffffffffffffffffffffffffffffffffffffffff16612afe565b905060008114156124f257600c828154811061244257fe5b906000526020600020906004020160010160009054906101000a900473ffffffffffffffffffffffffffffffffffffffff1687868151811061248057fe5b602002602001019073ffffffffffffffffffffffffffffffffffffffff16908173ffffffffffffffffffffffffffffffffffffffff1681525050600a600754816124c657fe5b048686815181106124d357fe5b6020026020010181815101915081815250508480600101955050612521565b600a600754816124fe57fe5b0486600183038151811061250e57fe5b6020026020010181815101915081815250505b6103e86065600754028161253157fe5b04600754038401935050612557565b6103e86007548161254d57fe5b0460075403830192505b6103e86007548161256457fe5b04820191506001600c828154811061257857fe5b906000526020600020906004020160030160006101000a81548160ff0219169083151502179055505b80806001019150506122d1565b50600073ffffffffffffffffffffffffffffffffffffffff168673ffffffffffffffffffffffffffffffffffffffff16141561271157600260009054906101000a900473ffffffffffffffffffffffffffffffffffffffff1673ffffffffffffffffffffffffffffffffffffffff16630323d5ce6040518163ffffffff1660e01b815260040160206040518083038186803b15801561264c57600080fd5b505afa158015612660573d6000803e3d6000fd5b505050506040513d601f19601f8201168201806040525061268491908101906131ed565b73ffffffffffffffffffffffffffffffffffffffff1663ae4d72e06003546040518263ffffffff1660e01b81526004016126be9190613bdd565b60206040518083038186803b1580156126d657600080fd5b505afa1580156126ea573d6000803e3d6000fd5b505050506040513d601f19601f8201168201806040525061270e91908101906130e5565b95505b7f654be7454f73d17698cc6328c334c6b369ce05eeb009e2fc3189178ed31cf8b186833060405161274493929190613987565b60405180910390a1600160009054906101000a900473ffffffffffffffffffffffffffffffffffffffff1673ffffffffffffffffffffffffffffffffffffffff1663a9059cbb87846040518363ffffffff1660e01b81526004016127a992919061395e565b600060405180830381600087803b1580156127c357600080fd5b505af11580156127d7573d6000803e3d6000fd5b50505050600160009054906101000a900473ffffffffffffffffffffffffffffffffffffffff1673ffffffffffffffffffffffffffffffffffffffff1663a9059cbb600260009054906101000a900473ffffffffffffffffffffffffffffffffffffffff16836040518363ffffffff1660e01b815260040161285a92919061395e565b600060405180830381600087803b15801561287457600080fd5b505af1158015612888573d6000803e3d6000fd5b5050505060008090505b8381101561295c57600160009054906101000a900473ffffffffffffffffffffffffffffffffffffffff1673ffffffffffffffffffffffffffffffffffffffff1663a9059cbb8783815181106128e457fe5b60200260200101518784815181106128f857fe5b60200260200101516040518363ffffffff1660e01b815260040161291d92919061395e565b600060405180830381600087803b15801561293757600080fd5b505af115801561294b573d6000803e3d6000fd5b505050508080600101915050612892565b50505050505050565b60008060008060008090506014865111156129865760148601519150601490505b60008060007fffffffffffffffffffffffffffffffffffffffffffffffffffffffffffffffff905060008490505b60028501811015612a9957600060f81b8a82815181106129d057fe5b602001015160f81c60f81b7effffffffffffffffffffffffffffffffffffffffffffffffffffffffffffff191614158015612a2a57507fffffffffffffffffffffffffffffffffffffffffffffffffffffffffffffffff82145b15612a33578091505b7fffffffffffffffffffffffffffffffffffffffffffffffffffffffffffffffff8214612a8c5784600182010360020360080260020a8a8281518110612a7557fe5b602001015160f81c60f81b60f81c60ff1602840193505b80806001019150506129b4565b5060006002850190505b8951811015612ae857600181018a510360080260020a8a8281518110612ac557fe5b602001015160f81c60f81b60f81c60ff1602830192508080600101915050612aa3565b5082828697509750975050505050509193909250565b600080600090505b8351811015612b6f578273ffffffffffffffffffffffffffffffffffffffff16848281518110612b3257fe5b602002602001015173ffffffffffffffffffffffffffffffffffffffff161415612b625760018101915050612b75565b8080600101915050612b06565b50600090505b92915050565b6040518060400160405280600061ffff168152602001606081525090565b6040518060800160405280600075ffffffffffffffffffffffffffffffffffffffffffff19168152602001600074ffffffffffffffffffffffffffffffffffffffffff19168152602001600075ffffffffffffffffffffffffffffffffffffffffffff19168152602001600074ffffffffffffffffffffffffffffffffffffffffff191681525090565b828054828255906000526020600020908101928215612c72579160200282015b82811115612c71578251829080519060200190612c61929190612d03565b5091602001919060010190612c43565b5b509050612c7f9190612d83565b5090565b828054600181600116156101000203166002900490600052602060002090601f016020900481019282601f10612cc457805160ff1916838001178555612cf2565b82800160010185558215612cf2579182015b82811115612cf1578251825591602001919060010190612cd6565b5b509050612cff9190612daf565b5090565b828054600181600116156101000203166002900490600052602060002090601f016020900481019282601f10612d4457805160ff1916838001178555612d72565b82800160010185558215612d72579182015b82811115612d71578251825591602001919060010190612d56565b5b509050612d7f9190612daf565b5090565b612dac91905b80821115612da85760008181612d9f9190612dd4565b50600101612d89565b5090565b90565b612dd191905b80821115612dcd576000816000905550600101612db5565b5090565b90565b50805460018160011615610100020316600290046000825580601f10612dfa5750612e19565b601f016020900490600052602060002090810190612e189190612daf565b5b50565b600081359050612e2b81614045565b92915050565b600081359050612e408161405c565b92915050565b600081519050612e558161405c565b92915050565b600082601f830112612e6c57600080fd5b8135612e7f612e7a82613d39565b613d0c565b9150818183526020840193506020810190508360005b83811015612ec55781358601612eab8882612f0e565b845260208401935060208301925050600181019050612e95565b5050505092915050565b600081359050612ede81614073565b92915050565b600081359050612ef38161408a565b92915050565b600081359050612f08816140a1565b92915050565b600082601f830112612f1f57600080fd5b8135612f32612f2d82613d61565b613d0c565b91508082526020830160208301858383011115612f4e57600080fd5b612f59838284613fe5565b50505092915050565b600082601f830112612f7357600080fd5b8135612f86612f8182613d8d565b613d0c565b91508082526020830160208301858383011115612fa257600080fd5b612fad838284613fe5565b50505092915050565b600081519050612fc5816140b8565b92915050565b600081359050612fda816140cf565b92915050565b600060808284031215612ff257600080fd5b612ffc6080613d0c565b9050600061300c84828501612ee4565b600083015250602061302084828501612ef9565b602083015250604061303484828501612ee4565b604083015250606061304884828501612ef9565b60608301525092915050565b600081359050613063816140df565b92915050565b600081359050613078816140f6565b92915050565b60008151905061308d816140f6565b92915050565b6000602082840312156130a557600080fd5b60006130b384828501612e1c565b91505092915050565b6000602082840312156130ce57600080fd5b60006130dc84828501612e31565b91505092915050565b6000602082840312156130f757600080fd5b600061310584828501612e46565b91505092915050565b60008060006060848603121561312357600080fd5b600061313186828701612e1c565b935050602061314286828701613069565b925050604084013567ffffffffffffffff81111561315f57600080fd5b61316b86828701612f62565b9150509250925092565b60008060006060848603121561318a57600080fd5b600061319886828701612e1c565b93505060206131a986828701613069565b92505060406131ba86828701613069565b9150509250925092565b6000602082840312156131d657600080fd5b60006131e484828501612ecf565b91505092915050565b6000602082840312156131ff57600080fd5b600061320d84828501612fb6565b91505092915050565b60006020828403121561322857600080fd5b600061323684828501612fcb565b91505092915050565b6000806000806000610100868803121561325857600080fd5b600061326688828901612fe0565b955050608061327788828901613069565b94505060a086013567ffffffffffffffff81111561329457600080fd5b6132a088828901612e5b565b93505060c06132b188828901613054565b92505060e086013567ffffffffffffffff8111156132ce57600080fd5b6132da88828901612f62565b9150509295509295909350565b6000602082840312156132f957600080fd5b600061330784828501613069565b91505092915050565b60006020828403121561332257600080fd5b60006133308482850161307e565b91505092915050565b6000806040838503121561334c57600080fd5b600061335a85828601613069565b925050602083013567ffffffffffffffff81111561337757600080fd5b61338385828601612f62565b9150509250929050565b600061339983836133ef565b60208301905092915050565b60006133b183836135a4565b905092915050565b60006133c583836138ef565b60208301905092915050565b6133da81613f9d565b82525050565b6133e981613eca565b82525050565b6133f881613eb8565b82525050565b61340781613eb8565b82525050565b600061341882613de9565b6134228185613e52565b935061342d83613db9565b8060005b8381101561345e578151613445888261338d565b975061345083613e2b565b925050600181019050613431565b5085935050505092915050565b600061347682613df4565b6134808185613e63565b93508360208202850161349285613dc9565b8060005b858110156134ce57848403895281516134af85826133a5565b94506134ba83613e38565b925060208a01995050600181019050613496565b50829750879550505050505092915050565b60006134eb82613dff565b6134f58185613e74565b935061350083613dd9565b8060005b8381101561353157815161351888826133b9565b975061352383613e45565b925050600181019050613504565b5085935050505092915050565b61354781613edc565b82525050565b61355681613ee8565b82525050565b61356581613f14565b82525050565b600061357682613e15565b6135808185613e96565b9350613590818560208601613ff4565b61359981614027565b840191505092915050565b60006135af82613e0a565b6135b98185613e85565b93506135c9818560208601613ff4565b6135d281614027565b840191505092915050565b6135e681613faf565b82525050565b60006135f782613e20565b6136018185613ea7565b9350613611818560208601613ff4565b61361a81614027565b840191505092915050565b6000613632601d83613ea7565b91507f546865207472697020617420746869732074696d65206973206f7665720000006000830152602082019050919050565b6000613672600a83613ea7565b91507f736574456e61626c6564000000000000000000000000000000000000000000006000830152602082019050919050565b60006136b2600b83613ea7565b91507f73657441727269627574650000000000000000000000000000000000000000006000830152602082019050919050565b60006136f2602d83613ea7565b91507f546869732066756e63696f6e206d7573742062652063616c6c65642066726f6d60008301527f20466c6f74656120546f6b656e000000000000000000000000000000000000006020830152604082019050919050565b6000613758601283613ea7565b91507f4e6f7420656e6f756768207469636b65747300000000000000000000000000006000830152602082019050919050565b6000613798601083613ea7565b91507f5469636b6574206e6f7420666f756e64000000000000000000000000000000006000830152602082019050919050565b60006137d8600a83613ea7565b91507f73657456656869636c65000000000000000000000000000000000000000000006000830152602082019050919050565b6000613818601083613ea7565b91507f547269702069732064697361626c6564000000000000000000000000000000006000830152602082019050919050565b6000613858600b83613ea7565b91507f57726f6e672070726963650000000000000000000000000000000000000000006000830152602082019050919050565b6080820160008201516138a1600085018261354d565b5060208201516138b4602085018261355c565b5060408201516138c7604085018261354d565b5060608201516138da606085018261355c565b50505050565b6138e981613f65565b82525050565b6138f881613f93565b82525050565b61390781613f93565b82525050565b600060208201905061392260008301846133fe565b92915050565b600060208201905061393d60008301846133d1565b92915050565b600060208201905061395860008301846133e0565b92915050565b600060408201905061397360008301856133fe565b61398060208301846138fe565b9392505050565b600060608201905061399c60008301866133fe565b6139a960208301856138fe565b6139b660408301846133fe565b949350505050565b60006101a0820190506139d4600083018d6133fe565b6139e1602083018c6138fe565b6139ee604083018b61388b565b6139fb60c083018a6138fe565b81810360e0830152613a0d818961346b565b9050613a1d6101008301886138e0565b818103610120830152613a30818761356b565b9050613a4061014083018661353e565b613a4e6101608301856133fe565b613a5c6101808301846135dd565b9b9a5050505050505050505050565b60006040820190508181036000830152613a85818561340d565b90508181036020830152613a9981846134e0565b90509392505050565b6000602082019050613ab7600083018461353e565b92915050565b6000604082019050613ad2600083018561353e565b8181036020830152613ae481846135ec565b90509392505050565b60006020820190508181036000830152613b0681613625565b9050919050565b60006020820190508181036000830152613b26816136e5565b9050919050565b60006020820190508181036000830152613b468161374b565b9050919050565b60006020820190508181036000830152613b668161378b565b9050919050565b60006020820190508181036000830152613b868161380b565b9050919050565b60006020820190508181036000830152613ba68161384b565b9050919050565b6000604082019050613bc260008301856138e0565b8181036020830152613bd481846134e0565b90509392505050565b6000602082019050613bf260008301846138fe565b92915050565b6000604082019050613c0d60008301846138fe565b8181036020830152613c1e81613665565b905092915050565b6000604082019050613c3b60008301846138fe565b8181036020830152613c4c816136a5565b905092915050565b6000604082019050613c6960008301846138fe565b8181036020830152613c7a816137cb565b905092915050565b6000606082019050613c9760008301866138fe565b613ca460208301856138fe565b613cb160408301846133fe565b949350505050565b600060a082019050613cce60008301886138fe565b613cdb60208301876138fe565b613ce860408301866133fe565b613cf560608301856138fe565b613d0260808301846138fe565b9695505050505050565b6000604051905081810181811067ffffffffffffffff82111715613d2f57600080fd5b8060405250919050565b600067ffffffffffffffff821115613d5057600080fd5b602082029050602081019050919050565b600067ffffffffffffffff821115613d7857600080fd5b601f19601f8301169050602081019050919050565b600067ffffffffffffffff821115613da457600080fd5b601f19601f8301169050602081019050919050565b6000819050602082019050919050565b6000819050602082019050919050565b6000819050602082019050919050565b600081519050919050565b600081519050919050565b600081519050919050565b600081519050919050565b600081519050919050565b600081519050919050565b6000602082019050919050565b6000602082019050919050565b6000602082019050919050565b600082825260208201905092915050565b600082825260208201905092915050565b600082825260208201905092915050565b600082825260208201905092915050565b600082825260208201905092915050565b600082825260208201905092915050565b6000613ec382613f73565b9050919050565b6000613ed582613f73565b9050919050565b60008115159050919050565b60007fffffffffffffffffffff0000000000000000000000000000000000000000000082169050919050565b60007fffffffffffffffffffffff00000000000000000000000000000000000000000082169050919050565b6000613f4b82613eb8565b9050919050565b6000819050613f6082614038565b919050565b600061ffff82169050919050565b600073ffffffffffffffffffffffffffffffffffffffff82169050919050565b6000819050919050565b6000613fa882613fc1565b9050919050565b6000613fba82613f52565b9050919050565b6000613fcc82613fd3565b9050919050565b6000613fde82613f73565b9050919050565b82818337600083830152505050565b60005b83811015614012578082015181840152602081019050613ff7565b83811115614021576000848401525b50505050565b6000601f19601f8301169050919050565b6082811061404257fe5b50565b61404e81613eb8565b811461405957600080fd5b50565b61406581613eca565b811461407057600080fd5b50565b61407c81613edc565b811461408757600080fd5b50565b61409381613ee8565b811461409e57600080fd5b50565b6140aa81613f14565b81146140b557600080fd5b50565b6140c181613f40565b81146140cc57600080fd5b50565b608281106140dc57600080fd5b50565b6140e881613f65565b81146140f357600080fd5b50565b6140ff81613f93565b811461410a57600080fd5b5056fe596f7520646f206e6f74206861766520656e6f75676820464c5420746f6b656e73a365627a7a7231582015fd8e8fa753cbd49bb6caee8685f167433e96c5db784bffc91516d7e3ecea7b6c6578706572696d656e74616cf564736f6c63430005100040a365627a7a723158200dea44d688ab6014838051d84210e819e40f99ba52e2b797bd2ea996e5a4b6a46c6578706572696d656e74616cf564736f6c63430005100040",
  "source": "pragma solidity ^0.5.1;\npragma experimental ABIEncoderV2;\n\nimport \"./Trip.sol\";\nimport \"./TransportH.sol\";\nimport \"./CarriersInterface.sol\";\nimport \"./VotingCarrier.sol\";\nimport \"./FloteaToken.sol\";\n\ncontract Transport is TransportH{\n    CarriersInterface carriers;\n\n    constructor(address _tokenAddress, address _votingCarrierAddress, address _carriersAddress, address _floteaIcoAddress) public {\n        tokenAddress = _tokenAddress;\n        floteaIcoAddress = _floteaIcoAddress;\n        \n        VotingCarrier votingCarrier = VotingCarrier(_votingCarrierAddress);\n        carriers = CarriersInterface(_carriersAddress);\n        carriers.init();\n        votingCarrier.init(address(carriers));\n    }\n\n    function approve() public {\n        FloteaToken(tokenAddress).approve(floteaIcoAddress, 10**11); // Approve to transfer tokens from Transport\n    }\n    \n\n    function tripsLength() public view returns(uint length){\n        return trips.length;    \n    }\n\n    function getCarriers() public view returns(CarriersInterface) {\n        return carriers;\n    }\n    \n    function setEnabled(bool _enabled) public {\n        require(trips.length > 0 && trips[tripsId[msg.sender]].addr == msg.sender, \"Only contract Trip can call this method\");\n        trips[tripsId[msg.sender]].enabled = _enabled;\n    }\n\n    function emitCarrier(bool isNew, address _companyWallet, bytes32 _company, bytes32 _web, uint _index) public{\n        require(address(carriers) == msg.sender, \"Only contract Carriers can call this method\");\n        if(isNew)\n            emit NewCarrier(_companyWallet, _company, _web, _index);\n        else\n            emit CarrierUpdated(_companyWallet, _company, _web, _index);\n    }\n    \n    function createTrip (Trip.TripLoc memory _tripLoc, uint _price,\n    bytes[] memory _schedule, uint16 _places, bytes memory _description,\n    RouteType _routeType, bool _enabled) public {\n        (bool error, string memory message, uint carrierId) = carriers.testCarrier(msg.sender);\n        require (!error, message);\n        \n        Trip newTrip = new Trip(\n            carrierId, trips.length,\n            _tripLoc,\n            _price, _schedule, _places, \n            _description, _routeType, _enabled\n        );\n        carriers.addTrip(carrierId, address(newTrip));\n        tripsId[address(newTrip)] = trips.length;\n        emit TripEvent(address(newTrip), trips.length, \"new\");\n        trips.push( TripStruct(address(newTrip), true, true) );\n    }\n}",
  "sourcePath": "/home/martin/eth-contract/transport-eth-contracts/contracts/Transport.sol",
  "compiler": {
    "name": "solc",
    "version": "0.5.16+commit.9c3226ce.Emscripten.clang"
  },
  "schemaVersion": "3.1.0",
  "updatedAt": "2020-04-29T23:43:01.063Z",
  "devdoc": {
    "methods": {}
  },
  "userdoc": {
    "methods": {}
  }
}