{
  "contractName": "TransportH",
  "abi": [
    {
      "anonymous": false,
      "inputs": [
        {
          "indexed": false,
          "internalType": "address",
          "name": "_companyWallet",
          "type": "address"
        },
        {
          "indexed": false,
          "internalType": "bytes32",
          "name": "_company",
          "type": "bytes32"
        },
        {
          "indexed": false,
          "internalType": "bytes32",
          "name": "_web",
          "type": "bytes32"
        },
        {
          "indexed": false,
          "internalType": "uint256",
          "name": "_index",
          "type": "uint256"
        }
      ],
      "name": "CarrierUpdated",
      "type": "event"
    },
    {
      "anonymous": false,
      "inputs": [
        {
          "indexed": false,
          "internalType": "address",
          "name": "_companyWallet",
          "type": "address"
        },
        {
          "indexed": false,
          "internalType": "bytes32",
          "name": "_company",
          "type": "bytes32"
        },
        {
          "indexed": false,
          "internalType": "bytes32",
          "name": "_web",
          "type": "bytes32"
        },
        {
          "indexed": false,
          "internalType": "uint256",
          "name": "_index",
          "type": "uint256"
        }
      ],
      "name": "NewCarrier",
      "type": "event"
    },
    {
      "anonymous": false,
      "inputs": [
        {
          "indexed": false,
          "internalType": "address",
          "name": "_trip",
          "type": "address"
        },
        {
          "indexed": false,
          "internalType": "uint256",
          "name": "_tripId",
          "type": "uint256"
        },
        {
          "indexed": false,
          "internalType": "uint256",
          "name": "_tickets",
          "type": "uint256"
        },
        {
          "indexed": false,
          "internalType": "address",
          "name": "_buyerAddr",
          "type": "address"
        },
        {
          "indexed": false,
          "internalType": "uint256",
          "name": "_price",
          "type": "uint256"
        },
        {
          "indexed": false,
          "internalType": "uint256",
          "name": "_time",
          "type": "uint256"
        }
      ],
      "name": "PurchasedTickets",
      "type": "event"
    },
    {
      "anonymous": false,
      "inputs": [
        {
          "indexed": false,
          "internalType": "address",
          "name": "_trip",
          "type": "address"
        },
        {
          "indexed": false,
          "internalType": "uint256",
          "name": "_tripId",
          "type": "uint256"
        },
        {
          "indexed": false,
          "internalType": "uint256",
          "name": "_tickets",
          "type": "uint256"
        },
        {
          "indexed": false,
          "internalType": "address",
          "name": "_buyerAddr",
          "type": "address"
        }
      ],
      "name": "RefundedTickets",
      "type": "event"
    },
    {
      "anonymous": false,
      "inputs": [
        {
          "indexed": false,
          "internalType": "address",
          "name": "votingCarrier",
          "type": "address"
        },
        {
          "indexed": false,
          "internalType": "address",
          "name": "carriers",
          "type": "address"
        }
      ],
      "name": "TransportInitialized",
      "type": "event"
    },
    {
      "anonymous": false,
      "inputs": [
        {
          "indexed": false,
          "internalType": "address",
          "name": "_trip",
          "type": "address"
        },
        {
          "indexed": false,
          "internalType": "uint256",
          "name": "_tripId",
          "type": "uint256"
        },
        {
          "indexed": false,
          "internalType": "string",
          "name": "_eventType",
          "type": "string"
        }
      ],
      "name": "TripEvent",
      "type": "event"
    },
    {
      "constant": true,
      "inputs": [],
      "name": "floteaIcoAddress",
      "outputs": [
        {
          "internalType": "address",
          "name": "",
          "type": "address"
        }
      ],
      "payable": false,
      "stateMutability": "view",
      "type": "function"
    },
    {
      "constant": true,
      "inputs": [],
      "name": "tokenAddress",
      "outputs": [
        {
          "internalType": "address",
          "name": "",
          "type": "address"
        }
      ],
      "payable": false,
      "stateMutability": "view",
      "type": "function"
    },
    {
      "constant": true,
      "inputs": [
        {
          "internalType": "uint256",
          "name": "",
          "type": "uint256"
        }
      ],
      "name": "trips",
      "outputs": [
        {
          "internalType": "address",
          "name": "addr",
          "type": "address"
        },
        {
          "internalType": "bool",
          "name": "enabled",
          "type": "bool"
        },
        {
          "internalType": "bool",
          "name": "exist",
          "type": "bool"
        }
      ],
      "payable": false,
      "stateMutability": "view",
      "type": "function"
    },
    {
      "constant": true,
      "inputs": [
        {
          "internalType": "address",
          "name": "",
          "type": "address"
        }
      ],
      "name": "tripsId",
      "outputs": [
        {
          "internalType": "uint256",
          "name": "",
          "type": "uint256"
        }
      ],
      "payable": false,
      "stateMutability": "view",
      "type": "function"
    },
    {
      "constant": false,
      "inputs": [
        {
          "internalType": "uint256",
          "name": "_tripId",
          "type": "uint256"
        },
        {
          "internalType": "string",
          "name": "updateType",
          "type": "string"
        }
      ],
      "name": "emitTripUpdateEvent",
      "outputs": [],
      "payable": false,
      "stateMutability": "nonpayable",
      "type": "function"
    },
    {
      "constant": false,
      "inputs": [
        {
          "internalType": "uint256",
          "name": "_tripId",
          "type": "uint256"
        },
        {
          "internalType": "uint256",
          "name": "_tickets",
          "type": "uint256"
        },
        {
          "internalType": "address",
          "name": "_buyerAddr",
          "type": "address"
        },
        {
          "internalType": "uint256",
          "name": "_price",
          "type": "uint256"
        },
        {
          "internalType": "uint256",
          "name": "_time",
          "type": "uint256"
        }
      ],
      "name": "emitPurchasedTicket",
      "outputs": [],
      "payable": false,
      "stateMutability": "nonpayable",
      "type": "function"
    },
    {
      "constant": false,
      "inputs": [
        {
          "internalType": "uint256",
          "name": "_tripId",
          "type": "uint256"
        },
        {
          "internalType": "uint256",
          "name": "_tickets",
          "type": "uint256"
        },
        {
          "internalType": "address",
          "name": "_buyerAddr",
          "type": "address"
        }
      ],
      "name": "emitRefundedTickets",
      "outputs": [],
      "payable": false,
      "stateMutability": "nonpayable",
      "type": "function"
    }
  ],
  "bytecode": "0x608060405234801561001057600080fd5b50610a48806100206000396000f3fe608060405234801561001057600080fd5b506004361061007d5760003560e01c8063ca52055e1161005b578063ca52055e146101fd578063cf15dbc414610255578063f6824a7c1461029f578063ffbb6bbb146103235761007d565b80632dcac642146100825780638e91e611146100ee5780639d76ea58146101b3575b600080fd5b6100ec600480360360a081101561009857600080fd5b810190808035906020019092919080359060200190929190803573ffffffffffffffffffffffffffffffffffffffff169060200190929190803590602001909291908035906020019092919050505061037b565b005b6101b16004803603604081101561010457600080fd5b81019080803590602001909291908035906020019064010000000081111561012b57600080fd5b82018360208201111561013d57600080fd5b8035906020019184600183028401116401000000008311171561015f57600080fd5b91908080601f016020809104026020016040519081016040528093929190818152602001838380828437600081840152601f19601f820116905080830192505050505050509192919290505050610564565b005b6101bb61076b565b604051808273ffffffffffffffffffffffffffffffffffffffff1673ffffffffffffffffffffffffffffffffffffffff16815260200191505060405180910390f35b6102536004803603606081101561021357600080fd5b810190808035906020019092919080359060200190929190803573ffffffffffffffffffffffffffffffffffffffff169060200190929190505050610791565b005b61025d610968565b604051808273ffffffffffffffffffffffffffffffffffffffff1673ffffffffffffffffffffffffffffffffffffffff16815260200191505060405180910390f35b6102cb600480360360208110156102b557600080fd5b810190808035906020019092919050505061098e565b604051808473ffffffffffffffffffffffffffffffffffffffff1673ffffffffffffffffffffffffffffffffffffffff1681526020018315151515815260200182151515158152602001935050505060405180910390f35b6103656004803603602081101561033957600080fd5b81019080803573ffffffffffffffffffffffffffffffffffffffff1690602001909291905050506109fb565b6040518082815260200191505060405180910390f35b60008060003373ffffffffffffffffffffffffffffffffffffffff1673ffffffffffffffffffffffffffffffffffffffff168152602001908152602001600020549050600081118061043357503373ffffffffffffffffffffffffffffffffffffffff1660046000815481106103ed57fe5b9060005260206000200160000160009054906101000a900473ffffffffffffffffffffffffffffffffffffffff1673ffffffffffffffffffffffffffffffffffffffff16145b6104a5576040517f08c379a000000000000000000000000000000000000000000000000000000000815260040180806020018281038252600e8152602001807f54726970206e6f7420657869737400000000000000000000000000000000000081525060200191505060405180910390fd5b7f08cdff2d5568fedc99785db826cc06fdaa0e53e1fd32271717d8dd1ee73dd500338787878787604051808773ffffffffffffffffffffffffffffffffffffffff1673ffffffffffffffffffffffffffffffffffffffff1681526020018681526020018581526020018473ffffffffffffffffffffffffffffffffffffffff1673ffffffffffffffffffffffffffffffffffffffff168152602001838152602001828152602001965050505050505060405180910390a1505050505050565b60008060003373ffffffffffffffffffffffffffffffffffffffff1673ffffffffffffffffffffffffffffffffffffffff168152602001908152602001600020549050600081118061061c57503373ffffffffffffffffffffffffffffffffffffffff1660046000815481106105d657fe5b9060005260206000200160000160009054906101000a900473ffffffffffffffffffffffffffffffffffffffff1673ffffffffffffffffffffffffffffffffffffffff16145b61068e576040517f08c379a000000000000000000000000000000000000000000000000000000000815260040180806020018281038252600e8152602001807f54726970206e6f7420657869737400000000000000000000000000000000000081525060200191505060405180910390fd5b7fac79b139c3a0deca65a4720eeaa2fa0375948035a7d6706026a955e46fbd0b12338484604051808473ffffffffffffffffffffffffffffffffffffffff1673ffffffffffffffffffffffffffffffffffffffff16815260200183815260200180602001828103825283818151815260200191508051906020019080838360005b8381101561072a57808201518184015260208101905061070f565b50505050905090810190601f1680156107575780820380516001836020036101000a031916815260200191505b5094505050505060405180910390a1505050565b600160009054906101000a900473ffffffffffffffffffffffffffffffffffffffff1681565b60008060003373ffffffffffffffffffffffffffffffffffffffff1673ffffffffffffffffffffffffffffffffffffffff168152602001908152602001600020549050600081118061084957503373ffffffffffffffffffffffffffffffffffffffff16600460008154811061080357fe5b9060005260206000200160000160009054906101000a900473ffffffffffffffffffffffffffffffffffffffff1673ffffffffffffffffffffffffffffffffffffffff16145b6108bb576040517f08c379a000000000000000000000000000000000000000000000000000000000815260040180806020018281038252600e8152602001807f54726970206e6f7420657869737400000000000000000000000000000000000081525060200191505060405180910390fd5b7fbdba177396c026c66d2b007b8933626fa8f5cd439af0ab1e5be8c37f509e753c33858585604051808573ffffffffffffffffffffffffffffffffffffffff1673ffffffffffffffffffffffffffffffffffffffff1681526020018481526020018381526020018273ffffffffffffffffffffffffffffffffffffffff1673ffffffffffffffffffffffffffffffffffffffff16815260200194505050505060405180910390a150505050565b600260009054906101000a900473ffffffffffffffffffffffffffffffffffffffff1681565b6004818154811061099b57fe5b906000526020600020016000915090508060000160009054906101000a900473ffffffffffffffffffffffffffffffffffffffff16908060000160149054906101000a900460ff16908060000160159054906101000a900460ff16905083565b6000602052806000526040600020600091509050548156fea265627a7a72315820224f41a28fa30cb6e63453fff28e36ff53ef5fadcb00e3fade5d4d98b02c9b3364736f6c63430005100032",
  "source": "pragma solidity ^0.5.1;\n\nimport \"./Trip.sol\";\nimport \"./VotingCarrier.sol\";\n\ncontract TransportH {\n\n\n    struct TripStruct {\n        address addr;\n        bool enabled;\n        bool exist;\n    }\n\n    enum RouteType {tram,metro,rail,bus,ferry,cablecar,gondola,funicular,railway_service,high_speed_rail_service,long_distance_trains,inter_regional_rail_service,car_transport_rail_service,sleeper_rail_service,regional_rail_service,tourist_railway_service,rail_shuttle_within_complex,suburban_railway,replacement_rail_service,special_rail_service,lorry_transport_rail_service,all_rail_services,cross_country_rail_service,vehicle_transport_rail_service,rack_and_pinion_railway,additional_rail_service,coach_service,international_coach_service,national_coach_service,shuttle_coach_service,regional_coach_service,special_coach_service,sightseeing_coach_service,tourist_coach_service,commuter_coach_service,all_coach_services,suburban_railway_service,urban_railway_service,metro_service,underground_service,all_urban_railway_services,monorail,bus_service,regional_bus_service,express_bus_service,stopping_bus_service,local_bus_service,night_bus_service,post_bus_service,special_needs_bus,mobility_bus_service,mobility_bus_for_registered_disabled,sightseeing_bus,shuttle_bus,school_bus,school_and_public_service_bus,rail_replacement_bus_service,demand_and_response_bus_service,all_bus_services,trolleybus_service,tram_service,city_tram_service,local_tram_service,regional_tram_service,sightseeing_tram_service,shuttle_tram_service,all_tram_services,water_transport_service,international_car_ferry_service,national_car_ferry_service,regional_car_ferry_service,local_car_ferry_service,international_passenger_ferry_service,national_passenger_ferry_service,regional_passenger_ferry_service,local_passenger_ferry_service,post_boat_service,train_ferry_service,road_link_ferry_service,airport_link_ferry_service,car_high_speed_ferry_service,passenger_high_speed_ferry_service,sightseeing_boat_service,school_boat,cable_drawn_boat_service,river_bus_service,scheduled_ferry_service,shuttle_ferry_service,all_water_transport_services,air_service,international_air_service,domestic_air_service,intercontinental_air_service,domestic_scheduled_air_service,shuttle_air_service,intercontinental_charter_air_service,international_charter_air_service,round_trip_charter_air_service,sightseeing_air_service,helicopter_air_service,domestic_charter_air_service,schengen_area_air_service,airship_service,all_air_services,ferry_service,telecabin_service,cable_car_service,elevator_service,chair_lift_service,drag_lift_service,small_telecabin_service,all_telecabin_services,funicular_service,all_funicular_service,taxi_service,communal_taxi_service,water_taxi_service,rail_taxi_service,bike_taxi_service,licensed_taxi_service,private_hire_service_vehicle,all_taxi_services,self_drive,hire_car,hire_van,hire_motorbike,hire_cycle,miscellaneous_service,cable_car,horse_drawn_carriage} // https://transit.land/documentation/datastore/routes-and-route-stop-patterns.html#vehicle_types\n\n    modifier onlyTrip() {\n        uint index = tripsId[msg.sender];\n        require(index > 0 || trips[0].addr == msg.sender , \"Trip not exist\");\n        _;\n    }\n\n    event TransportInitialized(address votingCarrier, address carriers);\n\n    event NewCarrier(address _companyWallet, bytes32 _company, bytes32 _web, uint _index);\n    event CarrierUpdated(address _companyWallet, bytes32 _company, bytes32 _web, uint _index);\n    \n    event TripEvent(address _trip, uint _tripId, string _eventType);\n    \n    event PurchasedTickets(address _trip, uint _tripId, uint _tickets, address _buyerAddr, uint _price, uint _time);\n    event RefundedTickets(address _trip, uint _tripId, uint _tickets, address _buyerAddr);\n\n\n    mapping(address => uint) public tripsId;\n    address public tokenAddress;\n    address public floteaIcoAddress;\n    VotingCarrier votingCarrier;\n    TripStruct[] public trips;\n\n    function emitTripUpdateEvent(uint _tripId, string memory updateType) public onlyTrip{\n        emit TripEvent(msg.sender, _tripId, updateType); \n    }\n\n    function emitPurchasedTicket (uint _tripId, uint _tickets, address _buyerAddr, uint _price, uint _time) public onlyTrip{\n        emit PurchasedTickets(msg.sender, _tripId, _tickets, _buyerAddr, _price, _time);\n    }\n\n    function emitRefundedTickets (uint _tripId, uint _tickets, address _buyerAddr) public onlyTrip{\n        emit RefundedTickets(msg.sender, _tripId, _tickets, _buyerAddr);\n    }\n\n}",
  "sourcePath": "/home/martin/eth-contract/transport-eth-contracts/contracts/TransportH.sol",
  "compiler": {
    "name": "solc",
    "version": "0.5.16+commit.9c3226ce.Emscripten.clang"
  },
  "schemaVersion": "3.1.0",
  "updatedAt": "2020-04-29T23:43:01.067Z",
  "devdoc": {
    "methods": {}
  },
  "userdoc": {
    "methods": {}
  }
}