{
  "contractName": "Trip",
  "abi": [
    {
      "inputs": [
        {
          "internalType": "uint256",
          "name": "_carrierId",
          "type": "uint256"
        },
        {
          "internalType": "uint256",
          "name": "_tripId",
          "type": "uint256"
        },
        {
          "components": [
            {
              "internalType": "bytes10",
              "name": "fromLat",
              "type": "bytes10"
            },
            {
              "internalType": "bytes11",
              "name": "fromLng",
              "type": "bytes11"
            },
            {
              "internalType": "bytes10",
              "name": "toLat",
              "type": "bytes10"
            },
            {
              "internalType": "bytes11",
              "name": "toLng",
              "type": "bytes11"
            }
          ],
          "internalType": "struct Trip.TripLoc",
          "name": "_tripLoc",
          "type": "tuple"
        },
        {
          "internalType": "uint256",
          "name": "_price",
          "type": "uint256"
        },
        {
          "internalType": "bytes[]",
          "name": "_schedule",
          "type": "bytes[]"
        },
        {
          "internalType": "uint16",
          "name": "_places",
          "type": "uint16"
        },
        {
          "internalType": "bytes",
          "name": "_description",
          "type": "bytes"
        },
        {
          "internalType": "enum TransportH.RouteType",
          "name": "_routeType",
          "type": "uint8"
        },
        {
          "internalType": "bool",
          "name": "_enabled",
          "type": "bool"
        }
      ],
      "payable": false,
      "stateMutability": "nonpayable",
      "type": "constructor"
    },
    {
      "anonymous": false,
      "inputs": [
        {
          "indexed": false,
          "internalType": "address",
          "name": "carrierAddress",
          "type": "address"
        },
        {
          "indexed": false,
          "internalType": "uint256",
          "name": "amount",
          "type": "uint256"
        },
        {
          "indexed": false,
          "internalType": "address",
          "name": "tripContract",
          "type": "address"
        }
      ],
      "name": "Charged",
      "type": "event"
    },
    {
      "constant": true,
      "inputs": [],
      "name": "owner",
      "outputs": [
        {
          "internalType": "address payable",
          "name": "",
          "type": "address"
        }
      ],
      "payable": false,
      "stateMutability": "view",
      "type": "function"
    },
    {
      "constant": false,
      "inputs": [
        {
          "internalType": "address payable",
          "name": "newOwner",
          "type": "address"
        }
      ],
      "name": "transferOwnership",
      "outputs": [],
      "payable": false,
      "stateMutability": "nonpayable",
      "type": "function"
    },
    {
      "constant": false,
      "inputs": [
        {
          "components": [
            {
              "internalType": "bytes10",
              "name": "fromLat",
              "type": "bytes10"
            },
            {
              "internalType": "bytes11",
              "name": "fromLng",
              "type": "bytes11"
            },
            {
              "internalType": "bytes10",
              "name": "toLat",
              "type": "bytes10"
            },
            {
              "internalType": "bytes11",
              "name": "toLng",
              "type": "bytes11"
            }
          ],
          "internalType": "struct Trip.TripLoc",
          "name": "_tripLoc",
          "type": "tuple"
        },
        {
          "internalType": "uint256",
          "name": "_price",
          "type": "uint256"
        },
        {
          "internalType": "bytes[]",
          "name": "_schedule",
          "type": "bytes[]"
        },
        {
          "internalType": "uint16",
          "name": "_places",
          "type": "uint16"
        },
        {
          "internalType": "bytes",
          "name": "_description",
          "type": "bytes"
        }
      ],
      "name": "setArribute",
      "outputs": [],
      "payable": false,
      "stateMutability": "nonpayable",
      "type": "function"
    },
    {
      "constant": false,
      "inputs": [
        {
          "internalType": "enum TransportH.RouteType",
          "name": "_routeType",
          "type": "uint8"
        }
      ],
      "name": "setVehicle",
      "outputs": [],
      "payable": false,
      "stateMutability": "nonpayable",
      "type": "function"
    },
    {
      "constant": false,
      "inputs": [
        {
          "internalType": "bool",
          "name": "_enabled",
          "type": "bool"
        }
      ],
      "name": "setEnabled",
      "outputs": [],
      "payable": false,
      "stateMutability": "nonpayable",
      "type": "function"
    },
    {
      "constant": true,
      "inputs": [],
      "name": "info",
      "outputs": [
        {
          "internalType": "address",
          "name": "carrierAddress",
          "type": "address"
        },
        {
          "internalType": "uint256",
          "name": "_carrierId",
          "type": "uint256"
        },
        {
          "components": [
            {
              "internalType": "bytes10",
              "name": "fromLat",
              "type": "bytes10"
            },
            {
              "internalType": "bytes11",
              "name": "fromLng",
              "type": "bytes11"
            },
            {
              "internalType": "bytes10",
              "name": "toLat",
              "type": "bytes10"
            },
            {
              "internalType": "bytes11",
              "name": "toLng",
              "type": "bytes11"
            }
          ],
          "internalType": "struct Trip.TripLoc",
          "name": "_tripLoc",
          "type": "tuple"
        },
        {
          "internalType": "uint256",
          "name": "_price",
          "type": "uint256"
        },
        {
          "internalType": "bytes[]",
          "name": "_schedule",
          "type": "bytes[]"
        },
        {
          "internalType": "uint16",
          "name": "_places",
          "type": "uint16"
        },
        {
          "internalType": "bytes",
          "name": "_description",
          "type": "bytes"
        },
        {
          "internalType": "bool",
          "name": "_enabled",
          "type": "bool"
        },
        {
          "internalType": "address",
          "name": "_token",
          "type": "address"
        },
        {
          "internalType": "enum TransportH.RouteType",
          "name": "_routeType",
          "type": "uint8"
        }
      ],
      "payable": false,
      "stateMutability": "view",
      "type": "function"
    },
    {
      "constant": true,
      "inputs": [],
      "name": "getCarrierAddress",
      "outputs": [
        {
          "internalType": "address",
          "name": "",
          "type": "address"
        }
      ],
      "payable": false,
      "stateMutability": "view",
      "type": "function"
    },
    {
      "constant": true,
      "inputs": [],
      "name": "getCarrierId",
      "outputs": [
        {
          "internalType": "uint256",
          "name": "",
          "type": "uint256"
        }
      ],
      "payable": false,
      "stateMutability": "view",
      "type": "function"
    },
    {
      "constant": true,
      "inputs": [],
      "name": "getTripId",
      "outputs": [
        {
          "internalType": "uint256",
          "name": "",
          "type": "uint256"
        }
      ],
      "payable": false,
      "stateMutability": "view",
      "type": "function"
    },
    {
      "constant": false,
      "inputs": [
        {
          "internalType": "address",
          "name": "_buyer",
          "type": "address"
        },
        {
          "internalType": "uint256",
          "name": "_time",
          "type": "uint256"
        },
        {
          "internalType": "uint256",
          "name": "_count",
          "type": "uint256"
        }
      ],
      "name": "refund",
      "outputs": [],
      "payable": false,
      "stateMutability": "nonpayable",
      "type": "function"
    },
    {
      "constant": true,
      "inputs": [],
      "name": "getTickets",
      "outputs": [
        {
          "internalType": "address[]",
          "name": "addresses",
          "type": "address[]"
        },
        {
          "internalType": "uint256[]",
          "name": "times",
          "type": "uint256[]"
        }
      ],
      "payable": false,
      "stateMutability": "view",
      "type": "function"
    },
    {
      "constant": true,
      "inputs": [
        {
          "internalType": "uint256",
          "name": "_time",
          "type": "uint256"
        }
      ],
      "name": "getTickets",
      "outputs": [
        {
          "internalType": "uint16",
          "name": "ticketsArray",
          "type": "uint16"
        },
        {
          "internalType": "uint256[]",
          "name": "indexesArray",
          "type": "uint256[]"
        }
      ],
      "payable": false,
      "stateMutability": "view",
      "type": "function"
    },
    {
      "constant": false,
      "inputs": [
        {
          "internalType": "address",
          "name": "_to",
          "type": "address"
        }
      ],
      "name": "charge",
      "outputs": [],
      "payable": false,
      "stateMutability": "nonpayable",
      "type": "function"
    },
    {
      "constant": true,
      "inputs": [
        {
          "internalType": "uint256",
          "name": "_value",
          "type": "uint256"
        },
        {
          "internalType": "bytes",
          "name": "_data",
          "type": "bytes"
        }
      ],
      "name": "beforeBuy",
      "outputs": [
        {
          "internalType": "bool",
          "name": "",
          "type": "bool"
        },
        {
          "internalType": "string",
          "name": "",
          "type": "string"
        }
      ],
      "payable": false,
      "stateMutability": "view",
      "type": "function"
    },
    {
      "constant": false,
      "inputs": [
        {
          "internalType": "address",
          "name": "_from",
          "type": "address"
        },
        {
          "internalType": "uint256",
          "name": "_value",
          "type": "uint256"
        },
        {
          "internalType": "bytes",
          "name": "_data",
          "type": "bytes"
        }
      ],
      "name": "tokenFallback",
      "outputs": [],
      "payable": false,
      "stateMutability": "nonpayable",
      "type": "function"
    }
  ],
  "bytecode": "0x60806040523480156200001157600080fd5b5060405162004c6b38038062004c6b833981810160405262000037919081019062000798565b336000806101000a81548173ffffffffffffffffffffffffffffffffffffffff021916908373ffffffffffffffffffffffffffffffffffffffff16021790555033600260006101000a81548173ffffffffffffffffffffffffffffffffffffffff021916908373ffffffffffffffffffffffffffffffffffffffff160217905550600260009054906101000a900473ffffffffffffffffffffffffffffffffffffffff1673ffffffffffffffffffffffffffffffffffffffff16639d76ea586040518163ffffffff1660e01b815260040160206040518083038186803b1580156200012157600080fd5b505afa15801562000136573d6000803e3d6000fd5b505050506040513d601f19601f820116820180604052506200015c91908101906200076c565b600160006101000a81548173ffffffffffffffffffffffffffffffffffffffff021916908373ffffffffffffffffffffffffffffffffffffffff160217905550886003819055508760048190555086600560008201518160000160006101000a81548169ffffffffffffffffffff021916908360b01c0217905550602082015181600001600a6101000a8154816affffffffffffffffffffff021916908360a81c021790555060408201518160000160156101000a81548169ffffffffffffffffffff021916908360b01c021790555060608201518160010160006101000a8154816affffffffffffffffffffff021916908360a81c021790555090505085600781905550846008908051906020019062000279929190620002fd565b5083600960006101000a81548161ffff021916908361ffff16021790555082600a9080519060200190620002af92919062000364565b5081600b60006101000a81548160ff02191690836081811115620002cf57fe5b021790555080600b60016101000a81548160ff02191690831515021790555050505050505050505062000aea565b82805482825590600052602060002090810192821562000351579160200282015b82811115620003505782518290805190602001906200033f929190620003eb565b50916020019190600101906200031e565b5b50905062000360919062000472565b5090565b828054600181600116156101000203166002900490600052602060002090601f016020900481019282601f10620003a757805160ff1916838001178555620003d8565b82800160010185558215620003d8579182015b82811115620003d7578251825591602001919060010190620003ba565b5b509050620003e79190620004a3565b5090565b828054600181600116156101000203166002900490600052602060002090601f016020900481019282601f106200042e57805160ff19168380011785556200045f565b828001600101855582156200045f579182015b828111156200045e57825182559160200191906001019062000441565b5b5090506200046e9190620004a3565b5090565b620004a091905b808211156200049c5760008181620004929190620004cb565b5060010162000479565b5090565b90565b620004c891905b80821115620004c4576000816000905550600101620004aa565b5090565b90565b50805460018160011615610100020316600290046000825580601f10620004f3575062000514565b601f016020900490600052602060002090810190620005139190620004a3565b5b50565b600081519050620005288162000a3d565b92915050565b600082601f8301126200054057600080fd5b8151620005576200055182620008d4565b620008a6565b9150818183526020840193506020810190508360005b83811015620005a15781518601620005868882620005f0565b8452602084019350602083019250506001810190506200056d565b5050505092915050565b600081519050620005bc8162000a57565b92915050565b600081519050620005d38162000a71565b92915050565b600081519050620005ea8162000a8b565b92915050565b600082601f8301126200060257600080fd5b8151620006196200061382620008fd565b620008a6565b915080825260208301602083018583830111156200063657600080fd5b6200064383828462000a07565b50505092915050565b600082601f8301126200065e57600080fd5b8151620006756200066f826200092a565b620008a6565b915080825260208301602083018583830111156200069257600080fd5b6200069f83828462000a07565b50505092915050565b600081519050620006b98162000aa5565b92915050565b600060808284031215620006d257600080fd5b620006de6080620008a6565b90506000620006f084828501620005c2565b60008301525060206200070684828501620005d9565b60208301525060406200071c84828501620005c2565b60408301525060606200073284828501620005d9565b60608301525092915050565b6000815190506200074f8162000ab6565b92915050565b600081519050620007668162000ad0565b92915050565b6000602082840312156200077f57600080fd5b60006200078f8482850162000517565b91505092915050565b60008060008060008060008060006101808a8c031215620007b857600080fd5b6000620007c88c828d0162000755565b9950506020620007db8c828d0162000755565b9850506040620007ee8c828d01620006bf565b97505060c0620008018c828d0162000755565b96505060e08a015167ffffffffffffffff8111156200081f57600080fd5b6200082d8c828d016200052e565b955050610100620008418c828d016200073e565b9450506101208a015167ffffffffffffffff8111156200086057600080fd5b6200086e8c828d016200064c565b935050610140620008828c828d01620006a8565b925050610160620008968c828d01620005ab565b9150509295985092959850929598565b6000604051905081810181811067ffffffffffffffff82111715620008ca57600080fd5b8060405250919050565b600067ffffffffffffffff821115620008ec57600080fd5b602082029050602081019050919050565b600067ffffffffffffffff8211156200091557600080fd5b601f19601f8301169050602081019050919050565b600067ffffffffffffffff8211156200094257600080fd5b601f19601f8301169050602081019050919050565b60006200096482620009dd565b9050919050565b60008115159050919050565b60007fffffffffffffffffffff0000000000000000000000000000000000000000000082169050919050565b60007fffffffffffffffffffffff00000000000000000000000000000000000000000082169050919050565b600061ffff82169050919050565b600073ffffffffffffffffffffffffffffffffffffffff82169050919050565b6000819050919050565b60005b8381101562000a2757808201518184015260208101905062000a0a565b8381111562000a37576000848401525b50505050565b62000a488162000957565b811462000a5457600080fd5b50565b62000a62816200096b565b811462000a6e57600080fd5b50565b62000a7c8162000977565b811462000a8857600080fd5b50565b62000a9681620009a3565b811462000aa257600080fd5b50565b6082811062000ab357600080fd5b50565b62000ac181620009cf565b811462000acd57600080fd5b50565b62000adb81620009fd565b811462000ae757600080fd5b50565b6141718062000afa6000396000f3fe608060405234801561001057600080fd5b50600436106100f55760003560e01c80634ed0262211610097578063c0ee0b8a11610066578063c0ee0b8a1461026c578063f1d5659e14610288578063f2fde38b146102a6578063fc6bd76a146102c2576100f5565b80634ed02622146101f55780638da5cb5b14610214578063abc14e6114610232578063b1ab1f5014610250576100f5565b806321a88559116100d357806321a8855914610178578063328d8f7214610196578063370158ea146101b257806344a482c8146101d9576100f5565b8063102b9b26146100fa57806314f2979f1461012b57806318fd89031461015c575b600080fd5b610114600480360361010f9190810190613339565b6102de565b604051610122929190613abd565b60405180910390f35b610145600480360361014091908101906132e7565b610603565b604051610153929190613bad565b60405180910390f35b61017660048036036101719190810190613175565b61069d565b005b610180610b94565b60405161018d9190613bdd565b60405180910390f35b6101b060048036036101ab91908101906131c4565b610b9e565b005b6101ba610e38565b6040516101d09a999897969594939291906139be565b60405180910390f35b6101f360048036036101ee919081019061323f565b6112aa565b005b6101fd611658565b60405161020b929190613a6b565b60405180910390f35b61021c6117e7565b6040516102299190613943565b60405180910390f35b61023a61180c565b604051610247919061390d565b60405180910390f35b61026a60048036036102659190810190613216565b61193d565b005b6102866004803603610281919081019061310e565b611b53565b005b610290612078565b60405161029d9190613bdd565b60405180910390f35b6102c060048036036102bb91908101906130bc565b612082565b005b6102dc60048036036102d79190810190613093565b612158565b005b6000606083600160009054906101000a900473ffffffffffffffffffffffffffffffffffffffff1673ffffffffffffffffffffffffffffffffffffffff166370a08231336040518263ffffffff1660e01b815260040161033e9190613928565b60206040518083038186803b15801561035657600080fd5b505afa15801561036a573d6000803e3d6000fd5b505050506040513d601f19601f8201168201806040525061038e9190810190613310565b10156103b857600160405180606001604052806021815260200161410e60219139915091506105fc565b600b60019054906101000a900460ff1661040d5760016040518060400160405280601081526020017f547269702069732064697361626c656400000000000000000000000000000000815250915091506105fc565b60008061041985612965565b50915091508160075402861461046c5760016040518060400160405280600b81526020017f57726f6e672070726963650000000000000000000000000000000000000000008152509350935050506105fc565b4281116104b65760016040518060400160405280601d81526020017f546865207472697020617420746869732074696d65206973206f7665720000008152509350935050506105fc565b6104be612b7b565b600d60008381526020019081526020016000206040518060400160405290816000820160009054906101000a900461ffff1661ffff1661ffff1681526020016001820180548060200260200160405190810160405280929190818152602001828054801561054b57602002820191906000526020600020905b815481526020019060010190808311610537575b5050505050815250509050828160000151600960009054906101000a900461ffff160361ffff1610156105bc5760016040518060400160405280601281526020017f4e6f7420656e6f756768207469636b6574730000000000000000000000000000815250945094505050506105fc565b60006040518060400160405280600281526020017f6f6b000000000000000000000000000000000000000000000000000000000000815250945094505050505b9250929050565b60006060600d600084815260200190815260200160002060000160009054906101000a900461ffff16600d60008581526020019081526020016000206001018080548060200260200160405190810160405280929190818152602001828054801561068d57602002820191906000526020600020905b815481526020019060010190808311610679575b5050505050905091509150915091565b600260009054906101000a900473ffffffffffffffffffffffffffffffffffffffff1673ffffffffffffffffffffffffffffffffffffffff16630323d5ce6040518163ffffffff1660e01b815260040160206040518083038186803b15801561070557600080fd5b505afa158015610719573d6000803e3d6000fd5b505050506040513d601f19601f8201168201806040525061073d91908101906131ed565b73ffffffffffffffffffffffffffffffffffffffff1663ae4d72e06003546040518263ffffffff1660e01b81526004016107779190613bdd565b60206040518083038186803b15801561078f57600080fd5b505afa1580156107a3573d6000803e3d6000fd5b505050506040513d601f19601f820116820180604052506107c791908101906130e5565b73ffffffffffffffffffffffffffffffffffffffff163373ffffffffffffffffffffffffffffffffffffffff16146107fe57600080fd5b600080905061080b612b7b565b600d60008581526020019081526020016000206040518060400160405290816000820160009054906101000a900461ffff1661ffff1661ffff1681526020016001820180548060200260200160405190810160405280929190818152602001828054801561089857602002820191906000526020600020905b815481526020019060010190808311610884575b505050505081525050905060008090505b808260200151511115610a14578573ffffffffffffffffffffffffffffffffffffffff16600c836020015183815181106108df57fe5b6020026020010151815481106108f157fe5b906000526020600020906004020160000160009054906101000a900473ffffffffffffffffffffffffffffffffffffffff1673ffffffffffffffffffffffffffffffffffffffff161480156109865750600c8260200151828151811061095357fe5b60200260200101518154811061096557fe5b906000526020600020906004020160030160019054906101000a900460ff16155b80156109925750838311155b15610a075782806001019350506001600c836020015183815181106109b357fe5b6020026020010151815481106109c557fe5b906000526020600020906004020160030160016101000a81548160ff0219169083151502179055508160000180518091906001900361ffff1661ffff16815250505b80806001019150506108a9565b506000821115610b4b57600260009054906101000a900473ffffffffffffffffffffffffffffffffffffffff1673ffffffffffffffffffffffffffffffffffffffff1663ca52055e60045484886040518463ffffffff1660e01b8152600401610a7f93929190613c82565b600060405180830381600087803b158015610a9957600080fd5b505af1158015610aad573d6000803e3d6000fd5b50505050600160009054906101000a900473ffffffffffffffffffffffffffffffffffffffff1673ffffffffffffffffffffffffffffffffffffffff1663a9059cbb8684600754026040518363ffffffff1660e01b8152600401610b1292919061395e565b600060405180830381600087803b158015610b2c57600080fd5b505af1158015610b40573d6000803e3d6000fd5b505050505050610b8f565b6000610b8c576040517f08c379a0000000000000000000000000000000000000000000000000000000008152600401610b8390613b4d565b60405180910390fd5b50505b505050565b6000600354905090565b600260009054906101000a900473ffffffffffffffffffffffffffffffffffffffff1673ffffffffffffffffffffffffffffffffffffffff16630323d5ce6040518163ffffffff1660e01b815260040160206040518083038186803b158015610c0657600080fd5b505afa158015610c1a573d6000803e3d6000fd5b505050506040513d601f19601f82011682018060405250610c3e91908101906131ed565b73ffffffffffffffffffffffffffffffffffffffff1663ae4d72e06003546040518263ffffffff1660e01b8152600401610c789190613bdd565b60206040518083038186803b158015610c9057600080fd5b505afa158015610ca4573d6000803e3d6000fd5b505050506040513d601f19601f82011682018060405250610cc891908101906130e5565b73ffffffffffffffffffffffffffffffffffffffff163373ffffffffffffffffffffffffffffffffffffffff1614610cff57600080fd5b80600b60016101000a81548160ff021916908315150217905550600260009054906101000a900473ffffffffffffffffffffffffffffffffffffffff1673ffffffffffffffffffffffffffffffffffffffff1663328d8f72826040518263ffffffff1660e01b8152600401610d749190613aa2565b600060405180830381600087803b158015610d8e57600080fd5b505af1158015610da2573d6000803e3d6000fd5b50505050600260009054906101000a900473ffffffffffffffffffffffffffffffffffffffff1673ffffffffffffffffffffffffffffffffffffffff16638e91e6116004546040518263ffffffff1660e01b8152600401610e039190613bf8565b600060405180830381600087803b158015610e1d57600080fd5b505af1158015610e31573d6000803e3d6000fd5b5050505050565b600080610e43612b99565b60006060600060606000806000600260009054906101000a900473ffffffffffffffffffffffffffffffffffffffff1673ffffffffffffffffffffffffffffffffffffffff16630323d5ce6040518163ffffffff1660e01b815260040160206040518083038186803b158015610eb857600080fd5b505afa158015610ecc573d6000803e3d6000fd5b505050506040513d601f19601f82011682018060405250610ef091908101906131ed565b73ffffffffffffffffffffffffffffffffffffffff1663ae4d72e06003546040518263ffffffff1660e01b8152600401610f2a9190613bdd565b60206040518083038186803b158015610f4257600080fd5b505afa158015610f56573d6000803e3d6000fd5b505050506040513d601f19601f82011682018060405250610f7a91908101906130e5565b60035460056007546008600960009054906101000a900461ffff16600a600b60019054906101000a900460ff16600160009054906101000a900473ffffffffffffffffffffffffffffffffffffffff16600b60009054906101000a900460ff16899950876040518060800160405290816000820160009054906101000a900460b01b75ffffffffffffffffffffffffffffffffffffffffffff191675ffffffffffffffffffffffffffffffffffffffffffff1916815260200160008201600a9054906101000a900460a81b74ffffffffffffffffffffffffffffffffffffffffff191674ffffffffffffffffffffffffffffffffffffffffff191681526020016000820160159054906101000a900460b01b75ffffffffffffffffffffffffffffffffffffffffffff191675ffffffffffffffffffffffffffffffffffffffffffff191681526020016001820160009054906101000a900460a81b74ffffffffffffffffffffffffffffffffffffffffff191674ffffffffffffffffffffffffffffffffffffffffff191681525050975085805480602002602001604051908101604052809291908181526020016000905b828210156111e8578382906000526020600020018054600181600116156101000203166002900480601f0160208091040260200160405190810160405280929190818152602001828054600181600116156101000203166002900480156111d45780601f106111a9576101008083540402835291602001916111d4565b820191906000526020600020905b8154815290600101906020018083116111b757829003601f168201915b50505050508152602001906001019061112c565b505050509550838054600181600116156101000203166002900480601f0160208091040260200160405190810160405280929190818152602001828054600181600116156101000203166002900480156112835780601f1061125857610100808354040283529160200191611283565b820191906000526020600020905b81548152906001019060200180831161126657829003601f168201915b50505050509350995099509950995099509950995099509950995090919293949596979899565b600260009054906101000a900473ffffffffffffffffffffffffffffffffffffffff1673ffffffffffffffffffffffffffffffffffffffff16630323d5ce6040518163ffffffff1660e01b815260040160206040518083038186803b15801561131257600080fd5b505afa158015611326573d6000803e3d6000fd5b505050506040513d601f19601f8201168201806040525061134a91908101906131ed565b73ffffffffffffffffffffffffffffffffffffffff1663ae4d72e06003546040518263ffffffff1660e01b81526004016113849190613bdd565b60206040518083038186803b15801561139c57600080fd5b505afa1580156113b0573d6000803e3d6000fd5b505050506040513d601f19601f820116820180604052506113d491908101906130e5565b73ffffffffffffffffffffffffffffffffffffffff163373ffffffffffffffffffffffffffffffffffffffff161461140b57600080fd5b84600560008201518160000160006101000a81548169ffffffffffffffffffff021916908360b01c0217905550602082015181600001600a6101000a8154816affffffffffffffffffffff021916908360a81c021790555060408201518160000160156101000a81548169ffffffffffffffffffff021916908360b01c021790555060608201518160010160006101000a8154816affffffffffffffffffffff021916908360a81c0217905550905050600084146114cb57836007819055505b600060f81b836000815181106114dd57fe5b60200260200101516000815181106114f157fe5b602001015160f81c60f81b7effffffffffffffffffffffffffffffffffffffffffffffffffffffffffffff19161461153b578260089080519060200190611539929190612c23565b505b60008261ffff1611156115665781600960006101000a81548161ffff021916908361ffff1602179055505b600060f81b8160008151811061157857fe5b602001015160f81c60f81b7effffffffffffffffffffffffffffffffffffffffffffffffffffffffffffff1916146115c25780600a90805190602001906115c0929190612c83565b505b600260009054906101000a900473ffffffffffffffffffffffffffffffffffffffff1673ffffffffffffffffffffffffffffffffffffffff16638e91e6116004546040518263ffffffff1660e01b815260040161161f9190613c26565b600060405180830381600087803b15801561163957600080fd5b505af115801561164d573d6000803e3d6000fd5b505050505050505050565b6060806060600c805490506040519080825280602002602001820160405280156116915781602001602082028038833980820191505090505b5090506060600c805490506040519080825280602002602001820160405280156116ca5781602001602082028038833980820191505090505b50905060008090505b80600c8054905011156117da57600c81815481106116ed57fe5b906000526020600020906004020160030160019054906101000a900460ff166117cd57600c818154811061171d57fe5b906000526020600020906004020160000160009054906101000a900473ffffffffffffffffffffffffffffffffffffffff1683828151811061175b57fe5b602002602001019073ffffffffffffffffffffffffffffffffffffffff16908173ffffffffffffffffffffffffffffffffffffffff1681525050600c81815481106117a257fe5b9060005260206000209060040201600201548282815181106117c057fe5b6020026020010181815250505b80806001019150506116d3565b5081819350935050509091565b6000809054906101000a900473ffffffffffffffffffffffffffffffffffffffff1681565b6000600260009054906101000a900473ffffffffffffffffffffffffffffffffffffffff1673ffffffffffffffffffffffffffffffffffffffff16630323d5ce6040518163ffffffff1660e01b815260040160206040518083038186803b15801561187657600080fd5b505afa15801561188a573d6000803e3d6000fd5b505050506040513d601f19601f820116820180604052506118ae91908101906131ed565b73ffffffffffffffffffffffffffffffffffffffff1663ae4d72e06003546040518263ffffffff1660e01b81526004016118e89190613bdd565b60206040518083038186803b15801561190057600080fd5b505afa158015611914573d6000803e3d6000fd5b505050506040513d601f19601f8201168201806040525061193891908101906130e5565b905090565b600260009054906101000a900473ffffffffffffffffffffffffffffffffffffffff1673ffffffffffffffffffffffffffffffffffffffff16630323d5ce6040518163ffffffff1660e01b815260040160206040518083038186803b1580156119a557600080fd5b505afa1580156119b9573d6000803e3d6000fd5b505050506040513d601f19601f820116820180604052506119dd91908101906131ed565b73ffffffffffffffffffffffffffffffffffffffff1663ae4d72e06003546040518263ffffffff1660e01b8152600401611a179190613bdd565b60206040518083038186803b158015611a2f57600080fd5b505afa158015611a43573d6000803e3d6000fd5b505050506040513d601f19601f82011682018060405250611a6791908101906130e5565b73ffffffffffffffffffffffffffffffffffffffff163373ffffffffffffffffffffffffffffffffffffffff1614611a9e57600080fd5b80600b60006101000a81548160ff02191690836081811115611abc57fe5b0217905550600260009054906101000a900473ffffffffffffffffffffffffffffffffffffffff1673ffffffffffffffffffffffffffffffffffffffff16638e91e6116004546040518263ffffffff1660e01b8152600401611b1e9190613c54565b600060405180830381600087803b158015611b3857600080fd5b505af1158015611b4c573d6000803e3d6000fd5b5050505050565b600160009054906101000a900473ffffffffffffffffffffffffffffffffffffffff1673ffffffffffffffffffffffffffffffffffffffff163373ffffffffffffffffffffffffffffffffffffffff1614611be3576040517f08c379a0000000000000000000000000000000000000000000000000000000008152600401611bda90613b0d565b60405180910390fd5b600b60019054906101000a900460ff16611c32576040517f08c379a0000000000000000000000000000000000000000000000000000000008152600401611c2990613b6d565b60405180910390fd5b6000806000611c4084612965565b92509250925082600754028514611c8c576040517f08c379a0000000000000000000000000000000000000000000000000000000008152600401611c8390613b8d565b60405180910390fd5b428211611cce576040517f08c379a0000000000000000000000000000000000000000000000000000000008152600401611cc590613aed565b60405180910390fd5b611cd6612b7b565b600d60008481526020019081526020016000206040518060400160405290816000820160009054906101000a900461ffff1661ffff1661ffff16815260200160018201805480602002602001604051908101604052809291908181526020018280548015611d6357602002820191906000526020600020905b815481526020019060010190808311611d4f575b5050505050815250509050838160000151600960009054906101000a900461ffff160361ffff161015611dcb576040517f08c379a0000000000000000000000000000000000000000000000000000000008152600401611dc290613b2d565b60405180910390fd5b600260009054906101000a900473ffffffffffffffffffffffffffffffffffffffff1673ffffffffffffffffffffffffffffffffffffffff16632dcac642600454868a600754886040518663ffffffff1660e01b8152600401611e32959493929190613cb9565b600060405180830381600087803b158015611e4c57600080fd5b505af1158015611e60573d6000803e3d6000fd5b5050505060008090505b8481101561206e57600d6000858152602001908152602001600020600001600081819054906101000a900461ffff168092919060010191906101000a81548161ffff021916908361ffff16021790555050600d6000858152602001908152602001600020600101600c805490509080600181540180825580915050906001820390600052602060002001600090919290919091505550600c6040518060a001604052808a73ffffffffffffffffffffffffffffffffffffffff1681526020018573ffffffffffffffffffffffffffffffffffffffff168152602001868152602001600015158152602001600015158152509080600181540180825580915050906001820390600052602060002090600402016000909192909190915060008201518160000160006101000a81548173ffffffffffffffffffffffffffffffffffffffff021916908373ffffffffffffffffffffffffffffffffffffffff16021790555060208201518160010160006101000a81548173ffffffffffffffffffffffffffffffffffffffff021916908373ffffffffffffffffffffffffffffffffffffffff1602179055506040820151816002015560608201518160030160006101000a81548160ff02191690831515021790555060808201518160030160016101000a81548160ff0219169083151502179055505050508080600101915050611e6a565b5050505050505050565b6000600454905090565b6000809054906101000a900473ffffffffffffffffffffffffffffffffffffffff1673ffffffffffffffffffffffffffffffffffffffff163373ffffffffffffffffffffffffffffffffffffffff16146120db57600080fd5b600073ffffffffffffffffffffffffffffffffffffffff168173ffffffffffffffffffffffffffffffffffffffff16141561211557600080fd5b806000806101000a81548173ffffffffffffffffffffffffffffffffffffffff021916908373ffffffffffffffffffffffffffffffffffffffff16021790555050565b600260009054906101000a900473ffffffffffffffffffffffffffffffffffffffff1673ffffffffffffffffffffffffffffffffffffffff16630323d5ce6040518163ffffffff1660e01b815260040160206040518083038186803b1580156121c057600080fd5b505afa1580156121d4573d6000803e3d6000fd5b505050506040513d601f19601f820116820180604052506121f891908101906131ed565b73ffffffffffffffffffffffffffffffffffffffff1663ae4d72e06003546040518263ffffffff1660e01b81526004016122329190613bdd565b60206040518083038186803b15801561224a57600080fd5b505afa15801561225e573d6000803e3d6000fd5b505050506040513d601f19601f8201168201806040525061228291908101906130e5565b73ffffffffffffffffffffffffffffffffffffffff163373ffffffffffffffffffffffffffffffffffffffff16146122b957600080fd5b60608060008090506000809050600080905060008090505b80600c8054905011156125ae57600c81815481106122eb57fe5b906000526020600020906004020160030160009054906101000a900460ff161580156123405750600c818154811061231f57fe5b906000526020600020906004020160030160019054906101000a900460ff16155b8015612369575042600c828154811061235557fe5b906000526020600020906004020160020154105b156125a157600073ffffffffffffffffffffffffffffffffffffffff16600c828154811061239357fe5b906000526020600020906004020160010160009054906101000a900473ffffffffffffffffffffffffffffffffffffffff1673ffffffffffffffffffffffffffffffffffffffff161461254057600061242a87600c84815481106123f357fe5b906000526020600020906004020160010160009054906101000a900473ffffffffffffffffffffffffffffffffffffffff16612afe565b905060008114156124f257600c828154811061244257fe5b906000526020600020906004020160010160009054906101000a900473ffffffffffffffffffffffffffffffffffffffff1687868151811061248057fe5b602002602001019073ffffffffffffffffffffffffffffffffffffffff16908173ffffffffffffffffffffffffffffffffffffffff1681525050600a600754816124c657fe5b048686815181106124d357fe5b6020026020010181815101915081815250508480600101955050612521565b600a600754816124fe57fe5b0486600183038151811061250e57fe5b6020026020010181815101915081815250505b6103e86065600754028161253157fe5b04600754038401935050612557565b6103e86007548161254d57fe5b0460075403830192505b6103e86007548161256457fe5b04820191506001600c828154811061257857fe5b906000526020600020906004020160030160006101000a81548160ff0219169083151502179055505b80806001019150506122d1565b50600073ffffffffffffffffffffffffffffffffffffffff168673ffffffffffffffffffffffffffffffffffffffff16141561271157600260009054906101000a900473ffffffffffffffffffffffffffffffffffffffff1673ffffffffffffffffffffffffffffffffffffffff16630323d5ce6040518163ffffffff1660e01b815260040160206040518083038186803b15801561264c57600080fd5b505afa158015612660573d6000803e3d6000fd5b505050506040513d601f19601f8201168201806040525061268491908101906131ed565b73ffffffffffffffffffffffffffffffffffffffff1663ae4d72e06003546040518263ffffffff1660e01b81526004016126be9190613bdd565b60206040518083038186803b1580156126d657600080fd5b505afa1580156126ea573d6000803e3d6000fd5b505050506040513d601f19601f8201168201806040525061270e91908101906130e5565b95505b7f654be7454f73d17698cc6328c334c6b369ce05eeb009e2fc3189178ed31cf8b186833060405161274493929190613987565b60405180910390a1600160009054906101000a900473ffffffffffffffffffffffffffffffffffffffff1673ffffffffffffffffffffffffffffffffffffffff1663a9059cbb87846040518363ffffffff1660e01b81526004016127a992919061395e565b600060405180830381600087803b1580156127c357600080fd5b505af11580156127d7573d6000803e3d6000fd5b50505050600160009054906101000a900473ffffffffffffffffffffffffffffffffffffffff1673ffffffffffffffffffffffffffffffffffffffff1663a9059cbb600260009054906101000a900473ffffffffffffffffffffffffffffffffffffffff16836040518363ffffffff1660e01b815260040161285a92919061395e565b600060405180830381600087803b15801561287457600080fd5b505af1158015612888573d6000803e3d6000fd5b5050505060008090505b8381101561295c57600160009054906101000a900473ffffffffffffffffffffffffffffffffffffffff1673ffffffffffffffffffffffffffffffffffffffff1663a9059cbb8783815181106128e457fe5b60200260200101518784815181106128f857fe5b60200260200101516040518363ffffffff1660e01b815260040161291d92919061395e565b600060405180830381600087803b15801561293757600080fd5b505af115801561294b573d6000803e3d6000fd5b505050508080600101915050612892565b50505050505050565b60008060008060008090506014865111156129865760148601519150601490505b60008060007fffffffffffffffffffffffffffffffffffffffffffffffffffffffffffffffff905060008490505b60028501811015612a9957600060f81b8a82815181106129d057fe5b602001015160f81c60f81b7effffffffffffffffffffffffffffffffffffffffffffffffffffffffffffff191614158015612a2a57507fffffffffffffffffffffffffffffffffffffffffffffffffffffffffffffffff82145b15612a33578091505b7fffffffffffffffffffffffffffffffffffffffffffffffffffffffffffffffff8214612a8c5784600182010360020360080260020a8a8281518110612a7557fe5b602001015160f81c60f81b60f81c60ff1602840193505b80806001019150506129b4565b5060006002850190505b8951811015612ae857600181018a510360080260020a8a8281518110612ac557fe5b602001015160f81c60f81b60f81c60ff1602830192508080600101915050612aa3565b5082828697509750975050505050509193909250565b600080600090505b8351811015612b6f578273ffffffffffffffffffffffffffffffffffffffff16848281518110612b3257fe5b602002602001015173ffffffffffffffffffffffffffffffffffffffff161415612b625760018101915050612b75565b8080600101915050612b06565b50600090505b92915050565b6040518060400160405280600061ffff168152602001606081525090565b6040518060800160405280600075ffffffffffffffffffffffffffffffffffffffffffff19168152602001600074ffffffffffffffffffffffffffffffffffffffffff19168152602001600075ffffffffffffffffffffffffffffffffffffffffffff19168152602001600074ffffffffffffffffffffffffffffffffffffffffff191681525090565b828054828255906000526020600020908101928215612c72579160200282015b82811115612c71578251829080519060200190612c61929190612d03565b5091602001919060010190612c43565b5b509050612c7f9190612d83565b5090565b828054600181600116156101000203166002900490600052602060002090601f016020900481019282601f10612cc457805160ff1916838001178555612cf2565b82800160010185558215612cf2579182015b82811115612cf1578251825591602001919060010190612cd6565b5b509050612cff9190612daf565b5090565b828054600181600116156101000203166002900490600052602060002090601f016020900481019282601f10612d4457805160ff1916838001178555612d72565b82800160010185558215612d72579182015b82811115612d71578251825591602001919060010190612d56565b5b509050612d7f9190612daf565b5090565b612dac91905b80821115612da85760008181612d9f9190612dd4565b50600101612d89565b5090565b90565b612dd191905b80821115612dcd576000816000905550600101612db5565b5090565b90565b50805460018160011615610100020316600290046000825580601f10612dfa5750612e19565b601f016020900490600052602060002090810190612e189190612daf565b5b50565b600081359050612e2b81614045565b92915050565b600081359050612e408161405c565b92915050565b600081519050612e558161405c565b92915050565b600082601f830112612e6c57600080fd5b8135612e7f612e7a82613d39565b613d0c565b9150818183526020840193506020810190508360005b83811015612ec55781358601612eab8882612f0e565b845260208401935060208301925050600181019050612e95565b5050505092915050565b600081359050612ede81614073565b92915050565b600081359050612ef38161408a565b92915050565b600081359050612f08816140a1565b92915050565b600082601f830112612f1f57600080fd5b8135612f32612f2d82613d61565b613d0c565b91508082526020830160208301858383011115612f4e57600080fd5b612f59838284613fe5565b50505092915050565b600082601f830112612f7357600080fd5b8135612f86612f8182613d8d565b613d0c565b91508082526020830160208301858383011115612fa257600080fd5b612fad838284613fe5565b50505092915050565b600081519050612fc5816140b8565b92915050565b600081359050612fda816140cf565b92915050565b600060808284031215612ff257600080fd5b612ffc6080613d0c565b9050600061300c84828501612ee4565b600083015250602061302084828501612ef9565b602083015250604061303484828501612ee4565b604083015250606061304884828501612ef9565b60608301525092915050565b600081359050613063816140df565b92915050565b600081359050613078816140f6565b92915050565b60008151905061308d816140f6565b92915050565b6000602082840312156130a557600080fd5b60006130b384828501612e1c565b91505092915050565b6000602082840312156130ce57600080fd5b60006130dc84828501612e31565b91505092915050565b6000602082840312156130f757600080fd5b600061310584828501612e46565b91505092915050565b60008060006060848603121561312357600080fd5b600061313186828701612e1c565b935050602061314286828701613069565b925050604084013567ffffffffffffffff81111561315f57600080fd5b61316b86828701612f62565b9150509250925092565b60008060006060848603121561318a57600080fd5b600061319886828701612e1c565b93505060206131a986828701613069565b92505060406131ba86828701613069565b9150509250925092565b6000602082840312156131d657600080fd5b60006131e484828501612ecf565b91505092915050565b6000602082840312156131ff57600080fd5b600061320d84828501612fb6565b91505092915050565b60006020828403121561322857600080fd5b600061323684828501612fcb565b91505092915050565b6000806000806000610100868803121561325857600080fd5b600061326688828901612fe0565b955050608061327788828901613069565b94505060a086013567ffffffffffffffff81111561329457600080fd5b6132a088828901612e5b565b93505060c06132b188828901613054565b92505060e086013567ffffffffffffffff8111156132ce57600080fd5b6132da88828901612f62565b9150509295509295909350565b6000602082840312156132f957600080fd5b600061330784828501613069565b91505092915050565b60006020828403121561332257600080fd5b60006133308482850161307e565b91505092915050565b6000806040838503121561334c57600080fd5b600061335a85828601613069565b925050602083013567ffffffffffffffff81111561337757600080fd5b61338385828601612f62565b9150509250929050565b600061339983836133ef565b60208301905092915050565b60006133b183836135a4565b905092915050565b60006133c583836138ef565b60208301905092915050565b6133da81613f9d565b82525050565b6133e981613eca565b82525050565b6133f881613eb8565b82525050565b61340781613eb8565b82525050565b600061341882613de9565b6134228185613e52565b935061342d83613db9565b8060005b8381101561345e578151613445888261338d565b975061345083613e2b565b925050600181019050613431565b5085935050505092915050565b600061347682613df4565b6134808185613e63565b93508360208202850161349285613dc9565b8060005b858110156134ce57848403895281516134af85826133a5565b94506134ba83613e38565b925060208a01995050600181019050613496565b50829750879550505050505092915050565b60006134eb82613dff565b6134f58185613e74565b935061350083613dd9565b8060005b8381101561353157815161351888826133b9565b975061352383613e45565b925050600181019050613504565b5085935050505092915050565b61354781613edc565b82525050565b61355681613ee8565b82525050565b61356581613f14565b82525050565b600061357682613e15565b6135808185613e96565b9350613590818560208601613ff4565b61359981614027565b840191505092915050565b60006135af82613e0a565b6135b98185613e85565b93506135c9818560208601613ff4565b6135d281614027565b840191505092915050565b6135e681613faf565b82525050565b60006135f782613e20565b6136018185613ea7565b9350613611818560208601613ff4565b61361a81614027565b840191505092915050565b6000613632601d83613ea7565b91507f546865207472697020617420746869732074696d65206973206f7665720000006000830152602082019050919050565b6000613672600a83613ea7565b91507f736574456e61626c6564000000000000000000000000000000000000000000006000830152602082019050919050565b60006136b2600b83613ea7565b91507f73657441727269627574650000000000000000000000000000000000000000006000830152602082019050919050565b60006136f2602d83613ea7565b91507f546869732066756e63696f6e206d7573742062652063616c6c65642066726f6d60008301527f20466c6f74656120546f6b656e000000000000000000000000000000000000006020830152604082019050919050565b6000613758601283613ea7565b91507f4e6f7420656e6f756768207469636b65747300000000000000000000000000006000830152602082019050919050565b6000613798601083613ea7565b91507f5469636b6574206e6f7420666f756e64000000000000000000000000000000006000830152602082019050919050565b60006137d8600a83613ea7565b91507f73657456656869636c65000000000000000000000000000000000000000000006000830152602082019050919050565b6000613818601083613ea7565b91507f547269702069732064697361626c6564000000000000000000000000000000006000830152602082019050919050565b6000613858600b83613ea7565b91507f57726f6e672070726963650000000000000000000000000000000000000000006000830152602082019050919050565b6080820160008201516138a1600085018261354d565b5060208201516138b4602085018261355c565b5060408201516138c7604085018261354d565b5060608201516138da606085018261355c565b50505050565b6138e981613f65565b82525050565b6138f881613f93565b82525050565b61390781613f93565b82525050565b600060208201905061392260008301846133fe565b92915050565b600060208201905061393d60008301846133d1565b92915050565b600060208201905061395860008301846133e0565b92915050565b600060408201905061397360008301856133fe565b61398060208301846138fe565b9392505050565b600060608201905061399c60008301866133fe565b6139a960208301856138fe565b6139b660408301846133fe565b949350505050565b60006101a0820190506139d4600083018d6133fe565b6139e1602083018c6138fe565b6139ee604083018b61388b565b6139fb60c083018a6138fe565b81810360e0830152613a0d818961346b565b9050613a1d6101008301886138e0565b818103610120830152613a30818761356b565b9050613a4061014083018661353e565b613a4e6101608301856133fe565b613a5c6101808301846135dd565b9b9a5050505050505050505050565b60006040820190508181036000830152613a85818561340d565b90508181036020830152613a9981846134e0565b90509392505050565b6000602082019050613ab7600083018461353e565b92915050565b6000604082019050613ad2600083018561353e565b8181036020830152613ae481846135ec565b90509392505050565b60006020820190508181036000830152613b0681613625565b9050919050565b60006020820190508181036000830152613b26816136e5565b9050919050565b60006020820190508181036000830152613b468161374b565b9050919050565b60006020820190508181036000830152613b668161378b565b9050919050565b60006020820190508181036000830152613b868161380b565b9050919050565b60006020820190508181036000830152613ba68161384b565b9050919050565b6000604082019050613bc260008301856138e0565b8181036020830152613bd481846134e0565b90509392505050565b6000602082019050613bf260008301846138fe565b92915050565b6000604082019050613c0d60008301846138fe565b8181036020830152613c1e81613665565b905092915050565b6000604082019050613c3b60008301846138fe565b8181036020830152613c4c816136a5565b905092915050565b6000604082019050613c6960008301846138fe565b8181036020830152613c7a816137cb565b905092915050565b6000606082019050613c9760008301866138fe565b613ca460208301856138fe565b613cb160408301846133fe565b949350505050565b600060a082019050613cce60008301886138fe565b613cdb60208301876138fe565b613ce860408301866133fe565b613cf560608301856138fe565b613d0260808301846138fe565b9695505050505050565b6000604051905081810181811067ffffffffffffffff82111715613d2f57600080fd5b8060405250919050565b600067ffffffffffffffff821115613d5057600080fd5b602082029050602081019050919050565b600067ffffffffffffffff821115613d7857600080fd5b601f19601f8301169050602081019050919050565b600067ffffffffffffffff821115613da457600080fd5b601f19601f8301169050602081019050919050565b6000819050602082019050919050565b6000819050602082019050919050565b6000819050602082019050919050565b600081519050919050565b600081519050919050565b600081519050919050565b600081519050919050565b600081519050919050565b600081519050919050565b6000602082019050919050565b6000602082019050919050565b6000602082019050919050565b600082825260208201905092915050565b600082825260208201905092915050565b600082825260208201905092915050565b600082825260208201905092915050565b600082825260208201905092915050565b600082825260208201905092915050565b6000613ec382613f73565b9050919050565b6000613ed582613f73565b9050919050565b60008115159050919050565b60007fffffffffffffffffffff0000000000000000000000000000000000000000000082169050919050565b60007fffffffffffffffffffffff00000000000000000000000000000000000000000082169050919050565b6000613f4b82613eb8565b9050919050565b6000819050613f6082614038565b919050565b600061ffff82169050919050565b600073ffffffffffffffffffffffffffffffffffffffff82169050919050565b6000819050919050565b6000613fa882613fc1565b9050919050565b6000613fba82613f52565b9050919050565b6000613fcc82613fd3565b9050919050565b6000613fde82613f73565b9050919050565b82818337600083830152505050565b60005b83811015614012578082015181840152602081019050613ff7565b83811115614021576000848401525b50505050565b6000601f19601f8301169050919050565b6082811061404257fe5b50565b61404e81613eb8565b811461405957600080fd5b50565b61406581613eca565b811461407057600080fd5b50565b61407c81613edc565b811461408757600080fd5b50565b61409381613ee8565b811461409e57600080fd5b50565b6140aa81613f14565b81146140b557600080fd5b50565b6140c181613f40565b81146140cc57600080fd5b50565b608281106140dc57600080fd5b50565b6140e881613f65565b81146140f357600080fd5b50565b6140ff81613f93565b811461410a57600080fd5b5056fe596f7520646f206e6f74206861766520656e6f75676820464c5420746f6b656e73a365627a7a7231582015fd8e8fa753cbd49bb6caee8685f167433e96c5db784bffc91516d7e3ecea7b6c6578706572696d656e74616cf564736f6c63430005100040",
  "source": "pragma solidity ^0.5.1;\npragma experimental ABIEncoderV2;\n\nimport \"./Ownable.sol\";\nimport \"./Transport.sol\";\nimport \"./TransportH.sol\";\nimport \"./FloteaToken.sol\";\nimport \"./ERC223_receiving_contract.sol\";\n\ncontract Trip is Ownable, ERC223ReceivingContract{\n\n    struct TripLoc {\n        bytes10 fromLat;\n        bytes11 fromLng;\n        bytes10 toLat;\n        bytes11 toLng;\n    }\n    \n    struct Ticket {\n        address buyer;\n        address agency;\n        uint time;\n        bool purchased;\n        bool refunded;\n    }\n    \n    struct TicketInTime {\n        uint16 tickets;\n        uint[] indexes;\n    }\n    \n    event Charged(address carrierAddress, uint amount, address tripContract);\n    \n    FloteaToken token;\n    Transport transport;\n    uint carrierId;\n    uint tripId;\n    TripLoc tripLoc;\n    uint price;\n    bytes[] schedule;\n    uint16 places;\n    bytes description;\n    TransportH.RouteType routeType;\n    bool enabled;\n    Ticket[] tickets;\n    mapping (uint => TicketInTime) purchasedTicketInTime;\n\n    modifier onlyTripOwner() {\n        require(msg.sender == transport.getCarriers().getCarrierAddress(carrierId));\n        _;\n    }\n\n    constructor (uint _carrierId, uint _tripId, TripLoc memory _tripLoc, uint _price,\n        bytes[] memory _schedule, uint16 _places, bytes memory _description,\n        TransportH.RouteType _routeType, bool _enabled) public {\n        transport = Transport(msg.sender);\n        token = FloteaToken(transport.tokenAddress());\n        carrierId = _carrierId;\n        tripId = _tripId;\n        tripLoc = _tripLoc;    \n        price = _price;\n        schedule = _schedule;\n        places = _places;\n        description = _description;\n        routeType = _routeType;\n        enabled = _enabled;\n    }\n    \n    function setArribute(TripLoc memory _tripLoc, uint _price,\n        bytes[] memory _schedule, uint16 _places, bytes memory _description) public onlyTripOwner {\n        tripLoc = _tripLoc;\n\n        if(_price != 0)\n        price = _price;\n        if(_schedule[0][0] != 0)\n        schedule = _schedule;\n        if(_places > 0)\n        places = _places;\n        if(_description[0] != 0)\n        description = _description;\n        transport.emitTripUpdateEvent(tripId, \"setArribute\");\n    }\n    \n    function setVehicle(TransportH.RouteType _routeType) public onlyTripOwner{\n        routeType = _routeType;\n        transport.emitTripUpdateEvent(tripId, \"setVehicle\");\n    }\n    \n    function setEnabled(bool _enabled) public onlyTripOwner{\n        enabled = _enabled;\n        transport.setEnabled(_enabled);\n        transport.emitTripUpdateEvent(tripId, \"setEnabled\");\n    }\n    \n    function info() public view returns(address carrierAddress, uint _carrierId, TripLoc memory _tripLoc,\n        uint _price, bytes[] memory _schedule, uint16 _places, bytes memory _description, bool _enabled, address _token, TransportH.RouteType _routeType){\n        return(transport.getCarriers().getCarrierAddress(carrierId), carrierId, tripLoc, price, schedule, places, description, enabled, address(token), routeType);\n    }\n\n    function getCarrierAddress () public view returns(address) {\n        return transport.getCarriers().getCarrierAddress(carrierId);\n    }\n\n    function getCarrierId () public view returns(uint) {\n        return carrierId;\n    }\n\n    function getTripId () public view returns(uint) {\n        return tripId;\n    }\n    \n    function refund(address _buyer, uint _time, uint _count) public onlyTripOwner {\n        uint founded = 0;\n        TicketInTime memory purchasedTicket = purchasedTicketInTime[_time]; // Tickets in time\n        for(uint i = 0; purchasedTicket.indexes.length > i; i++) {\n            if(tickets[ purchasedTicket.indexes[i] ].buyer == _buyer && !tickets[ purchasedTicket.indexes[i] ].refunded && founded <= _count){ // Find first founded ticket from buyer\n                founded++;\n                tickets[ purchasedTicket.indexes[i] ].refunded = true;\n                purchasedTicket.tickets--; // Decrease buyed tickets\n            }\n        }\n        if(founded > 0){\n            transport.emitRefundedTickets ( tripId, founded, _buyer);\n            token.transfer(_buyer, price*founded); // Refund tokens\n            return;\n        }\n        require (false, \"Ticket not found\");\n    }\n\n    function getTickets() public view returns(address[] memory addresses, uint[] memory times){\n        address[] memory tempAddreses = new address[](tickets.length);\n        uint[] memory tempTimes = new uint[](tickets.length);\n\n        for(uint i = 0; tickets.length > i; i++){\n            if(!tickets[i].refunded){\n                tempAddreses[i] = tickets[i].buyer;\n                tempTimes[i] = tickets[i].time;\n            }\n        }\n        return (tempAddreses, tempTimes);\n    }\n    \n    function getTickets(uint _time) public view returns(uint16 ticketsArray, uint[] memory indexesArray){\n        return (purchasedTicketInTime[_time].tickets, purchasedTicketInTime[_time].indexes);\n    }\n\n    function getIndex(address[] memory agencies, address search) private pure returns(uint index){\n        for(uint i = 0; i < agencies.length; i++){\n            if(agencies[i] == search)\n            return i+1;\n        }\n        return 0;\n    }\n    \n    function charge(address _to) public onlyTripOwner {\n        address[] memory agencies;\n        uint[] memory tocharge;\n        uint al = 0;\n        uint carrier = 0;\n        uint toContract = 0;\n        for(uint i = 0; tickets.length > i; i++) {\n            if(!tickets[i].purchased && !tickets[i].refunded && tickets[i].time < now){\n                if(tickets[i].agency != address(0)){\n                    uint index = getIndex(agencies, tickets[i].agency);\n                    if(index == 0){\n                        agencies[al] = tickets[i].agency; // Add to array of agencies for charge\n                        tocharge[al] += price / 10; // 10%\n                        al++;\n                    } else {\n                        tocharge[index-1] += price / 10; // 10%    \n                    }\n                    carrier += price - price * 101 / 1000; // price - 0,1% - 10%\n                } else {\n                    carrier += price - price / 1000; // price - 0,1%\n                }\n                toContract += price / 1000; // 0,1%\n                tickets[i].purchased = true;\n            }\n        }\n        if(_to == address(0)){ \n            _to = transport.getCarriers().getCarrierAddress(carrierId);\n        }\n        emit Charged(_to, carrier, address(this));\n        token.transfer(_to, carrier); // Transfer to carrier\n        token.transfer(address(transport), toContract); // Transfer to toContract company\n        for(uint i = 0; i < al; i++){\n             token.transfer(agencies[i], tocharge[i]); // Transfer to agency\n        }\n    }\n\n    function beforeBuy (uint _value, bytes memory _data) public view returns(bool, string memory){\n        // check if user have enough tokens\n        if(token.balanceOf(msg.sender) < _value)\n        return ( true, \"You do not have enough FLT tokens\");\n        if(!enabled)\n        return( true, \"Trip is disabled\");\n        (uint count, uint time,) = decodeBytes(_data);\n        if(_value != price*count)\n        return( true, \"Wrong price\");\n        if(time <= now)\n        return( true, \"The trip at this time is over\");\n        TicketInTime memory purchasedTicket = purchasedTicketInTime[time];\n        if (places - purchasedTicket.tickets < count)\n        return( true, \"Not enough tickets\");\n        return(false, \"ok\");\n    }\n    \n    \n    // Buing ticket\n    function tokenFallback(address _from, uint _value, bytes memory _data) public {\n        require(msg.sender == address(token), \"This funcion must be called from Flotea Token\");\n        require(enabled, \"Trip is disabled\");\n        (uint count, uint time, address agency) = decodeBytes(_data);\n        require(_value == price*count, \"Wrong price\");\n        require(time > now, \"The trip at this time is over\");\n        TicketInTime memory purchasedTicket = purchasedTicketInTime[time];\n        require (places - purchasedTicket.tickets >= count , \"Not enough tickets\");\n        \n        transport.emitPurchasedTicket(tripId, count, _from, price, time);\n\n        for(uint i=0; i < count; i++){\n            purchasedTicketInTime[time].tickets++;\n            purchasedTicketInTime[time].indexes.push(tickets.length);\n            tickets.push( Ticket(_from, agency, time, false, false) );\n        }\n    }\n    \n    // \n    function decodeBytes(bytes memory b) private pure returns (uint, uint, address){\n        address agency;\n        uint pos = 0; \n        if(b.length>20){\n            assembly {\n                agency := mload(add(b,20))\n            }\n            pos = 20;\n        }\n        uint count;\n        uint time;\n        int p = -1;\n        for(uint i=pos;i<pos+2;i++){\n            if(b[i] != 0 && p == -1){\n                p = int(i);\n            } \n            if(p!=-1){\n                count = count + uint8(b[i])*(2**(8*(2-(i+1-pos))));\n            }\n        }\n        for(uint i=pos+2;i<b.length;i++){\n            time = time + uint8(b[i])*(2**(8*(b.length -(i+1))));\n        }\n        return (count, time, agency);\n    }\n}",
  "sourcePath": "/home/martin/eth-contract/transport-eth-contracts/contracts/Trip.sol",
  "compiler": {
    "name": "solc",
    "version": "0.5.16+commit.9c3226ce.Emscripten.clang"
  },
  "schemaVersion": "3.1.0",
  "updatedAt": "2020-04-29T23:43:01.069Z",
  "devdoc": {
    "methods": {
      "transferOwnership(address)": {
        "details": "Allows the current owner to transfer control of the contract to a newOwner.",
        "params": {
          "newOwner": "The address to transfer ownership to."
        }
      }
    }
  },
  "userdoc": {
    "methods": {
      "transferOwnership(address)": {
        "notice": "transferOwnership"
      }
    }
  }
}