{
  "contractName": "VotingIco",
  "abi": [
    {
      "anonymous": false,
      "inputs": [
        {
          "indexed": false,
          "internalType": "bytes32",
          "name": "description",
          "type": "bytes32"
        },
        {
          "indexed": false,
          "internalType": "bool",
          "name": "result",
          "type": "bool"
        },
        {
          "indexed": false,
          "internalType": "uint256",
          "name": "proposalIndex",
          "type": "uint256"
        }
      ],
      "name": "FinishVoting",
      "type": "event"
    },
    {
      "anonymous": false,
      "inputs": [
        {
          "indexed": false,
          "internalType": "bytes32",
          "name": "description",
          "type": "bytes32"
        },
        {
          "indexed": false,
          "internalType": "uint256",
          "name": "endTime",
          "type": "uint256"
        },
        {
          "indexed": false,
          "internalType": "enum VotingIco.ActionType",
          "name": "actionType",
          "type": "uint8"
        },
        {
          "indexed": false,
          "internalType": "address",
          "name": "actionAddress",
          "type": "address"
        },
        {
          "indexed": false,
          "internalType": "bytes32",
          "name": "name",
          "type": "bytes32"
        },
        {
          "indexed": false,
          "internalType": "uint256",
          "name": "amount",
          "type": "uint256"
        },
        {
          "indexed": false,
          "internalType": "uint256",
          "name": "proposalIndex",
          "type": "uint256"
        }
      ],
      "name": "ProposalCreated",
      "type": "event"
    },
    {
      "anonymous": false,
      "inputs": [
        {
          "indexed": false,
          "internalType": "bytes32",
          "name": "description",
          "type": "bytes32"
        },
        {
          "indexed": false,
          "internalType": "uint256",
          "name": "proposalIndex",
          "type": "uint256"
        },
        {
          "indexed": false,
          "internalType": "address",
          "name": "addr",
          "type": "address"
        },
        {
          "indexed": false,
          "internalType": "uint8",
          "name": "vote",
          "type": "uint8"
        }
      ],
      "name": "Vote",
      "type": "event"
    },
    {
      "constant": true,
      "inputs": [],
      "name": "owner",
      "outputs": [
        {
          "internalType": "address payable",
          "name": "",
          "type": "address"
        }
      ],
      "payable": false,
      "stateMutability": "view",
      "type": "function"
    },
    {
      "constant": true,
      "inputs": [
        {
          "internalType": "uint256",
          "name": "",
          "type": "uint256"
        }
      ],
      "name": "participants",
      "outputs": [
        {
          "internalType": "bytes32",
          "name": "name",
          "type": "bytes32"
        },
        {
          "internalType": "address",
          "name": "addr",
          "type": "address"
        }
      ],
      "payable": false,
      "stateMutability": "view",
      "type": "function"
    },
    {
      "constant": true,
      "inputs": [
        {
          "internalType": "uint256",
          "name": "",
          "type": "uint256"
        }
      ],
      "name": "proposals",
      "outputs": [
        {
          "internalType": "bytes32",
          "name": "description",
          "type": "bytes32"
        },
        {
          "internalType": "uint256",
          "name": "endTime",
          "type": "uint256"
        },
        {
          "internalType": "uint8",
          "name": "result",
          "type": "uint8"
        },
        {
          "internalType": "enum VotingIco.ActionType",
          "name": "actionType",
          "type": "uint8"
        },
        {
          "internalType": "address payable",
          "name": "actionAddress",
          "type": "address"
        },
        {
          "internalType": "bytes32",
          "name": "name",
          "type": "bytes32"
        },
        {
          "internalType": "uint256",
          "name": "amount",
          "type": "uint256"
        }
      ],
      "payable": false,
      "stateMutability": "view",
      "type": "function"
    },
    {
      "constant": true,
      "inputs": [
        {
          "internalType": "enum VotingIco.ActionType",
          "name": "_actionType",
          "type": "uint8"
        },
        {
          "internalType": "address payable",
          "name": "_actionAddress",
          "type": "address"
        },
        {
          "internalType": "address",
          "name": "_senderAddress",
          "type": "address"
        }
      ],
      "name": "beforeCreateProposal",
      "outputs": [
        {
          "internalType": "bool",
          "name": "",
          "type": "bool"
        },
        {
          "internalType": "string",
          "name": "",
          "type": "string"
        }
      ],
      "payable": false,
      "stateMutability": "view",
      "type": "function"
    },
    {
      "constant": false,
      "inputs": [
        {
          "internalType": "bytes32",
          "name": "_description",
          "type": "bytes32"
        },
        {
          "internalType": "uint256",
          "name": "_durationHours",
          "type": "uint256"
        },
        {
          "internalType": "enum VotingIco.ActionType",
          "name": "_actionType",
          "type": "uint8"
        },
        {
          "internalType": "address payable",
          "name": "_actionAddress",
          "type": "address"
        },
        {
          "internalType": "bytes32",
          "name": "_name",
          "type": "bytes32"
        },
        {
          "internalType": "uint256",
          "name": "_amount",
          "type": "uint256"
        }
      ],
      "name": "createProposal",
      "outputs": [],
      "payable": false,
      "stateMutability": "nonpayable",
      "type": "function"
    },
    {
      "constant": true,
      "inputs": [
        {
          "internalType": "uint256",
          "name": "proposalIndex",
          "type": "uint256"
        },
        {
          "internalType": "address",
          "name": "senderAddress",
          "type": "address"
        }
      ],
      "name": "beforeVoteInProposal",
      "outputs": [
        {
          "internalType": "bool",
          "name": "",
          "type": "bool"
        },
        {
          "internalType": "string",
          "name": "",
          "type": "string"
        }
      ],
      "payable": false,
      "stateMutability": "view",
      "type": "function"
    },
    {
      "constant": false,
      "inputs": [
        {
          "internalType": "uint256",
          "name": "proposalIndex",
          "type": "uint256"
        },
        {
          "internalType": "uint8",
          "name": "vote",
          "type": "uint8"
        }
      ],
      "name": "voteInProposal",
      "outputs": [],
      "payable": false,
      "stateMutability": "nonpayable",
      "type": "function"
    },
    {
      "constant": true,
      "inputs": [
        {
          "internalType": "uint256",
          "name": "proposalIndex",
          "type": "uint256"
        },
        {
          "internalType": "address",
          "name": "senderAddress",
          "type": "address"
        }
      ],
      "name": "beforeFinishProposal",
      "outputs": [
        {
          "internalType": "bool",
          "name": "error",
          "type": "bool"
        },
        {
          "internalType": "string",
          "name": "message",
          "type": "string"
        },
        {
          "internalType": "uint256",
          "name": "votedYes",
          "type": "uint256"
        },
        {
          "internalType": "uint256",
          "name": "votedNo",
          "type": "uint256"
        }
      ],
      "payable": false,
      "stateMutability": "view",
      "type": "function"
    },
    {
      "constant": false,
      "inputs": [
        {
          "internalType": "uint256",
          "name": "proposalIndex",
          "type": "uint256"
        }
      ],
      "name": "finishProposal",
      "outputs": [],
      "payable": false,
      "stateMutability": "nonpayable",
      "type": "function"
    },
    {
      "constant": true,
      "inputs": [
        {
          "internalType": "uint256",
          "name": "index",
          "type": "uint256"
        }
      ],
      "name": "statusOfProposal",
      "outputs": [
        {
          "internalType": "address[]",
          "name": "",
          "type": "address[]"
        },
        {
          "internalType": "bytes32[]",
          "name": "",
          "type": "bytes32[]"
        },
        {
          "internalType": "uint8[]",
          "name": "",
          "type": "uint8[]"
        }
      ],
      "payable": false,
      "stateMutability": "view",
      "type": "function"
    },
    {
      "constant": true,
      "inputs": [],
      "name": "proposalsLength",
      "outputs": [
        {
          "internalType": "uint256",
          "name": "",
          "type": "uint256"
        }
      ],
      "payable": false,
      "stateMutability": "view",
      "type": "function"
    },
    {
      "constant": true,
      "inputs": [],
      "name": "participantsLength",
      "outputs": [
        {
          "internalType": "uint256",
          "name": "",
          "type": "uint256"
        }
      ],
      "payable": false,
      "stateMutability": "view",
      "type": "function"
    }
  ],
  "bytecode": "0x608060405234801561001057600080fd5b50612671806100206000396000f3fe608060405234801561001057600080fd5b50600436106100b45760003560e01c80634c9807bb116100715780634c9807bb146102bd5780636ca19679146103b25780638da5cb5b14610492578063bfd6e79f146104dc578063c4330507146105ef578063d035e72f146106c1576100b4565b8063013cf08b146100b9578063048bc9ec1461016557806327393278146101de57806335c1d3491461020c5780634158506a1461028157806344c7c8671461029f575b600080fd5b6100e5600480360360208110156100cf57600080fd5b81019080803590602001909291905050506106fc565b604051808881526020018781526020018660ff1660ff16815260200185600381111561010d57fe5b60ff1681526020018473ffffffffffffffffffffffffffffffffffffffff1673ffffffffffffffffffffffffffffffffffffffff16815260200183815260200182815260200197505050505050505060405180910390f35b6101dc600480360360c081101561017b57600080fd5b810190808035906020019092919080359060200190929190803560ff169060200190929190803573ffffffffffffffffffffffffffffffffffffffff1690602001909291908035906020019092919080359060200190929190505050610785565b005b61020a600480360360208110156101f457600080fd5b8101908080359060200190929190505050610a42565b005b6102386004803603602081101561022257600080fd5b81019080803590602001909291905050506111f1565b604051808381526020018273ffffffffffffffffffffffffffffffffffffffff1673ffffffffffffffffffffffffffffffffffffffff1681526020019250505060405180910390f35b610289611242565b6040518082815260200191505060405180910390f35b6102a761124f565b6040518082815260200191505060405180910390f35b61032c600480360360608110156102d357600080fd5b81019080803560ff169060200190929190803573ffffffffffffffffffffffffffffffffffffffff169060200190929190803573ffffffffffffffffffffffffffffffffffffffff16906020019092919050505061125c565b604051808315151515815260200180602001828103825283818151815260200191508051906020019080838360005b8381101561037657808201518184015260208101905061035b565b50505050905090810190601f1680156103a35780820380516001836020036101000a031916815260200191505b50935050505060405180910390f35b6103fe600480360360408110156103c857600080fd5b8101908080359060200190929190803573ffffffffffffffffffffffffffffffffffffffff169060200190929190505050611437565b604051808515151515815260200180602001848152602001838152602001828103825285818151815260200191508051906020019080838360005b83811015610454578082015181840152602081019050610439565b50505050905090810190601f1680156104815780820380516001836020036101000a031916815260200191505b509550505050505060405180910390f35b61049a611bfe565b604051808273ffffffffffffffffffffffffffffffffffffffff1673ffffffffffffffffffffffffffffffffffffffff16815260200191505060405180910390f35b610508600480360360208110156104f257600080fd5b8101908080359060200190929190505050611c24565b60405180806020018060200180602001848103845287818151815260200191508051906020019060200280838360005b83811015610553578082015181840152602081019050610538565b50505050905001848103835286818151815260200191508051906020019060200280838360005b8381101561059557808201518184015260208101905061057a565b50505050905001848103825285818151815260200191508051906020019060200280838360005b838110156105d75780820151818401526020810190506105bc565b50505050905001965050505050505060405180910390f35b61063b6004803603604081101561060557600080fd5b8101908080359060200190929190803573ffffffffffffffffffffffffffffffffffffffff169060200190929190505050611fc6565b604051808315151515815260200180602001828103825283818151815260200191508051906020019080838360005b8381101561068557808201518184015260208101905061066a565b50505050905090810190601f1680156106b25780820380516001836020036101000a031916815260200191505b50935050505060405180910390f35b6106fa600480360360408110156106d757600080fd5b8101908080359060200190929190803560ff169060200190929190505050612247565b005b6004818154811061070957fe5b90600052602060002090600602016000915090508060000154908060010154908060020160009054906101000a900460ff16908060020160019054906101000a900460ff16908060020160029054906101000a900473ffffffffffffffffffffffffffffffffffffffff16908060030154908060040154905087565b6000606061079486863361125c565b9150915081158190610841576040517f08c379a00000000000000000000000000000000000000000000000000000000081526004018080602001828103825283818151815260200191508051906020019080838360005b838110156108065780820151818401526020810190506107eb565b50505050905090810190601f1680156108335780820380516001836020036101000a031916815260200191505b509250505060405180910390fd5b506000610e1088024201905060046040518060e001604052808b8152602001838152602001600260ff16815260200189600381111561087c57fe5b81526020018873ffffffffffffffffffffffffffffffffffffffff1681526020018781526020018681525090806001815401808255809150509060018203906000526020600020906006020160009091929091909150600082015181600001556020820151816001015560408201518160020160006101000a81548160ff021916908360ff16021790555060608201518160020160016101000a81548160ff0219169083600381111561092b57fe5b021790555060808201518160020160026101000a81548173ffffffffffffffffffffffffffffffffffffffff021916908373ffffffffffffffffffffffffffffffffffffffff16021790555060a0820151816003015560c082015181600401555050507f5a22095404761c56fdc0a2e7cf9111a91ff494b817685d5b0c34ddc0f134c50e898289898989600160048054905003604051808881526020018781526020018660038111156109da57fe5b60ff1681526020018573ffffffffffffffffffffffffffffffffffffffff1673ffffffffffffffffffffffffffffffffffffffff16815260200184815260200183815260200182815260200197505050505050505060405180910390a1505050505050505050565b60006060600080610a538533611437565b935093509350935083158390610b04576040517f08c379a00000000000000000000000000000000000000000000000000000000081526004018080602001828103825283818151815260200191508051906020019080838360005b83811015610ac9578082015181840152602081019050610aae565b50505050905090810190601f168015610af65780820380516001836020036101000a031916815260200191505b509250505060405180910390fd5b50808211610b13576000610b16565b60015b60048681548110610b2357fe5b906000526020600020906006020160020160006101000a81548160ff021916908360ff1602179055508082111561117f5760006003811115610b6157fe5b60048681548110610b6e57fe5b906000526020600020906006020160020160019054906101000a900460ff166003811115610b9857fe5b1415610d67576000610be760048781548110610bb057fe5b906000526020600020906006020160020160029054906101000a900473ffffffffffffffffffffffffffffffffffffffff16612496565b14610c5a576040517f08c379a000000000000000000000000000000000000000000000000000000000815260040180806020018281038252601e8152602001807f54686973207061727469636970616e7420616c7265616479206578697374000081525060200191505060405180910390fd5b6003604051806040016040528060048881548110610c7457fe5b906000526020600020906006020160030154815260200160048881548110610c9857fe5b906000526020600020906006020160020160029054906101000a900473ffffffffffffffffffffffffffffffffffffffff1673ffffffffffffffffffffffffffffffffffffffff16815250908060018154018082558091505090600182039060005260206000209060020201600090919290919091506000820151816000015560208201518160010160006101000a81548173ffffffffffffffffffffffffffffffffffffffff021916908373ffffffffffffffffffffffffffffffffffffffff16021790555050505061117e565b60016003811115610d7457fe5b60048681548110610d8157fe5b906000526020600020906006020160020160019054906101000a900460ff166003811115610dab57fe5b1415610ecd5760006001610dfc60048881548110610dc557fe5b906000526020600020906006020160020160029054906101000a900473ffffffffffffffffffffffffffffffffffffffff16612496565b039050600360016003805490500381548110610e1457fe5b906000526020600020906002020160038281548110610e2f57fe5b9060005260206000209060020201600082015481600001556001820160009054906101000a900473ffffffffffffffffffffffffffffffffffffffff168160010160006101000a81548173ffffffffffffffffffffffffffffffffffffffff021916908373ffffffffffffffffffffffffffffffffffffffff1602179055509050506003805480919060019003610ec69190612541565b505061117d565b60026003811115610eda57fe5b60048681548110610ee757fe5b906000526020600020906006020160020160019054906101000a900460ff166003811115610f1157fe5b1415610fbf5760048581548110610f2457fe5b906000526020600020906006020160020160029054906101000a900473ffffffffffffffffffffffffffffffffffffffff1673ffffffffffffffffffffffffffffffffffffffff166108fc60048781548110610f7c57fe5b9060005260206000209060060201600401549081150290604051600060405180830381858888f19350505050158015610fb9573d6000803e3d6000fd5b5061117c565b600380811115610fcb57fe5b60048681548110610fd857fe5b906000526020600020906006020160020160019054906101000a900460ff16600381111561100257fe5b141561117b576000809054906101000a900473ffffffffffffffffffffffffffffffffffffffff1673ffffffffffffffffffffffffffffffffffffffff166323b872dd600160009054906101000a900473ffffffffffffffffffffffffffffffffffffffff166004888154811061107557fe5b906000526020600020906006020160020160029054906101000a900473ffffffffffffffffffffffffffffffffffffffff16600489815481106110b457fe5b9060005260206000209060060201600401546040518463ffffffff1660e01b8152600401808473ffffffffffffffffffffffffffffffffffffffff1673ffffffffffffffffffffffffffffffffffffffff1681526020018373ffffffffffffffffffffffffffffffffffffffff1673ffffffffffffffffffffffffffffffffffffffff1681526020018281526020019350505050600060405180830381600087803b15801561116257600080fd5b505af1158015611176573d6000803e3d6000fd5b505050505b5b5b5b5b7fb89b889fb44aa067abcdcd537d53a8d8e84eb6ffa00368dd937318c80d77e75e600486815481106111ad57fe5b906000526020600020906006020160000154828411876040518084815260200183151515158152602001828152602001935050505060405180910390a15050505050565b600381815481106111fe57fe5b90600052602060002090600202016000915090508060000154908060010160009054906101000a900473ffffffffffffffffffffffffffffffffffffffff16905082565b6000600380549050905090565b6000600480549050905090565b60006060600061126b85612496565b9050600061127885612496565b14156112c05760016040518060400160405280601a81526020017f596f7520617265206e6f7420696e207061727469636970616e74000000000000815250925092505061142f565b600060038111156112cd57fe5b8660038111156112d957fe5b1480156112e7575060008114155b1561132e5760016040518060400160405280601e81526020017f54686973207061727469636970616e7420616c72656164792065786973740000815250925092505061142f565b6001600381111561133b57fe5b86600381111561134757fe5b1480156113545750600081145b1561139b5760016040518060400160405280601f81526020017f54686973206973206e6f74207061727469636970616e74206164647265737300815250925092505061142f565b600160038111156113a857fe5b8660038111156113b457fe5b1480156113c75750600260038054905011155b156113f157600160405180606001604052806022815260200161261b60229139925092505061142f565b60006040518060400160405280600281526020017f6f6b00000000000000000000000000000000000000000000000000000000000081525092509250505b935093915050565b60006060600080600061144986612496565b90506000809050600080905060008090506000600380549050905060008090505b808211156116b35760048c8154811061147f57fe5b906000526020600020906006020160050160006003838154811061149f57fe5b906000526020600020906002020160010160009054906101000a900473ffffffffffffffffffffffffffffffffffffffff1673ffffffffffffffffffffffffffffffffffffffff1673ffffffffffffffffffffffffffffffffffffffff16815260200190815260200160002060000160009054906101000a900460ff16156116a6578280600101935050600160048d8154811061153857fe5b906000526020600020906006020160050160006003848154811061155857fe5b906000526020600020906002020160010160009054906101000a900473ffffffffffffffffffffffffffffffffffffffff1673ffffffffffffffffffffffffffffffffffffffff1673ffffffffffffffffffffffffffffffffffffffff16815260200190815260200160002060000160019054906101000a900460ff1660ff1614156115e75784806001019550505b600060048d815481106115f657fe5b906000526020600020906006020160050160006003848154811061161657fe5b906000526020600020906002020160010160009054906101000a900473ffffffffffffffffffffffffffffffffffffffff1673ffffffffffffffffffffffffffffffffffffffff1673ffffffffffffffffffffffffffffffffffffffff16815260200190815260200160002060000160019054906101000a900460ff1660ff1614156116a55783806001019450505b5b808060010191505061146a565b50600085141561170b57600184846040518060400160405280601a81526020017f596f7520617265206e6f7420696e207061727469636970616e74000000000000815250919098509850985098505050505050611bf5565b8a6004805490501161176557600184846040518060400160405280601781526020017f50726f706f73616c20646f6573206e6f74206578697374000000000000000000815250919098509850985098505050505050611bf5565b600260048c8154811061177457fe5b906000526020600020906006020160020160009054906101000a900460ff1660ff16146117e957600184846040518060400160405280601381526020017f566f74696e67206861732066696e697368656400000000000000000000000000815250919098509850985098505050505050611bf5565b60048b815481106117f657fe5b90600052602060002090600602016001015442111580156118175750818114155b1561186a57600184846040518060400160405280601681526020017f566f74696e67206973206e6f742066696e697368656400000000000000000000815250919098509850985098505050505050611bf5565b6002600381111561187757fe5b60048c8154811061188457fe5b906000526020600020906006020160020160019054906101000a900460ff1660038111156118ae57fe5b1480156118d8575060048b815481106118c357fe5b90600052602060002090600602016004015447105b1561192b57600184846040518060400160405280600f81526020017f4c6f77204554482062616c616e63650000000000000000000000000000000000815250919098509850985098505050505050611bf5565b60038081111561193757fe5b60048c8154811061194457fe5b906000526020600020906006020160020160019054906101000a900460ff16600381111561196e57fe5b148015611a92575060048b8154811061198357fe5b9060005260206000209060060201600401546000809054906101000a900473ffffffffffffffffffffffffffffffffffffffff1673ffffffffffffffffffffffffffffffffffffffff166370a08231600160009054906101000a900473ffffffffffffffffffffffffffffffffffffffff166040518263ffffffff1660e01b8152600401808273ffffffffffffffffffffffffffffffffffffffff1673ffffffffffffffffffffffffffffffffffffffff16815260200191505060206040518083038186803b158015611a5557600080fd5b505afa158015611a69573d6000803e3d6000fd5b505050506040513d6020811015611a7f57600080fd5b8101908080519060200190929190505050105b15611ae557600184846040518060400160405280600f81526020017f4c6f7720464c542062616c616e63650000000000000000000000000000000000815250919098509850985098505050505050611bf5565b60016003811115611af257fe5b60048c81548110611aff57fe5b906000526020600020906006020160020160019054906101000a900460ff166003811115611b2957fe5b148015611b365750600281145b15611b6c57600184846040518060600160405280602881526020016125f360289139919098509850985098505050505050611bf5565b81600380549050038211611bab57600184846040518060600160405280603181526020016125c260319139919098509850985098505050505050611bf5565b600084846040518060400160405280600281526020017f6f6b0000000000000000000000000000000000000000000000000000000000008152509190985098509850985050505050505b92959194509250565b600260009054906101000a900473ffffffffffffffffffffffffffffffffffffffff1681565b60608060608360048054905011611ca3576040517f08c379a00000000000000000000000000000000000000000000000000000000081526004018080602001828103825260128152602001807f50726f706f73616c206e6f74206578697374000000000000000000000000000081525060200191505060405180910390fd5b6060600380549050604051908082528060200260200182016040528015611cd95781602001602082028038833980820191505090505b5090506060600380549050604051908082528060200260200182016040528015611d125781602001602082028038833980820191505090505b5090506060600380549050604051908082528060200260200182016040528015611d4b5781602001602082028038833980820191505090505b509050600080905060008090505b806003805490501115611fb15760048981548110611d7357fe5b9060005260206000209060060201600501600060038381548110611d9357fe5b906000526020600020906002020160010160009054906101000a900473ffffffffffffffffffffffffffffffffffffffff1673ffffffffffffffffffffffffffffffffffffffff1673ffffffffffffffffffffffffffffffffffffffff16815260200190815260200160002060000160009054906101000a900460ff1615611fa45760038181548110611e2257fe5b906000526020600020906002020160010160009054906101000a900473ffffffffffffffffffffffffffffffffffffffff16858381518110611e6057fe5b602002602001019073ffffffffffffffffffffffffffffffffffffffff16908173ffffffffffffffffffffffffffffffffffffffff168152505060038181548110611ea757fe5b906000526020600020906002020160000154848381518110611ec557fe5b60200260200101818152505060048981548110611ede57fe5b9060005260206000209060060201600501600060038381548110611efe57fe5b906000526020600020906002020160010160009054906101000a900473ffffffffffffffffffffffffffffffffffffffff1673ffffffffffffffffffffffffffffffffffffffff1673ffffffffffffffffffffffffffffffffffffffff16815260200190815260200160002060000160019054906101000a900460ff16838381518110611f8757fe5b602002602001019060ff16908160ff168152505081806001019250505b8080600101915050611d59565b50838383965096509650505050509193909250565b600060606000611fd584612496565b905060008114156120225760016040518060400160405280601a81526020017f596f7520617265206e6f7420696e207061727469636970616e740000000000008152509250925050612240565b84600480549050116120705760016040518060400160405280601281526020017f50726f706f73616c206e6f7420657869737400000000000000000000000000008152509250925050612240565b60026004868154811061207f57fe5b906000526020600020906006020160020160009054906101000a900460ff1660ff16146120e85760016040518060400160405280601181526020017f50726f706f73616c2066696e69736865640000000000000000000000000000008152509250925050612240565b600485815481106120f557fe5b906000526020600020906006020160010154421061214f5760016040518060400160405280601681526020017f54696d6520666f7220766f74696e67206973206f7574000000000000000000008152509250925050612240565b6004858154811061215c57fe5b906000526020600020906006020160050160008573ffffffffffffffffffffffffffffffffffffffff1673ffffffffffffffffffffffffffffffffffffffff16815260200190815260200160002060000160009054906101000a900460ff16156122025760016040518060400160405280601581526020017f596f752061726520616c726561647920766f74656400000000000000000000008152509250925050612240565b60006040518060400160405280600281526020017f6f6b00000000000000000000000000000000000000000000000000000000000081525092509250505b9250929050565b600060606122558433611fc6565b9150915081158190612302576040517f08c379a00000000000000000000000000000000000000000000000000000000081526004018080602001828103825283818151815260200191508051906020019080838360005b838110156122c75780820151818401526020810190506122ac565b50505050905090810190601f1680156122f45780820380516001836020036101000a031916815260200191505b509250505060405180910390fd5b5060016004858154811061231257fe5b906000526020600020906006020160050160003373ffffffffffffffffffffffffffffffffffffffff1673ffffffffffffffffffffffffffffffffffffffff16815260200190815260200160002060000160006101000a81548160ff021916908315150217905550826004858154811061238857fe5b906000526020600020906006020160050160003373ffffffffffffffffffffffffffffffffffffffff1673ffffffffffffffffffffffffffffffffffffffff16815260200190815260200160002060000160016101000a81548160ff021916908360ff1602179055507f09859833479d3666edeeab8dc08198cf10941655b46111c955f390c6610a98336004858154811061241f57fe5b906000526020600020906006020160000154853386604051808581526020018481526020018373ffffffffffffffffffffffffffffffffffffffff1673ffffffffffffffffffffffffffffffffffffffff1681526020018260ff1660ff16815260200194505050505060405180910390a150505050565b600080600090505b806003805490501115612536578273ffffffffffffffffffffffffffffffffffffffff16600382815481106124cf57fe5b906000526020600020906002020160010160009054906101000a900473ffffffffffffffffffffffffffffffffffffffff1673ffffffffffffffffffffffffffffffffffffffff161415612529576001810191505061253c565b808060010191505061249e565b50600090505b919050565b81548183558181111561256e5760020281600202836000526020600020918201910161256d9190612573565b5b505050565b6125be91905b808211156125ba576000808201600090556001820160006101000a81549073ffffffffffffffffffffffffffffffffffffffff021916905550600201612579565b5090565b9056fe436f756e74206f6620766f746564207061727469636970616e7473206d757374206265206d6f7265207468616e203530254d696e696d616c20636f756e74206f6620766f746564207061727469636970616e747320697320324d696e696d616c20636f756e74206f66207061727469636970616e74732069732032a265627a7a72315820cb322e202baade97fc3c8aaca68d2f14653174b847b9a4cc4889b4488d8e507364736f6c63430005100032",
  "source": "pragma solidity ^0.5.1;\n\nimport \"./SafeMath.sol\";\nimport \"./FloteaToken.sol\";\n\ncontract VotingIco {\n    FloteaToken token;\n    address transportAddress;\n    event Vote(bytes32 description, uint proposalIndex, address addr, uint8 vote);\n    event FinishVoting(bytes32 description, bool result, uint proposalIndex);\n    event ProposalCreated(bytes32 description, uint endTime, ActionType actionType, address actionAddress, bytes32 name, uint amount, uint proposalIndex);\n    \n    enum ActionType {add_voter, remove_voter, transfer_eth, transfer_flt}\n\n    struct VoteStatus {\n        bool voted;\n        uint8 vote; // 0 no 1 yes 2 resignation\n    }\n    \n    struct Proposal {\n        bytes32 description;\n        uint endTime;\n        uint8 result; // 0 no 1 yes 2 notFinished\n        ActionType actionType; // 0 add 1 remove participant 2 transfer ETH 3 transfer FLT\n        address payable actionAddress; // Add/Remove participant or transfer address\n        bytes32 name;  // name of added participant\n        uint256 amount; // amount of transfered Wei\n        mapping(address => VoteStatus) status;\n    }\n\n    struct Participant {\n        bytes32 name;\n        address addr;\n    }\n    \n    struct ParticipantVote {\n        bytes32 name;\n        address addr;\n        uint8 vote;\n    }\n        \n    address payable public owner;\n    Participant[] public participants;\n    Proposal[] public proposals;\n    \n    /*\n    constructor(address[] memory _participates, bytes32[] memory names) public {\n        \n        require(_participates.length == names.length, \"Count of participates and names must be same\");\n        require(_participates.length > 2, \"Count of participates must be more than 2\");\n        \n        for(uint i = 0; _participates.length > i; i++){\n            participants.push(Participant( names[i], _participates[i] ));\n        }\n        participants.length = _participates.length;\n    }\n    */\n\n    function beforeCreateProposal(ActionType _actionType, address payable _actionAddress, address _senderAddress) public view returns(bool, string memory) {\n        uint index = findParticipantIndex(_actionAddress);\n        if(findParticipantIndex(_senderAddress) == 0)\n            return(true, \"You are not in participant\");\n        if(_actionType == ActionType.add_voter && index != 0)\n            return(true, \"This participant already exist\");\n        if(_actionType == ActionType.remove_voter && index == 0)\n            return(true, \"This is not participant address\");\n        if(_actionType == ActionType.remove_voter && participants.length <= 2)\n            return(true, \"Minimal count of participants is 2\");\n        return(false, \"ok\");\n    }\n    \n    function createProposal( bytes32 _description, uint _durationHours, ActionType _actionType, address payable _actionAddress, bytes32 _name, uint _amount) public {\n        (bool error, string memory message) = beforeCreateProposal(_actionType, _actionAddress, msg.sender);\n        require (!error, message);\n\n        uint time = now + (_durationHours * 1 hours);\n        proposals.push(\n            Proposal(_description, time, 2,  _actionType, _actionAddress, _name, _amount)\n        );\n        emit ProposalCreated(_description, time, _actionType, _actionAddress, _name, _amount, proposals.length-1);\n    }\n    \n    function beforeVoteInProposal (uint proposalIndex, address senderAddress) public view returns(bool, string memory) {\n        uint index = findParticipantIndex(senderAddress);\n        if(index == 0)\n            return(true, \"You are not in participant\");\n        if(proposals.length <= proposalIndex)\n            return(true, \"Proposal not exist\");\n        if(proposals[proposalIndex].result != 2)\n            return(true, \"Proposal finished\");\n        if(now >= proposals[proposalIndex].endTime)\n            return(true, \"Time for voting is out\");\n        if(proposals[proposalIndex].status[senderAddress].voted)\n            return(true, \"You are already voted\");\n        return(false, \"ok\");\n    }\n\n    function voteInProposal (uint proposalIndex, uint8 vote) public{\n        (bool error, string memory message) = beforeVoteInProposal(proposalIndex, msg.sender);\n        require (!error, message);\n        proposals[proposalIndex].status[msg.sender].voted = true;\n        proposals[proposalIndex].status[msg.sender].vote = vote;\n        emit Vote(proposals[proposalIndex].description, proposalIndex, msg.sender, vote);\n    }\n\n    function beforeFinishProposal (uint proposalIndex, address senderAddress) public view \n    returns(bool error, string memory message, uint votedYes, uint votedNo) {\n        uint index = findParticipantIndex(senderAddress);\n        uint _votedYes = 0;\n        uint _votedNo = 0;\n        uint _voted = 0;\n        uint _carrierVotersLength = participants.length;\n        \n        for(uint i = 0; _carrierVotersLength > i; i++){\n            if( proposals[proposalIndex].status[participants[i].addr].voted ){\n                _voted++;\n                if(proposals[proposalIndex].status[participants[i].addr].vote == 1)\n                    _votedYes++;\n                if(proposals[proposalIndex].status[participants[i].addr].vote == 0)\n                    _votedNo++;\n            }\n        }\n\n        if(index == 0)\n            return(true, \"You are not in participant\", _votedYes, _votedNo);\n        if(proposals.length <= proposalIndex)\n            return(true, \"Proposal does not exist\", _votedYes, _votedNo);\n        if(proposals[proposalIndex].result != 2)\n            return(true, \"Voting has finished\", _votedYes, _votedNo);\n        if(now <= proposals[proposalIndex].endTime && _carrierVotersLength != _voted)\n            return(true, \"Voting is not finished\", _votedYes, _votedNo);\n        if(proposals[proposalIndex].actionType == ActionType.transfer_eth && address(this).balance < proposals[proposalIndex].amount)\n            return(true, \"Low ETH balance\", _votedYes, _votedNo);\n        if(proposals[proposalIndex].actionType == ActionType.transfer_flt && token.balanceOf(transportAddress) < proposals[proposalIndex].amount)\n            return(true, \"Low FLT balance\", _votedYes, _votedNo);\n        if(proposals[proposalIndex].actionType == ActionType.remove_voter && _carrierVotersLength == 2)\n            return(true, \"Minimal count of voted participants is 2\", _votedYes, _votedNo);\n        if(_voted <= participants.length - _voted) // Minimum participants on proposal\n            return(true, \"Count of voted participants must be more than 50%\", _votedYes, _votedNo);\n        return(false, \"ok\", _votedYes, _votedNo);\n    }\n    \n    function finishProposal(uint proposalIndex) public {\n        (bool error, string memory message, uint votedYes, uint votedNo) = beforeFinishProposal(proposalIndex, msg.sender);\n        require (!error, message);\n\n        proposals[proposalIndex].result = votedYes > votedNo? 1 : 0;\n\n        if(votedYes > votedNo){\n            if(proposals[proposalIndex].actionType == ActionType.add_voter){ // Add participant\n                require(findParticipantIndex(proposals[proposalIndex].actionAddress) == 0, \"This participant already exist\");\n                participants.push( Participant(proposals[proposalIndex].name, proposals[proposalIndex].actionAddress));\n            } \n            else if (proposals[proposalIndex].actionType == ActionType.remove_voter) { // Remove participant\n                uint index = findParticipantIndex(proposals[proposalIndex].actionAddress) - 1;\n                participants[index] = participants[participants.length-1]; // Copy last item on removed position and\n                participants.length--; // decrease length\n            } \n            else if (proposals[proposalIndex].actionType == ActionType.transfer_eth) { // Transfer ETH\n                proposals[proposalIndex].actionAddress.transfer(proposals[proposalIndex].amount);\n            }\n            else if (proposals[proposalIndex].actionType == ActionType.transfer_flt) { // Transfer FLT\n                token.transferFrom(transportAddress, proposals[proposalIndex].actionAddress, proposals[proposalIndex].amount);\n            }\n        }\n        emit FinishVoting(proposals[proposalIndex].description, votedYes > votedNo, proposalIndex);\n    }\n\n    function statusOfProposal (uint index) public view returns (address[] memory, bytes32[] memory, uint8[] memory) {\n        require(proposals.length > index, \"Proposal not exist\");\n\n        address[] memory addr = new address[](participants.length);\n        bytes32[] memory name = new bytes32[](participants.length);\n        uint8[] memory vote = new uint8[](participants.length);\n        uint pom = 0;\n        for(uint i = 0; participants.length > i; i++){\n            if(proposals[index].status[participants[i].addr].voted){\n                addr[pom] = participants[i].addr; \n                name[pom] = participants[i].name;\n                vote[pom] = proposals[index].status[participants[i].addr].vote;\n                pom++;\n            }\n        }\n        \n        return (addr, name, vote);\n    }\n\n    function proposalsLength () public view returns (uint) {\n        return proposals.length;\n    }\n\n    function participantsLength () public view returns (uint) {\n        return participants.length;\n    }\n    \n    function findParticipantIndex(address addr) private view returns (uint) {\n        for(uint i = 0; participants.length > i; i++){\n            if(participants[i].addr == addr)\n            return i+1;\n        }\n        return 0;\n    }\n\n}",
  "sourcePath": "/home/martin/eth-contract/transport-eth-contracts/contracts/VotingIco.sol",
  "compiler": {
    "name": "solc",
    "version": "0.5.16+commit.9c3226ce.Emscripten.clang"
  },
  "schemaVersion": "3.1.0",
  "updatedAt": "2020-04-29T23:43:01.089Z",
  "devdoc": {
    "methods": {}
  },
  "userdoc": {
    "methods": {}
  }
}