{
  "contractName": "VotingCarrier",
  "abi": [
    {
      "inputs": [
        {
          "internalType": "address payable",
          "name": "firstVoter",
          "type": "address"
        },
        {
          "internalType": "address payable",
          "name": "secondVoter",
          "type": "address"
        }
      ],
      "payable": false,
      "stateMutability": "nonpayable",
      "type": "constructor"
    },
    {
      "anonymous": false,
      "inputs": [
        {
          "indexed": false,
          "internalType": "bytes32",
          "name": "name",
          "type": "bytes32"
        },
        {
          "indexed": false,
          "internalType": "bytes32",
          "name": "web",
          "type": "bytes32"
        },
        {
          "indexed": false,
          "internalType": "uint256",
          "name": "endTime",
          "type": "uint256"
        },
        {
          "indexed": false,
          "internalType": "uint8",
          "name": "actionType",
          "type": "uint8"
        },
        {
          "indexed": false,
          "internalType": "address",
          "name": "actionAddress",
          "type": "address"
        },
        {
          "indexed": false,
          "internalType": "uint256",
          "name": "proposalIndex",
          "type": "uint256"
        }
      ],
      "name": "CarrierProposalCreated",
      "type": "event"
    },
    {
      "anonymous": false,
      "inputs": [
        {
          "indexed": false,
          "internalType": "bool",
          "name": "result",
          "type": "bool"
        },
        {
          "indexed": false,
          "internalType": "uint256",
          "name": "proposalIndex",
          "type": "uint256"
        },
        {
          "indexed": false,
          "internalType": "uint256",
          "name": "votedYes",
          "type": "uint256"
        },
        {
          "indexed": false,
          "internalType": "uint256",
          "name": "votedNo",
          "type": "uint256"
        },
        {
          "indexed": false,
          "internalType": "uint256",
          "name": "resigned",
          "type": "uint256"
        },
        {
          "indexed": false,
          "internalType": "uint256",
          "name": "totalVoters",
          "type": "uint256"
        }
      ],
      "name": "FinishVotingCarrier",
      "type": "event"
    },
    {
      "anonymous": false,
      "inputs": [
        {
          "indexed": false,
          "internalType": "uint256",
          "name": "proposalIndex",
          "type": "uint256"
        },
        {
          "indexed": false,
          "internalType": "address",
          "name": "addr",
          "type": "address"
        },
        {
          "indexed": false,
          "internalType": "uint8",
          "name": "vote",
          "type": "uint8"
        }
      ],
      "name": "VoteCarrier",
      "type": "event"
    },
    {
      "constant": true,
      "inputs": [
        {
          "internalType": "uint256",
          "name": "",
          "type": "uint256"
        }
      ],
      "name": "carrierProposals",
      "outputs": [
        {
          "internalType": "bytes32",
          "name": "name",
          "type": "bytes32"
        },
        {
          "internalType": "bytes32",
          "name": "web",
          "type": "bytes32"
        },
        {
          "internalType": "uint256",
          "name": "endTime",
          "type": "uint256"
        },
        {
          "internalType": "uint8",
          "name": "result",
          "type": "uint8"
        },
        {
          "internalType": "uint8",
          "name": "actionType",
          "type": "uint8"
        },
        {
          "internalType": "address payable",
          "name": "actionAddress",
          "type": "address"
        }
      ],
      "payable": false,
      "stateMutability": "view",
      "type": "function"
    },
    {
      "constant": true,
      "inputs": [
        {
          "internalType": "uint256",
          "name": "",
          "type": "uint256"
        }
      ],
      "name": "carrierVoters",
      "outputs": [
        {
          "internalType": "address payable",
          "name": "addr",
          "type": "address"
        },
        {
          "internalType": "bool",
          "name": "enabled",
          "type": "bool"
        }
      ],
      "payable": false,
      "stateMutability": "view",
      "type": "function"
    },
    {
      "constant": true,
      "inputs": [],
      "name": "owner",
      "outputs": [
        {
          "internalType": "address payable",
          "name": "",
          "type": "address"
        }
      ],
      "payable": false,
      "stateMutability": "view",
      "type": "function"
    },
    {
      "constant": false,
      "inputs": [
        {
          "internalType": "address",
          "name": "_carriersAddress",
          "type": "address"
        }
      ],
      "name": "init",
      "outputs": [],
      "payable": false,
      "stateMutability": "nonpayable",
      "type": "function"
    },
    {
      "constant": true,
      "inputs": [
        {
          "internalType": "uint8",
          "name": "_actionType",
          "type": "uint8"
        },
        {
          "internalType": "address payable",
          "name": "_actionAddress",
          "type": "address"
        }
      ],
      "name": "beforeCreateCarrierProposal",
      "outputs": [
        {
          "internalType": "bool",
          "name": "",
          "type": "bool"
        },
        {
          "internalType": "string",
          "name": "",
          "type": "string"
        }
      ],
      "payable": false,
      "stateMutability": "view",
      "type": "function"
    },
    {
      "constant": false,
      "inputs": [
        {
          "internalType": "bytes32",
          "name": "_name",
          "type": "bytes32"
        },
        {
          "internalType": "bytes32",
          "name": "_web",
          "type": "bytes32"
        },
        {
          "internalType": "uint8",
          "name": "_actionType",
          "type": "uint8"
        },
        {
          "internalType": "address payable",
          "name": "_actionAddress",
          "type": "address"
        }
      ],
      "name": "createCarrierProposal",
      "outputs": [],
      "payable": false,
      "stateMutability": "nonpayable",
      "type": "function"
    },
    {
      "constant": true,
      "inputs": [
        {
          "internalType": "uint256",
          "name": "proposalIndex",
          "type": "uint256"
        },
        {
          "internalType": "address",
          "name": "senderAddress",
          "type": "address"
        }
      ],
      "name": "beforeVoteInCarrierProposal",
      "outputs": [
        {
          "internalType": "bool",
          "name": "",
          "type": "bool"
        },
        {
          "internalType": "string",
          "name": "",
          "type": "string"
        }
      ],
      "payable": false,
      "stateMutability": "view",
      "type": "function"
    },
    {
      "constant": false,
      "inputs": [
        {
          "internalType": "uint256",
          "name": "proposalIndex",
          "type": "uint256"
        },
        {
          "internalType": "uint8",
          "name": "vote",
          "type": "uint8"
        }
      ],
      "name": "voteInCarrierProposal",
      "outputs": [],
      "payable": false,
      "stateMutability": "nonpayable",
      "type": "function"
    },
    {
      "constant": true,
      "inputs": [
        {
          "internalType": "uint256",
          "name": "proposalIndex",
          "type": "uint256"
        }
      ],
      "name": "beforeFinishCarrierProposal",
      "outputs": [
        {
          "internalType": "bool",
          "name": "error",
          "type": "bool"
        },
        {
          "internalType": "string",
          "name": "message",
          "type": "string"
        },
        {
          "internalType": "uint256",
          "name": "votedYes",
          "type": "uint256"
        },
        {
          "internalType": "uint256",
          "name": "votedNo",
          "type": "uint256"
        },
        {
          "internalType": "uint256",
          "name": "resigned",
          "type": "uint256"
        }
      ],
      "payable": false,
      "stateMutability": "view",
      "type": "function"
    },
    {
      "constant": false,
      "inputs": [
        {
          "internalType": "uint256",
          "name": "proposalIndex",
          "type": "uint256"
        }
      ],
      "name": "finishCarrierProposal",
      "outputs": [],
      "payable": false,
      "stateMutability": "nonpayable",
      "type": "function"
    },
    {
      "constant": true,
      "inputs": [
        {
          "internalType": "uint256",
          "name": "index",
          "type": "uint256"
        }
      ],
      "name": "statusOfCarrierProposal",
      "outputs": [
        {
          "internalType": "address[]",
          "name": "",
          "type": "address[]"
        },
        {
          "internalType": "uint8[]",
          "name": "",
          "type": "uint8[]"
        }
      ],
      "payable": false,
      "stateMutability": "view",
      "type": "function"
    },
    {
      "constant": true,
      "inputs": [],
      "name": "proposalsLength",
      "outputs": [
        {
          "internalType": "uint256",
          "name": "",
          "type": "uint256"
        }
      ],
      "payable": false,
      "stateMutability": "view",
      "type": "function"
    },
    {
      "constant": true,
      "inputs": [],
      "name": "VotersLength",
      "outputs": [
        {
          "internalType": "uint256",
          "name": "",
          "type": "uint256"
        }
      ],
      "payable": false,
      "stateMutability": "view",
      "type": "function"
    }
  ],
  "bytecode": "0x60806040523480156200001157600080fd5b50604051620026d7380380620026d7833981810160405260408110156200003757600080fd5b810190808051906020019092919080519060200190929190505050600260405180604001604052808473ffffffffffffffffffffffffffffffffffffffff1681526020016001151581525090806001815401808255809150509060018203906000526020600020016000909192909190915060008201518160000160006101000a81548173ffffffffffffffffffffffffffffffffffffffff021916908373ffffffffffffffffffffffffffffffffffffffff16021790555060208201518160000160146101000a81548160ff021916908315150217905550505050600260405180604001604052808373ffffffffffffffffffffffffffffffffffffffff1681526020016001151581525090806001815401808255809150509060018203906000526020600020016000909192909190915060008201518160000160006101000a81548173ffffffffffffffffffffffffffffffffffffffff021916908373ffffffffffffffffffffffffffffffffffffffff16021790555060208201518160000160146101000a81548160ff02191690831515021790555050505060028081620001e49190620001ed565b50505062000279565b81548183558181111562000217578183600052602060002091820191016200021691906200021c565b5b505050565b6200027691905b808211156200027257600080820160006101000a81549073ffffffffffffffffffffffffffffffffffffffff02191690556000820160146101000a81549060ff02191690555060010162000223565b5090565b90565b61244e80620002896000396000f3fe608060405234801561001057600080fd5b50600436106100cf5760003560e01c8063b41b16601161008c578063c2ec6bae11610066578063c2ec6bae146104d0578063f9b74e3f146104ee578063fce9ad5f146105b9578063ff8518b7146105f4576100cf565b8063b41b1660146102e5578063b55a672314610382578063bf48fbc514610457576100cf565b806319ab453c146100d457806344c7c867146101185780637315de8e146101365780638da5cb5b146102085780639027033114610252578063abf67ae114610280575b600080fd5b610116600480360360208110156100ea57600080fd5b81019080803573ffffffffffffffffffffffffffffffffffffffff1690602001909291905050506106bb565b005b6101206107c1565b6040518082815260200191505060405180910390f35b6101826004803603604081101561014c57600080fd5b8101908080359060200190929190803573ffffffffffffffffffffffffffffffffffffffff1690602001909291905050506107ce565b604051808315151515815260200180602001828103825283818151815260200191508051906020019080838360005b838110156101cc5780820151818401526020810190506101b1565b50505050905090810190601f1680156101f95780820380516001836020036101000a031916815260200191505b50935050505060405180910390f35b610210610ac0565b604051808273ffffffffffffffffffffffffffffffffffffffff1673ffffffffffffffffffffffffffffffffffffffff16815260200191505060405180910390f35b61027e6004803603602081101561026857600080fd5b8101908080359060200190929190505050610ae6565b005b6102e36004803603608081101561029657600080fd5b810190808035906020019092919080359060200190929190803560ff169060200190929190803573ffffffffffffffffffffffffffffffffffffffff169060200190929190505050611332565b005b610311600480360360208110156102fb57600080fd5b81019080803590602001909291905050506115ba565b604051808781526020018681526020018581526020018460ff1660ff1681526020018360ff1660ff1681526020018273ffffffffffffffffffffffffffffffffffffffff1673ffffffffffffffffffffffffffffffffffffffff168152602001965050505050505060405180910390f35b6103d16004803603604081101561039857600080fd5b81019080803560ff169060200190929190803573ffffffffffffffffffffffffffffffffffffffff16906020019092919050505061163d565b604051808315151515815260200180602001828103825283818151815260200191508051906020019080838360005b8381101561041b578082015181840152602081019050610400565b50505050905090810190601f1680156104485780820380516001836020036101000a031916815260200191505b50935050505060405180910390f35b6104836004803603602081101561046d57600080fd5b81019080803590602001909291905050506117bd565b604051808373ffffffffffffffffffffffffffffffffffffffff1673ffffffffffffffffffffffffffffffffffffffff168152602001821515151581526020019250505060405180910390f35b6104d8611817565b6040518082815260200191505060405180910390f35b61051a6004803603602081101561050457600080fd5b8101908080359060200190929190505050611824565b604051808060200180602001838103835285818151815260200191508051906020019060200280838360005b83811015610561578082015181840152602081019050610546565b50505050905001838103825284818151815260200191508051906020019060200280838360005b838110156105a3578082015181840152602081019050610588565b5050505090500194505050505060405180910390f35b6105f2600480360360408110156105cf57600080fd5b8101908080359060200190929190803560ff169060200190929190505050611b42565b005b6106206004803603602081101561060a57600080fd5b8101908080359060200190929190505050611d6b565b604051808615151515815260200180602001858152602001848152602001838152602001828103825286818151815260200191508051906020019080838360005b8381101561067c578082015181840152602081019050610661565b50505050905090810190601f1680156106a95780820380516001836020036101000a031916815260200191505b50965050505050505060405180910390f35b600073ffffffffffffffffffffffffffffffffffffffff166000809054906101000a900473ffffffffffffffffffffffffffffffffffffffff1673ffffffffffffffffffffffffffffffffffffffff161461077e576040517f08c379a000000000000000000000000000000000000000000000000000000000815260040180806020018281038252601f8152602001807f436f6e747261637420697320616c726561647920696e697469616c697a65640081525060200191505060405180910390fd5b806000806101000a81548173ffffffffffffffffffffffffffffffffffffffff021916908373ffffffffffffffffffffffffffffffffffffffff16021790555050565b6000600380549050905090565b6000606060006107dd846122ca565b9050600081141561082a5760016040518060400160405280601581526020017f596f7520617265206e6f7420696e20766f7465727300000000000000000000008152509250925050610ab9565b6002600182038154811061083a57fe5b9060005260206000200160000160149054906101000a900460ff1661089b5760016040518060400160405280600e81526020017f596f75206172652062616e6e65640000000000000000000000000000000000008152509250925050610ab9565b84600380549050116108e95760016040518060400160405280601281526020017f50726f706f73616c206e6f7420657869737400000000000000000000000000008152509250925050610ab9565b6002600386815481106108f857fe5b906000526020600020906005020160030160009054906101000a900460ff1660ff16146109615760016040518060400160405280601881526020017f4361727269657250726f706f73616c2066696e697368656400000000000000008152509250925050610ab9565b6003858154811061096e57fe5b90600052602060002090600502016002015442106109c85760016040518060400160405280601681526020017f54696d6520666f7220766f74696e67206973206f7574000000000000000000008152509250925050610ab9565b600385815481106109d557fe5b906000526020600020906005020160040160008573ffffffffffffffffffffffffffffffffffffffff1673ffffffffffffffffffffffffffffffffffffffff16815260200190815260200160002060000160009054906101000a900460ff1615610a7b5760016040518060400160405280601581526020017f596f752061726520616c726561647920766f74656400000000000000000000008152509250925050610ab9565b60006040518060400160405280600281526020017f6f6b00000000000000000000000000000000000000000000000000000000000081525092509250505b9250929050565b600160009054906101000a900473ffffffffffffffffffffffffffffffffffffffff1681565b600060606000806000610af886611d6b565b9450945094509450945084158490610bab576040517f08c379a00000000000000000000000000000000000000000000000000000000081526004018080602001828103825283818151815260200191508051906020019080838360005b83811015610b70578082015181840152602081019050610b55565b50505050905090810190601f168015610b9d5780820380516001836020036101000a031916815260200191505b509250505060405180910390fd5b50818311610bba576000610bbd565b60015b60038781548110610bca57fe5b906000526020600020906005020160030160006101000a81548160ff021916908360ff16021790555060006002805490509050600060038881548110610c0c57fe5b906000526020600020906005020160030160029054906101000a900473ffffffffffffffffffffffffffffffffffffffff1690506000610c4b826122ca565b9050848611156112c257600060038a81548110610c6457fe5b906000526020600020906005020160030160019054906101000a900460ff1660ff16148015610cd357506000811480610cd2575060008114158015610cd1575060026001820381548110610cb457fe5b9060005260206000200160000160149054906101000a900460ff16155b5b5b15610fa8576000811415610eab57600260405180604001604052808473ffffffffffffffffffffffffffffffffffffffff1681526020016001151581525090806001815401808255809150509060018203906000526020600020016000909192909190915060008201518160000160006101000a81548173ffffffffffffffffffffffffffffffffffffffff021916908373ffffffffffffffffffffffffffffffffffffffff16021790555060208201518160000160146101000a81548160ff0219169083151502179055505050506000809054906101000a900473ffffffffffffffffffffffffffffffffffffffff1673ffffffffffffffffffffffffffffffffffffffff1663bbc064ab60038b81548110610dec57fe5b90600052602060002090600502016000015460038c81548110610e0b57fe5b906000526020600020906005020160010154856040518463ffffffff1660e01b8152600401808481526020018381526020018273ffffffffffffffffffffffffffffffffffffffff1673ffffffffffffffffffffffffffffffffffffffff1681526020019350505050600060405180830381600087803b158015610e8e57600080fd5b505af1158015610ea2573d6000803e3d6000fd5b50505050610fa7565b600160026001830381548110610ebd57fe5b9060005260206000200160000160146101000a81548160ff0219169083151502179055506000809054906101000a900473ffffffffffffffffffffffffffffffffffffffff1673ffffffffffffffffffffffffffffffffffffffff16630278de238360006040518363ffffffff1660e01b8152600401808373ffffffffffffffffffffffffffffffffffffffff1673ffffffffffffffffffffffffffffffffffffffff1681526020018215151515815260200192505050600060405180830381600087803b158015610f8e57600080fd5b505af1158015610fa2573d6000803e3d6000fd5b505050505b5b600160038a81548110610fb757fe5b906000526020600020906005020160030160019054906101000a900460ff1660ff1614801561101a575060008114158015611019575060026001820381548110610ffd57fe5b9060005260206000200160000160149054906101000a900460ff165b5b80156110265750600283115b156112c1576002600184038154811061103b57fe5b906000526020600020016002600183038154811061105557fe5b906000526020600020016000820160009054906101000a900473ffffffffffffffffffffffffffffffffffffffff168160000160006101000a81548173ffffffffffffffffffffffffffffffffffffffff021916908373ffffffffffffffffffffffffffffffffffffffff1602179055506000820160149054906101000a900460ff168160000160146101000a81548160ff021916908315150217905550905050600280548091906001900361110b9190612371565b5060008060009054906101000a900473ffffffffffffffffffffffffffffffffffffffff1673ffffffffffffffffffffffffffffffffffffffff16636d98dbbd846040518263ffffffff1660e01b8152600401808273ffffffffffffffffffffffffffffffffffffffff1673ffffffffffffffffffffffffffffffffffffffff168152602001915050604080518083038186803b1580156111ab57600080fd5b505afa1580156111bf573d6000803e3d6000fd5b505050506040513d60408110156111d557600080fd5b81019080805190602001909291908051906020019092919050505050905080156112bf576000809054906101000a900473ffffffffffffffffffffffffffffffffffffffff1673ffffffffffffffffffffffffffffffffffffffff16630278de238460016040518363ffffffff1660e01b8152600401808373ffffffffffffffffffffffffffffffffffffffff1673ffffffffffffffffffffffffffffffffffffffff1681526020018215151515815260200192505050600060405180830381600087803b1580156112a657600080fd5b505af11580156112ba573d6000803e3d6000fd5b505050505b505b5b7fbbcddfbdcfd5761d3f0e882316b007ce24b1b7815249ed4fe6193149f3b705608587118a888888886040518087151515158152602001868152602001858152602001848152602001838152602001828152602001965050505050505060405180910390a1505050505050505050565b60006060611340848461163d565b91509150811581906113ed576040517f08c379a00000000000000000000000000000000000000000000000000000000081526004018080602001828103825283818151815260200191508051906020019080838360005b838110156113b2578082015181840152602081019050611397565b50505050905090810190601f1680156113df5780820380516001836020036101000a031916815260200191505b509250505060405180910390fd5b506000610e104201905060036040518060c00160405280898152602001888152602001838152602001600260ff1681526020018760ff1681526020018673ffffffffffffffffffffffffffffffffffffffff168152509080600181540180825580915050906001820390600052602060002090600502016000909192909190915060008201518160000155602082015181600101556040820151816002015560608201518160030160006101000a81548160ff021916908360ff16021790555060808201518160030160016101000a81548160ff021916908360ff16021790555060a08201518160030160026101000a81548173ffffffffffffffffffffffffffffffffffffffff021916908373ffffffffffffffffffffffffffffffffffffffff1602179055505050507f84cd33a14b206caee36716f586430345947dc259f772dcfcb614965bbce9da828787838888600160038054905003604051808781526020018681526020018581526020018460ff1660ff1681526020018373ffffffffffffffffffffffffffffffffffffffff1673ffffffffffffffffffffffffffffffffffffffff168152602001828152602001965050505050505060405180910390a150505050505050565b600381815481106115c757fe5b90600052602060002090600502016000915090508060000154908060010154908060020154908060030160009054906101000a900460ff16908060030160019054906101000a900460ff16908060030160029054906101000a900473ffffffffffffffffffffffffffffffffffffffff16905086565b60006060600061164c846122ca565b905060008560ff16148015611662575060008114155b801561169557506002600182038154811061167957fe5b9060005260206000200160000160149054906101000a900460ff165b156116dc5760016040518060400160405280601f81526020017f54686973206361727269657220697320616c726561647920656e61626c65640081525092509250506117b6565b60018560ff161480156116ef5750600081145b156117365760016040518060400160405280601681526020017f546869732063617272696572206e6f742065786973740000000000000000000081525092509250506117b6565b60018560ff1614801561174e57506002808054905011155b156117785760016040518060600160405280602281526020016123f86022913992509250506117b6565b60006040518060400160405280600281526020017f6f6b00000000000000000000000000000000000000000000000000000000000081525092509250505b9250929050565b600281815481106117ca57fe5b906000526020600020016000915090508060000160009054906101000a900473ffffffffffffffffffffffffffffffffffffffff16908060000160149054906101000a900460ff16905082565b6000600280549050905090565b60608082600380549050116118a1576040517f08c379a000000000000000000000000000000000000000000000000000000000815260040180806020018281038252601a8152602001807f436172726965722070726f706f73616c206e6f7420657869737400000000000081525060200191505060405180910390fd5b60606002805490506040519080825280602002602001820160405280156118d75781602001602082028038833980820191505090505b50905060606002805490506040519080825280602002602001820160405280156119105781602001602082028038833980820191505090505b509050600080905060008090505b806002805490501115611b33576003878154811061193857fe5b906000526020600020906005020160040160006002838154811061195857fe5b9060005260206000200160000160009054906101000a900473ffffffffffffffffffffffffffffffffffffffff1673ffffffffffffffffffffffffffffffffffffffff1673ffffffffffffffffffffffffffffffffffffffff16815260200190815260200160002060000160009054906101000a900460ff1615611b2657600281815481106119e357fe5b9060005260206000200160000160009054906101000a900473ffffffffffffffffffffffffffffffffffffffff16848381518110611a1d57fe5b602002602001019073ffffffffffffffffffffffffffffffffffffffff16908173ffffffffffffffffffffffffffffffffffffffff168152505060038781548110611a6457fe5b9060005260206000209060050201600401600060028381548110611a8457fe5b9060005260206000200160000160009054906101000a900473ffffffffffffffffffffffffffffffffffffffff1673ffffffffffffffffffffffffffffffffffffffff1673ffffffffffffffffffffffffffffffffffffffff16815260200190815260200160002060000160019054906101000a900460ff16838381518110611b0957fe5b602002602001019060ff16908160ff168152505081806001019250505b808060010191505061191e565b50828294509450505050915091565b60006060611b5084336107ce565b9150915081158190611bfd576040517f08c379a00000000000000000000000000000000000000000000000000000000081526004018080602001828103825283818151815260200191508051906020019080838360005b83811015611bc2578082015181840152602081019050611ba7565b50505050905090810190601f168015611bef5780820380516001836020036101000a031916815260200191505b509250505060405180910390fd5b50600160038581548110611c0d57fe5b906000526020600020906005020160040160003373ffffffffffffffffffffffffffffffffffffffff1673ffffffffffffffffffffffffffffffffffffffff16815260200190815260200160002060000160006101000a81548160ff0219169083151502179055508260038581548110611c8357fe5b906000526020600020906005020160040160003373ffffffffffffffffffffffffffffffffffffffff1673ffffffffffffffffffffffffffffffffffffffff16815260200190815260200160002060000160016101000a81548160ff021916908360ff1602179055507fa4121362880273e549184c64b3b6be247137a7fabf67829447b70922f467797e843385604051808481526020018373ffffffffffffffffffffffffffffffffffffffff1673ffffffffffffffffffffffffffffffffffffffff1681526020018260ff1660ff168152602001935050505060405180910390a150505050565b6000606060008060008060009050600080905060008090506000809050600060028054905090508a60038054905011611df05760018585856040518060400160405280601281526020017f50726f706f73616c206e6f7420657869737400000000000000000000000000008152509291909950995099509950995050505050506122c1565b60008090505b808211156120ed5760038c81548110611e0b57fe5b9060005260206000209060050201600401600060028381548110611e2b57fe5b9060005260206000200160000160009054906101000a900473ffffffffffffffffffffffffffffffffffffffff1673ffffffffffffffffffffffffffffffffffffffff1673ffffffffffffffffffffffffffffffffffffffff16815260200190815260200160002060000160009054906101000a900460ff16156120e0578280600101935050600260038d81548110611ec057fe5b9060005260206000209060050201600401600060028481548110611ee057fe5b9060005260206000200160000160009054906101000a900473ffffffffffffffffffffffffffffffffffffffff1673ffffffffffffffffffffffffffffffffffffffff1673ffffffffffffffffffffffffffffffffffffffff16815260200190815260200160002060000160019054906101000a900460ff1660ff161415611f6b5783806001019450505b600160038d81548110611f7a57fe5b9060005260206000209060050201600401600060028481548110611f9a57fe5b9060005260206000200160000160009054906101000a900473ffffffffffffffffffffffffffffffffffffffff1673ffffffffffffffffffffffffffffffffffffffff1673ffffffffffffffffffffffffffffffffffffffff16815260200190815260200160002060000160019054906101000a900460ff1660ff1614156120255785806001019650505b600060038d8154811061203457fe5b906000526020600020906005020160040160006002848154811061205457fe5b9060005260206000200160000160009054906101000a900473ffffffffffffffffffffffffffffffffffffffff1673ffffffffffffffffffffffffffffffffffffffff1673ffffffffffffffffffffffffffffffffffffffff16815260200190815260200160002060000160019054906101000a900460ff1660ff1614156120df5784806001019550505b5b8080600101915050611df6565b50600260038c815481106120fd57fe5b906000526020600020906005020160030160009054906101000a900460ff1660ff16146121765760018585856040518060400160405280601581526020017f50726f706f73616c206861732066696e697368656400000000000000000000008152509291909950995099509950995050505050506122c1565b60038b8154811061218357fe5b90600052602060002090600502016002015442111580156121a45750818114155b156121fb5760018585856040518060400160405280601681526020017f566f74696e67206973206e6f742066696e6973686564000000000000000000008152509291909950995099509950995050505050506122c1565b600160038c8154811061220a57fe5b906000526020600020906005020160030160019054906101000a900460ff1660ff161480156122395750600281145b156122735760018585856040518060600160405280602281526020016123f8602291399291909950995099509950995050505050506122c1565b60008585856040518060400160405280600281526020017f6f6b0000000000000000000000000000000000000000000000000000000000008152509291909950995099509950995050505050505b91939590929450565b600080600090505b806002805490501115612366578273ffffffffffffffffffffffffffffffffffffffff166002828154811061230357fe5b9060005260206000200160000160009054906101000a900473ffffffffffffffffffffffffffffffffffffffff1673ffffffffffffffffffffffffffffffffffffffff161415612359576001810191505061236c565b80806001019150506122d2565b50600090505b919050565b81548183558181111561239857818360005260206000209182019101612397919061239d565b5b505050565b6123f491905b808211156123f057600080820160006101000a81549073ffffffffffffffffffffffffffffffffffffffff02191690556000820160146101000a81549060ff0219169055506001016123a3565b5090565b9056fe4d696e696d616c20636f756e74206f66207061727469636970616e74732069732032a265627a7a723158207d7bbc0bfcdf917ceb353770745a3c637e0abce3559bc41a58cbcb26209a0aa664736f6c63430005100032",
  "source": "pragma solidity ^0.5.1;\n//pragma experimental ABIEncoderV2;\nimport \"./SafeMath.sol\";\nimport \"./Transport.sol\";\nimport \"./CarriersInterface.sol\";\n\ncontract VotingCarrier {\n    \n    event VoteCarrier(uint proposalIndex, address addr, uint8 vote);\n    event FinishVotingCarrier(bool result, uint proposalIndex, uint votedYes, uint votedNo, uint resigned, uint totalVoters);\n    event CarrierProposalCreated(bytes32 name, bytes32 web, uint endTime, uint8 actionType, address actionAddress, uint proposalIndex);\n    \n    struct VoteCarrierStatus {\n        bool voted;\n        uint8 vote; // 0 no 1 yes 2 resigned\n    }\n    \n    struct CarrierProposal {\n        bytes32 name;  // name of added carrier\n        bytes32 web;\n        uint endTime;\n        uint8 result; // 0 no 1 yes 2 notFinished\n        uint8 actionType; // 0 add 1 remove carrier\n        address payable actionAddress; // Add/Remove carrier or transfer address\n        mapping(address => VoteCarrierStatus) status;\n    }\n\n    struct CarrierVoter {\n        address payable addr;\n        bool enabled;\n    }\n    \n    struct CarrierVoterVote {\n        bytes32 name;\n        address addr;\n        uint8 vote;\n    }\n    \n    CarriersInterface carriers;\n    address payable public owner;\n    CarrierVoter[] public carrierVoters;\n    CarrierProposal[] public carrierProposals;\n    \n    constructor(address payable firstVoter, address payable secondVoter) public {\n        carrierVoters.push(CarrierVoter( firstVoter, true ));\n        carrierVoters.push(CarrierVoter( secondVoter, true ));\n        carrierVoters.length = 2;\n    }\n\n    function init(address _carriersAddress) public {\n        require(address(carriers) == address(0), \"Contract is already initialized\");\n        carriers = CarriersInterface(_carriersAddress);\n    }\n    \n    \n    function beforeCreateCarrierProposal(uint8 _actionType, address payable _actionAddress) public view returns(bool, string memory) {\n        uint index = findCarrierVoterIndex(_actionAddress);\n        if(_actionType == 0 && index != 0 && carrierVoters[index-1].enabled)\n            return(true, \"This carrier is already enabled\");\n        if(_actionType == 1 && index == 0)\n            return(true, \"This carrier not exist\");\n        if(_actionType == 1 && carrierVoters.length <= 2)\n            return(true, \"Minimal count of participants is 2\");\n        return(false, \"ok\");\n    }\n\n    function createCarrierProposal( bytes32 _name, bytes32 _web, uint8 _actionType, address payable _actionAddress) public{\n     \n        (bool error, string memory message) = beforeCreateCarrierProposal(_actionType, _actionAddress);\n        require (!error, message);\n\n        /* for production 14 days */\n        uint time = now + 1 hours; \n        carrierProposals.push(\n            CarrierProposal(_name, _web , time, 2,  _actionType, _actionAddress)\n        );\n        emit CarrierProposalCreated(_name, _web, time, _actionType, _actionAddress, carrierProposals.length-1);\n    }\n\n    function beforeVoteInCarrierProposal (uint proposalIndex, address senderAddress) public view returns(bool, string memory) {\n        uint index = findCarrierVoterIndex(senderAddress);\n        if(index == 0)\n            return(true, \"You are not in voters\");\n        if(!carrierVoters[index-1].enabled)\n            return(true, \"You are banned\");\n        if(carrierProposals.length <= proposalIndex)\n            return(true, \"Proposal not exist\");\n        if(carrierProposals[proposalIndex].result != 2)\n            return(true, \"CarrierProposal finished\");\n        if(now >= carrierProposals[proposalIndex].endTime)\n            return(true, \"Time for voting is out\");\n        if(carrierProposals[proposalIndex].status[senderAddress].voted)\n            return(true, \"You are already voted\");\n        return(false, \"ok\");\n    }\n    \n    function voteInCarrierProposal (uint proposalIndex, uint8 vote) public {\n        (bool error, string memory message) = beforeVoteInCarrierProposal(proposalIndex, msg.sender);\n        require (!error, message);\n        carrierProposals[proposalIndex].status[msg.sender].voted = true;\n        carrierProposals[proposalIndex].status[msg.sender].vote = vote;\n        emit VoteCarrier(proposalIndex, msg.sender, vote);\n    }\n\n    function beforeFinishCarrierProposal (uint proposalIndex) public view \n    returns(bool error, string memory message, uint votedYes, uint votedNo, uint resigned) {\n        uint _votedYes = 0;\n        uint _votedNo = 0;\n        uint _resigned = 0;\n        uint _voted = 0;\n        uint _carrierVotersLength = carrierVoters.length;\n        \n        if(carrierProposals.length <= proposalIndex)\n            return(true, \"Proposal not exist\", _votedYes, _votedNo, _resigned);\n        \n        for(uint i = 0; _carrierVotersLength > i; i++){\n            if( carrierProposals[proposalIndex].status[carrierVoters[i].addr].voted ){\n                _voted++;\n                if(carrierProposals[proposalIndex].status[carrierVoters[i].addr].vote == 2)\n                    _resigned++;\n                if(carrierProposals[proposalIndex].status[carrierVoters[i].addr].vote == 1)\n                    _votedYes++;\n                if(carrierProposals[proposalIndex].status[carrierVoters[i].addr].vote == 0)\n                    _votedNo++;\n            }\n        }\n\n        if(carrierProposals[proposalIndex].result != 2)\n            return(true, \"Proposal has finished\", _votedYes, _votedNo, _resigned);\n        if(now <= carrierProposals[proposalIndex].endTime && _carrierVotersLength != _voted)\n            return(true, \"Voting is not finished\", _votedYes, _votedNo, _resigned);\n        if(carrierProposals[proposalIndex].actionType == 1 && _carrierVotersLength == 2)\n            return(true, \"Minimal count of participants is 2\", _votedYes, _votedNo, _resigned);\n        return(false, \"ok\", _votedYes, _votedNo, _resigned);\n    }\n    \n    \n    function finishCarrierProposal(uint proposalIndex) public{\n        (bool error, string memory message, uint votedYes, uint votedNo, uint resigned) = beforeFinishCarrierProposal(proposalIndex);\n        require (!error, message);\n\n        carrierProposals[proposalIndex].result = votedYes > votedNo? 1 : 0;\n        uint carrierVotersLength = carrierVoters.length;\n        address payable actionAddress = carrierProposals[proposalIndex].actionAddress;\n        uint carrierId = findCarrierVoterIndex(actionAddress);\n\n        if(votedYes > votedNo){\n            if(carrierProposals[proposalIndex].actionType == 0 && (carrierId == 0 || (carrierId != 0 && !carrierVoters[carrierId-1].enabled))){ // Add Voter\n                if(carrierId == 0){\n                    carrierVoters.push( CarrierVoter(actionAddress, true));\n                    carriers.addCarrier(carrierProposals[proposalIndex].name, carrierProposals[proposalIndex].web, actionAddress);\n                } else {\n                    carrierVoters[carrierId-1].enabled = true;\n                    carriers.setBanCarrier(actionAddress ,false);\n                }\n            } \n            if (carrierProposals[proposalIndex].actionType == 1 && (carrierId != 0 && carrierVoters[carrierId-1].enabled) && carrierVotersLength > 2) { // Remove Voter\n                carrierVoters[carrierId-1] = carrierVoters[carrierVotersLength-1]; // Copy last item on removed position and\n                carrierVoters.length--; // decrease length\n                (bool exist, ) = carriers.carrierExist(actionAddress);\n                if(exist) // For init voters\n                    carriers.setBanCarrier(actionAddress ,true);\n            }\n        }\n        emit FinishVotingCarrier(votedYes > votedNo, proposalIndex, votedYes, votedNo, resigned, carrierVotersLength);\n    }\n\n    function statusOfCarrierProposal (uint index) public view returns (address[] memory, uint8[] memory) {\n        require(carrierProposals.length > index, \"Carrier proposal not exist\");\n    \n        address[] memory addr = new address[](carrierVoters.length);\n        uint8[] memory vote = new uint8[](carrierVoters.length);\n        uint pom = 0;\n        for(uint i = 0; carrierVoters.length > i; i++){\n            if(carrierProposals[index].status[carrierVoters[i].addr].voted){\n                addr[pom] = carrierVoters[i].addr; \n                vote[pom] = carrierProposals[index].status[carrierVoters[i].addr].vote;\n                pom++;\n            }\n        }\n        \n        return (addr, vote);\n    }\n\n    function proposalsLength () public view returns (uint) {\n        return carrierProposals.length;\n    }\n\n    function VotersLength () public view returns (uint) {\n        return carrierVoters.length;\n    }\n    \n    function findCarrierVoterIndex(address addr) private view returns (uint) {\n        for(uint i = 0; carrierVoters.length > i; i++){\n            if(carrierVoters[i].addr == addr)\n            return i+1;\n        }\n        return 0;\n    }\n\n}",
  "sourcePath": "/home/martin/eth-contract/transport-eth-contracts/contracts/VotingCarrier.sol",
  "compiler": {
    "name": "solc",
    "version": "0.5.16+commit.9c3226ce.Emscripten.clang"
  },
  "schemaVersion": "3.1.0",
  "updatedAt": "2020-04-29T23:43:01.079Z",
  "devdoc": {
    "methods": {}
  },
  "userdoc": {
    "methods": {}
  }
}